:100000000C9447010C9464010C9464010C946401F9
:100010000C9447020C941B020C9464010C94640130
:100020000C9464010C9464010C9464010C946401BC
:100030000C9464010C9464010C9464010C946401AC
:100040000C9464010C9464010C9464010C9464019C
:100050000C9464010C9464010C9464010C9464018C
:100060000C9464010C946401000000000000005F27
:1000700000000007000700147F147F14242A7F2A41
:10008000122313086462364955225000050300000C
:10009000001C2241000041221C0014083E081408E4
:1000A000083E0808005030000008080808080060F2
:1000B00060000020100804023E5149453E00427F86
:1000C000400042615149462141454B311814127F8D
:1000D0001027454545393C4A494930017109050316
:1000E0003649494936064949291E0036360000007E
:1000F0005636000008142241001414141414004150
:100100002214080201510906324979413E7E11113B
:10011000117E7F494949363E414141227F4141227A
:100120001C7F494949417F090909013E4149497AF2
:100130007F0808087F00417F41002040413F017F48
:10014000081422417F404040407F020C027F7F0420
:1001500008107F3E4141413E7F090909063E415159
:10016000215E7F09192946464949493101017F012C
:10017000013F4040403F1F2040201F3F4038403F4C
:100180006314081463070870080761514945430068
:100190007F41410002040810200041417F00040219
:1001A0000102044040404040000102040020545439
:1001B00054787F48444438384444442038444448C0
:1001C0007F3854545418087E0901020C5252523E92
:1001D0007F0804047800447D40002040443D007FB7
:1001E0001028440000417F40007C041804787C08FB
:1001F00004047838444444387C1414140808141453
:10020000147C7C080404084854545420043F44409F
:10021000203C4040207C1C2040201C3C4030403C86
:1002200044281028440C5050503C4464544C440022
:100230000836410000007F00000041360800100829
:1002400008100800000000000B0180C81180C83AA7
:1002500081050AB1830006030A20800A3601A0B690
:10026000021502B40100E01009160920211B131920
:1002700017151E2B0405020EE1900B14081E221DFB
:10028000181E1B1A242B0606020F0A13800A1124BB
:100290001FBECFEFD8E0DEBFCDBF11E0A0E0B1E0E0
:1002A000EEECFFE002C005900D92A430B107D9F743
:1002B00021E0A4E0B1E001C01D92AA35B207E1F748
:1002C0000E940B020C94E5070C9400004F925F9281
:1002D0006F927F92AF92BF92CF92DF92EF92FF9296
:1002E0000F931F93CF93DF932B013C018091040167
:1002F00090910501019709F04CC065E085E00E94EE
:10030000050341E06FEF7FEF84E191E00E94280454
:1003100040C0C301B2012AE030E040E050E00E945A
:10032000D9046B017C018991DF92CF921F930F93C7
:100330001F928F930E94FB040D2C000CEE08FF0807
:10034000C301B2016C197D098E099F092AE030E0D2
:1003500040E050E00E94D90429013A010F900F902B
:100360000F900F900F900F90CA15DB0591F665E086
:1003700085E00E94050341E060E070E084E191E0E7
:100380000E94280481E090E090930501809304018D
:100390000BC0C4E1D1E00F2EF8E2AF2EF1E0BF2E8A
:1003A000F02D00E011E0B5CFDF91CF911F910F91BB
:1003B000FF90EF90DF90CF90BF90AF907F906F90C5
:1003C0005F904F90089587B1836087B98AB18C6040
:1003D0008AB987B1837C87B98AB18F708AB988B1AD
:1003E0008C6388B98BB1806F8BB988B1836088B911
:1003F0008BB18C608BB9ECE6F0E080818C638083FC
:10040000EDE6F0E08081806F8083E8E6F0E08081B7
:100410008660808308950E94D0040E94E3010E94B8
:1004200078048FEF9FEF0E9467048BE090E00E94BA
:1004300066017894FFCF1F920F920FB60F9211248E
:100440002F933F934F935F936F937F938F939F93DC
:10045000AF93BF93EF93FF934C9B04C04D9B02C09F
:100460004E9989B18EEA98E00E946601FF91EF9162
:10047000BF91AF919F918F917F916F915F914F91BC
:100480003F912F910F900FBE0F901F9018951F92C4
:100490000F920FB60F9211242F933F934F935F93B8
:1004A0006F937F938F939F93AF93BF93EF93FF933C
:1004B000329B04C0339B02C0349986B187E594E037
:1004C0000E946601FF91EF91BF91AF919F918F9133
:1004D0007F916F915F914F913F912F910F900FBE40
:1004E0000F901F901895289A209A8FE493EC01970B
:1004F000F1F700C0000028988FE493EC0197F1F722
:1005000000C00000289A089584B18E6284B92498AE
:1005100085B1846185B98CB580658CBD8DB58160F0
:100520008DBD08952A9829988EBD0DB407FEFDCF84
:100530002A9A8EB508952A98299A8EBD0DB407FE81
:10054000FDCF2A9A8EB508952A98299A9EBD0DB49A
:1005500007FEFDCF8EBD0DB407FEFDCF2A9A8EB5E6
:1005600008950F931F93CF93DF938C01EB018CE2DF
:1005700090E00E949202209729F0C8010E94A402F4
:100580002197D9F7DF91CF911F910F9108950F9384
:100590001F93CF93DF93681760F1623A60F52417D9
:1005A00060F1243860F5122F042FC62FD82F8AE26D
:1005B00090E00E94920280E00E949B028D2F0E9498
:1005C0009B0280E00E949B028C2F0E949B028BE288
:1005D00090E00E94920280E00E949B02802F0E9485
:1005E0009B0280E00E949B02812F0E949B0281E07F
:1005F00007C080E005C080E003C080E001C080E06B
:10060000DF91CF911F910F9108958D3990F06D3743
:10061000E0F46C3770F470E0685F7F4F709309010D
:100620006093080190E0909307018093060181E0B8
:10063000089570E0709309016093080190E0909331
:1006400007018093060181E0089580E00895CF932B
:10065000DF93EA01262F462F682F0E94C70261E030
:1006600070E0CE010E94B102DF91CF9108954F92C8
:100670005F927F928F929F92AF92BF92CF92DF92C2
:10068000EF92FF921F93CF93DF932B01411134C060
:100690006894992492F8C82FD0E0CE018097EC019D
:1006A000CC0FDD1FCC0FDD1FC80FD91F0F2EF8E0B8
:1006B000CF2EF1E0DF2EF02D0F2EF6E0EF2EF1E041
:1006C000FF2EF02DFE01E90DF11DE859FF4FB4900A
:1006D00017E0BB204CF4F6016081610FF7018081C7
:1006E000A201890D0E942703BB0C115090F79A9428
:1006F000FFEF9F12E7CF9CC0413009F040C06894E3
:10070000992492F8E82EF12CC70180977C01EE0C19
:10071000FF1CEE0CFF1CE80EF91E0F2EF8E0AF2EAA
:10072000F1E0BF2EF02D0F2EF6E0CF2EF1E0DF2E00
:10073000F02DF701E90DF11DE859FF4F8490C7E056
:100740008820ACF4F5016081DC2FDD0F6D0FF60120
:100750008081A201890D0E942703F50160816F5FEE
:100760006D0FF6018081A201890D0E942703880C7C
:10077000C15030F79A94FFEF9F12DBCF59C04A3037
:1007800009F056C06894EE24E2F8C82ED12CC601B8
:1007900080976C01CC0CDD1CCC0CDD1CC80ED91E66
:1007A0000F2EF8E08F2EF1E09F2EF02D0F2EF6E0A9
:1007B000AF2EF1E0BF2EF02DF601EE0DF11DE85940
:1007C000FF4FC4917E2C770CD7E0CC2354F5F40175
:1007D0006081FD2EFF0C6F0DF5018081A201870D58
:1007E0000E942703F40160816F5F6F0DF501808126
:1007F000A201870D0E942703F40160816F0DF501AE
:1008000080818F5FA201870D0E942703F401608120
:100810006F5F6F0DF50180818F5FA201870D0E94D0
:100820002703CC0FD15088F6EA94FFEFEF12C4CF24
:1008300080E0DF91CF911F91FF90EF90DF90CF90FC
:10084000BF90AF909F908F907F905F904F90089552
:100850009F92AF92BF92CF92DF92EF92FF920F934F
:100860001F93CF93DF93EC018881882321F1A42E7D
:100870008B01942E9694B12C0F2EF8E0CF2EF1E040
:10088000DF2EF02D0F2EF6E0EF2EF1E0FF2EF02DF3
:10089000B3944A2DB8010E943703F70180818A5F23
:1008A000F6016081890D0E940503FE01EB0DF11D2B
:1008B00080818111EDCFDF91CF911F910F91FF903A
:1008C000EF90DF90CF90BF90AF909F900895CF931F
:1008D000DF93EC0123E840E061EA80E00E94C70278
:1008E00068E873E5CE010E94B102DF91CF910895CF
:1008F00089E290E00E9492020895882341F0EFE996
:10090000FFE03197F1F700C000008150C1F7089572
:10091000CF92DF92EF92FF920F931F93CF93DF93CB
:100920007C012FEFE21AF20AFC01D4902EC0F701ED
:10093000849190E00E949202F7013196E491F2E0F6
:10094000EF0EF11C2E2F2078C22EEF778FEF8E0F37
:10095000EE2389F03E2D2F2D90E00196E80EF91E32
:100960008701C32FD22FFE0184910E949B02219602
:10097000C017D107C1F7CC2039F0E7012196F70164
:1009800084910E947D047E01DA94D110D0CFDF9152
:10099000CF911F910F91FF90EF90DF90CF9008952E
:1009A0000E9473020E94840288E492E00E948804FC
:1009B0000895A1E21A2EAA1BBB1BFD010DC0AA1FA0
:1009C000BB1FEE1FFF1FA217B307E407F50720F0B8
:1009D000A21BB30BE40BF50B661F771F881F991F33
:1009E0001A9469F760957095809590959B01AC017C
:1009F000BD01CF010895AEE0B0E0E1E0F5E00C9478
:100A0000BC070D891E8986E08C831A8309838FEFCA
:100A10009FE79E838D83AE01475E5F4F6F89788D20
:100A2000CE0101960E941D05EF81F885E00FF11FB0
:100A300010822E96E4E00C94D807ABE0B0E0E3E23D
:100A4000F5E00C94AE076C017B018A01FC01178272
:100A50001682838181FFCCC1CE0101963C01F60153
:100A60009381F70193FD859193FF81917F01882305
:100A700009F4BAC1853239F493FD859193FF8191D0
:100A80007F01853229F4B60190E00E941407E7CF78
:100A9000912C212C312CFFE1F315D8F08B3279F019
:100AA00038F4803279F08332A1F4232D20611DC007
:100AB0008D3261F0803369F4232D216016C0832DBF
:100AC0008260382EE32DE4603E2E2AC0F32DF860BC
:100AD0001DC037FC2DC020ED280F2A3040F08E328B
:100AE000B9F436FC81C1232D2064322E19C036FEA4
:100AF00006C08AE0989E200D1124922E11C0EAE0D3
:100B00002E9E200D1124222EF32DF0623F2E08C0C0
:100B10008C3621F4832D8068382E02C0883641F44B
:100B2000F70193FD859193FF81917F018111B3CFEF
:100B3000982F9F7D9554933028F40C5F1F4F9FE3AF
:100B400099830DC0833631F0833771F0833509F016
:100B500059C021C0F801808189830E5F1F4F88240E
:100B60008394912C530113C02801F2E04F0E511CC5
:100B7000F801A080B18036FE03C0692D70E002C08C
:100B80006FEF7FEFC5010E9409074C018201F32D31
:100B9000FF773F2E16C0280122E0420E511CF801BB
:100BA000A080B18036FE03C0692D70E002C06FEFF7
:100BB0007FEFC5010E94FE064C01F32DF0683F2E29
:100BC000820133FC1BC0822D90E088169906B0F498
:100BD000B60180E290E00E9414072A94F4CFF50158
:100BE00037FC859137FE81915F01B60190E00E944C
:100BF000140721102A9421E0821A9108811491048B
:100C000071F7E8C0843611F0893641F5F80137FEF6
:100C100007C060817181828193810C5F1F4F08C082
:100C200060817181072E000C880B990B0E5F1F4F9E
:100C3000F32DFF763F2E97FF09C090958095709514
:100C400061957F4F8F4F9F4FF0683F2E2AE030E035
:100C5000A3010E945007882E861845C0853731F4BD
:100C6000232D2F7EB22E2AE030E025C0932D997FD0
:100C7000B92E8F36C1F018F4883579F0B5C08037B9
:100C800019F0883721F0B0C0E92FE061BE2EB4FE24
:100C90000DC0FB2DF460BF2E09C034FE0AC0292F01
:100CA0002660B22E06C028E030E005C020E130E02A
:100CB00002C020E132E0F801B7FE07C06081718117
:100CC000828193810C5F1F4F06C06081718180E03B
:100CD00090E00E5F1F4FA3010E945007882E8618D8
:100CE000FB2DFF773F2E36FE0DC0232D2E7FA22E2B
:100CF000891458F434FE0BC032FC09C0832D8E7E5B
:100D0000A82E05C0B82CA32C03C0B82C01C0B92C48
:100D1000A4FE0FC0FE01E80DF11D8081803321F497
:100D20009A2D997EA92E09C0A2FE06C0B394B39451
:100D300004C08A2D867809F0B394A3FC11C0A0FEEC
:100D400006C0B21488F4280C922C9B180EC0B21462
:100D500060F4B60180E290E00E941407B394F7CFEC
:100D6000B21418F42B1802C0982C212CA4FE10C029
:100D7000B60180E390E00E941407A2FE17C0A1FC18
:100D800003C088E790E002C088E590E0B6010CC09F
:100D90008A2D867859F0A1FE02C08BE201C080E264
:100DA000A7FC8DE2B60190E00E941407891438F484
:100DB000B60180E390E00E9414079A94F7CF8A94DA
:100DC000F301E80DF11D8081B60190E00E94140747
:100DD0008110F5CF222009F442CEB60180E290E0E6
:100DE0000E9414072A94F6CFF6018681978102C0EB
:100DF0008FEF9FEF2B96E2E10C94CA07FC01059060
:100E0000615070400110D8F7809590958E0F9F1F0C
:100E10000895FC016150704001900110D8F7809551
:100E200090958E0F9F1F08950F931F93CF93DF937D
:100E3000FB01238121FD03C08FEF9FEF2CC022FF18
:100E400016C046815781248135814217530744F4E7
:100E5000A081B1819D012F5F3F4F318320838C930F
:100E6000268137812F5F3F4F3783268314C08B0144
:100E7000EC01FB010084F185E02D0995892BE1F659
:100E8000D80116968D919C911797019617969C9371
:100E90008E931697CE01DF91CF911F910F910895F8
:100EA000FA01AA27283051F1203181F1E8946F939B
:100EB0006E7F6E5F7F4F8F4F9F4FAF4FB1E03ED041
:100EC000B4E03CD0670F781F891F9A1FA11D680FDF
:100ED000791F8A1F911DA11D6A0F711D811D911D12
:100EE000A11D20D009F468943F912AE0269F112487
:100EF0003019305D3193DEF6CF010895462F4770EB
:100F0000405D4193B3E00FD0C9F7F6CF462F4F7045
:100F1000405D4A3318F0495D31FD4052419302D0A3
:100F2000A9F7EACFB4E0A695979587957795679549
:100F3000BA95C9F700976105710508959B01AC0149
:100F40000A2E06945795479537952795BA95C9F770
:100F5000620F731F841F951FA01D08952F923F924B
:100F60004F925F926F927F928F929F92AF92BF92B9
:100F7000CF92DF92EF92FF920F931F93CF93DF9365
:100F8000CDB7DEB7CA1BDB0B0FB6F894DEBF0FBEC2
:100F9000CDBF09942A88398848885F846E847D840F
:100FA0008C849B84AA84B984C884DF80EE80FD8011
:100FB0000C811B81AA81B981CE0FD11D0FB6F89487
:0E0FC000DEBF0FBECDBFED010895F894FFCF48
:040FCE002564000096
:00000001FF
