:100000000C9447010C9464010C9464010C946401F9
:100010000C94F7010C94A1010C9464010C946401FC
:100020000C9464010C9464010C9464010C946401BC
:100030000C9464010C9464010C9464010C946401AC
:100040000C9464010C9464010C9464010C9464019C
:100050000C9464010C9464010C9464010C9464018C
:100060000C9464010C946401000000000000005F27
:1000700000000007000700147F147F14242A7F2A41
:10008000122313086462364955225000050300000C
:10009000001C2241000041221C0014083E081408E4
:1000A000083E0808005030000008080808080060F2
:1000B00060000020100804023E5149453E00427F86
:1000C000400042615149462141454B311814127F8D
:1000D0001027454545393C4A494930017109050316
:1000E0003649494936064949291E0036360000007E
:1000F0005636000008142241001414141414004150
:100100002214080201510906324979413E7E11113B
:10011000117E7F494949363E414141227F4141227A
:100120001C7F494949417F090909013E4149497AF2
:100130007F0808087F00417F41002040413F017F48
:10014000081422417F404040407F020C027F7F0420
:1001500008107F3E4141413E7F090909063E415159
:10016000215E7F09192946464949493101017F012C
:10017000013F4040403F1F2040201F3F4038403F4C
:100180006314081463070870080761514945430068
:100190007F41410002040810200041417F00040219
:1001A0000102044040404040000102040020545439
:1001B00054787F48444438384444442038444448C0
:1001C0007F3854545418087E0901020C5252523E92
:1001D0007F0804047800447D40002040443D007FB7
:1001E0001028440000417F40007C041804787C08FB
:1001F00004047838444444387C1414140808141453
:10020000147C7C080404084854545420043F44409F
:10021000203C4040207C1C2040201C3C4030403C86
:1002200044281028440C5050503C4464544C440022
:100230000836410000007F00000041360800100829
:1002400008100800000000000B0180C81180C83AA7
:1002500081050AB1830006030A20800A3601A0B690
:10026000021502B40100E01009160920211B131920
:1002700017151E2B0405020EE1900B14081E221DFB
:10028000181E1B1A242B0606020F0A13800A1124BB
:100290001FBECFEFD8E0DEBFCDBF11E0A0E0B1E0E0
:1002A000EEE4F1E102C005900D92AE33B107D9F74B
:1002B00021E0AEE3B1E001C01D92A836B207E1F73C
:1002C0000E944E020C94A5080C940000CF93C82FF6
:1002D0008091400190914101019799F465E089E195
:1002E0000E94530341E06FEF7FEF8AE491E00E94A8
:1002F000760465E089E10E94530310923F01109259
:100300003E0180913E0190913F01FC01E65BFE4F72
:10031000C083019690933F0180933E0165E089E19F
:100320000E94530341E060E070E08AE491E00E94A3
:10033000760481E090E09093410180934001CF9159
:1003400008951F920F920FB60F9211242F933F938F
:100350004F935F936F937F938F939F93AF93BF93CD
:10036000EF93FF934C9909C080914401909145010E
:10037000909343018093420123C04D990AC080911C
:10038000440190914501019690934301809342016D
:1003900017C04E990AC08091440190914501029680
:1003A00090934301809342010BC04F9909C0809103
:1003B000440190914501039690934301809342013B
:1003C00080914201909143010E946405FF91EF9159
:1003D000BF91AF919F918F917F916F915F914F915D
:1003E0003F912F910F900FBE0F901F9018951F9265
:1003F0000F920FB60F9211242F933F934F935F9359
:100400006F937F938F939F93AF93BF93EF93FF93DC
:1004100032990AC0809144019091450104969093CD
:1004200043018093420123C033990AC08091440163
:10043000909145010596909343018093420117C026
:1004400034990AC080914401909145010696909399
:100450004301809342010BC0359909C0809144014A
:1004600090914501079690934301809342018091BA
:100470004201909143010E946405FF91EF91BF9169
:10048000AF919F918F917F916F915F914F913F912C
:100490002F910F900FBE0F901F9018950E941C0572
:1004A0000E94C6040E94250580E190E00E94B005EC
:1004B00081E291E00E945505789465E089E10E940F
:1004C000530341E060E070E086E291E00E94760430
:1004D0002FE784E89EE1215080409040E1F700C082
:1004E00000008FEF9FEF0E94B50465E089E10E9454
:1004F000530368E070E040E150E028E130E04098CC
:1005000089EF90E00197F1F700C0000088B18360A7
:1005100088B98BB18C608BB910924501109244015F
:10052000419889EF90E00197F1F700C0000088B191
:10053000836088B98BB18C608BB9709345016093EF
:1005400044015A9889EF90E00197F1F700C000004C
:1005500088B1836088B98BB18C608BB950934501A9
:10056000409344015B9889EF90E00197F1F700C058
:10057000000088B1836088B98BB18C608BB93093EF
:10058000450120934401BBCF289A209A8FE493EC35
:100590000197F1F700C0000028988FE493EC0197D1
:1005A000F1F700C00000289A089584B18E6284B9E2
:1005B000249885B1846185B98CB580658CBD8DB575
:1005C00081608DBD08952A9829988EBD0DB407FECF
:1005D000FDCF2A9A8EB508952A98299A8EBD0DB41A
:1005E00007FEFDCF2A9A8EB508952A98299A9EBDB6
:1005F0000DB407FEFDCF8EBD0DB407FEFDCF2A9AC8
:100600008EB508950F931F93CF93DF938C01EB0169
:100610008CE20E94E302209729F0C8010E94F502B3
:100620002197D9F7DF91CF911F910F9108950F93E3
:100630001F93CF93DF93681750F1623A50F5241758
:1006400050F1243850F5122F042FC62FD82F8AE2EC
:100650000E94E30280E00E94EC028D2F0E94EC02D7
:1006600080E00E94EC028C2F0E94EC028BE20E9440
:10067000E30280E00E94EC02802F0E94EC0280E006
:100680000E94EC02812F0E94EC0281E007C080E012
:1006900005C080E003C080E001C080E0DF91CF9121
:1006A0001F910F9108958D3990F06D37E0F46C37FC
:1006B00070F470E0685F7F4F709349016093480168
:1006C00090E0909347018093460181E0089570E0A7
:1006D000709349016093480190E0909347018093A3
:1006E000460181E0089580E00895CF93DF93EA0109
:1006F000262F462F682F0E94170361E070E0CE017D
:100700000E940203DF91CF9108954F925F927F92F2
:100710008F929F92AF92BF92CF92DF92EF92FF9211
:100720001F93CF93DF932B01411134C06894992418
:1007300092F8C82FD0E0CE018097EC01CC0FDD1FDE
:10074000CC0FDD1FC80FD91F0F2EF8E4CF2EF1E01C
:10075000DF2EF02D0F2EF6E4EF2EF1E0FF2EF02D20
:10076000FE01E90DF11DE859FF4FB49017E0BB20E1
:100770004CF4F6016081610FF7018081A201890DBF
:100780000E947503BB0C115090F79A94FFEF9F12D3
:10079000E7CF9CC0413009F040C06894992492F89A
:1007A000E82EF12CC70180977C01EE0CFF1CEE0CAB
:1007B000FF1CE80EF91E0F2EF8E4AF2EF1E0BF2E5D
:1007C000F02D0F2EF6E4CF2EF1E0DF2EF02DF70105
:1007D000E90DF11DE859FF4F8490C7E08820ACF483
:1007E000F5016081DC2FDD0F6D0FF6018081A20124
:1007F000890D0E947503F50160816F5F6D0FF60131
:100800008081A201890D0E947503880CC15030F7C8
:100810009A94FFEF9F12DBCF59C04A3009F056C0BF
:100820006894EE24E2F8C82ED12CC60180976C01A2
:10083000CC0CDD1CCC0CDD1CC80ED91E0F2EF8E430
:100840008F2EF1E09F2EF02D0F2EF6E4AF2EF1E06B
:10085000BF2EF02DF601EE0DF11DE859FF4FC491AA
:100860007E2C770CD7E0CC2354F5F4016081FD2E6B
:10087000FF0C6F0DF5018081A201870D0E947503A9
:10088000F40160816F5F6F0DF5018081A201870D1A
:100890000E947503F40160816F0DF50180818F5F07
:1008A000A201870D0E947503F40160816F5F6F0DD7
:1008B000F50180818F5FA201870D0E947503CC0F27
:1008C000D15088F6EA94FFEFEF12C4CF80E0DF91B9
:1008D000CF911F91FF90EF90DF90CF90BF90AF909E
:1008E0009F908F907F905F904F9008959F92AF92CE
:1008F000BF92CF92DF92EF92FF920F931F93CF930D
:10090000DF93EC018881882321F1A42E8B01942EA2
:100910009694B12C0F2EF8E4CF2EF1E0DF2EF02DBF
:100920000F2EF6E4EF2EF1E0FF2EF02DB3944A2DBA
:10093000B8010E948503F70180818A5FF60160811A
:10094000890D0E945303FE01EB0DF11D8081811181
:10095000EDCFDF91CF911F910F91FF90EF90DF903E
:10096000CF90BF90AF909F900895CF93DF93EC010D
:1009700023E840E061EA80E00E94170368E873E53D
:10098000CE010E940203DF91CF91089589E20E9477
:10099000E3020895882341F0EFE9FFE03197F1F792
:1009A00000C000008150C1F70895CF92DF92EF920E
:1009B000FF920F931F93CF93DF937C012FEFE21AE7
:1009C000F20AFC01D4902DC0F70184910E94E30249
:1009D000F7013196E491F2E0EF0EF11C2E2F207812
:1009E000C22EEF778FEF8E0FEE2389F03E2D2F2D45
:1009F00090E00196E80EF91E8701C32FD22FFE0169
:100A000084910E94EC022196C017D107C1F7CC2037
:100A100039F0E7012196F70184910E94CA047E0112
:100A2000DA94D110D1CFDF91CF911F910F91FF9028
:100A3000EF90DF90CF9008950E94C4020E94D502EB
:100A400088E492E00E94D504089587B1836087B955
:100A50008AB18C608AB987B1837C87B98AB18F707B
:100A60008AB988B18C6388B98BB1806F8BB988B132
:100A7000836088B98BB18C608BB9ECE6F0E0808143
:100A80008C638083EDE6F0E08081806F8083E8E610
:100A9000F0E08081866080830895E0ECF0E0908152
:100AA00095FFFDCF8093C6000895CF93DF93EC01AF
:100AB0008881882331F021960E944D05899181110A
:100AC000FBCFDF91CF910895FF920F931F93CF93A8
:100AD000DF93CDB7DEB7A1970FB6F894DEBF0FBE98
:100AE000CDBF2FE1E0E0F1E0DE01119601900D9223
:100AF0002A95E1F7E1E0F0E0EC0FFD1FE80FF91FA8
:100B0000F0809F938F9386E391E09F938F938E0164
:100B1000005E1F4F1F930F930E94BB058F2D0E94F5
:100B20006601C8010E94550589E391E00E945505C0
:100B30008F2D0E944D058AE00E944D050F900F9069
:100B40000F900F900F900F90A1960FB6F894DEBF04
:100B50000FBECDBFDF91CF911F910F91FF900895F0
:100B60009093C5008093C40088E18093C10086E023
:100B70008093C2000895AEE0B0E0E1ECF5E00C94A3
:100B80007C080D891E8986E08C831A8309838FEF88
:100B90009FE79E838D83AE01475E5F4F6F89788D9F
:100BA000CE0101960E94DD05EF81F885E00FF11F6F
:100BB00010822E96E4E00C949808ABE0B0E0E3EEEF
:100BC000F5E00C946E086C017B018A01FC01178230
:100BD0001682838181FFCCC1CE0101963C01F601D2
:100BE0009381F70193FD859193FF81917F01882384
:100BF00009F4BAC1853239F493FD859193FF81914F
:100C00007F01853229F4B60190E00E94D407E7CF36
:100C1000912C212C312CFFE1F315D8F08B3279F097
:100C200038F4803279F08332A1F4232D20611DC085
:100C30008D3261F0803369F4232D216016C0832D3D
:100C40008260382EE32DE4603E2E2AC0F32DF8603A
:100C50001DC037FC2DC020ED280F2A3040F08E3209
:100C6000B9F436FC81C1232D2064322E19C036FE22
:100C700006C08AE0989E200D1124922E11C0EAE051
:100C80002E9E200D1124222EF32DF0623F2E08C03F
:100C90008C3621F4832D8068382E02C0883641F4CA
:100CA000F70193FD859193FF81917F018111B3CF6E
:100CB000982F9F7D9554933028F40C5F1F4F9FE32E
:100CC00099830DC0833631F0833771F0833509F095
:100CD00059C021C0F801808189830E5F1F4F88248D
:100CE0008394912C530113C02801F2E04F0E511C44
:100CF000F801A080B18036FE03C0692D70E002C00B
:100D00006FEF7FEFC5010E94C9074C018201F32DEF
:100D1000FF773F2E16C0280122E0420E511CF80139
:100D2000A080B18036FE03C0692D70E002C06FEF75
:100D30007FEFC5010E94BE074C01F32DF0683F2EE6
:100D4000820133FC1BC0822D90E088169906B0F416
:100D5000B60180E290E00E94D4072A94F4CFF50116
:100D600037FC859137FE81915F01B60190E00E94CA
:100D7000D40721102A9421E0821A91088114910449
:100D800071F7E8C0843611F0893641F5F80137FE75
:100D900007C060817181828193810C5F1F4F08C001
:100DA00060817181072E000C880B990B0E5F1F4F1D
:100DB000F32DFF763F2E97FF09C090958095709593
:100DC00061957F4F8F4F9F4FF0683F2E2AE030E0B4
:100DD000A3010E941008882E861845C0853731F47B
:100DE000232D2F7EB22E2AE030E025C0932D997F4F
:100DF000B92E8F36C1F018F4883579F0B5C0803738
:100E000019F0883721F0B0C0E92FE061BE2EB4FEA2
:100E10000DC0FB2DF460BF2E09C034FE0AC0292F7F
:100E20002660B22E06C028E030E005C020E130E0A8
:100E300002C020E132E0F801B7FE07C06081718195
:100E4000828193810C5F1F4F06C06081718180E0B9
:100E500090E00E5F1F4FA3010E941008882E861895
:100E6000FB2DFF773F2E36FE0DC0232D2E7FA22EA9
:100E7000891458F434FE0BC032FC09C0832D8E7ED9
:100E8000A82E05C0B82CA32C03C0B82C01C0B92CC7
:100E9000A4FE0FC0FE01E80DF11D8081803321F416
:100EA0009A2D997EA92E09C0A2FE06C0B394B394D0
:100EB00004C08A2D867809F0B394A3FC11C0A0FE6B
:100EC00006C0B21488F4280C922C9B180EC0B214E1
:100ED00060F4B60180E290E00E94D407B394F7CFAB
:100EE000B21418F42B1802C0982C212CA4FE10C0A8
:100EF000B60180E390E00E94D407A2FE17C0A1FCD7
:100F000003C088E790E002C088E590E0B6010CC01D
:100F10008A2D867859F0A1FE02C08BE201C080E2E2
:100F2000A7FC8DE2B60190E00E94D407891438F442
:100F3000B60180E390E00E94D4079A94F7CF8A9498
:100F4000F301E80DF11D8081B60190E00E94D40705
:100F50008110F5CF222009F442CEB60180E290E064
:100F60000E94D4072A94F6CFF6018681978102C0A9
:100F70008FEF9FEF2B96E2E10C948A08FC0105901D
:100F8000615070400110D8F7809590958E0F9F1F8B
:100F90000895FC016150704001900110D8F78095D0
:100FA00090958E0F9F1F08950F931F93CF93DF93FC
:100FB000FB01238121FD03C08FEF9FEF2CC022FF97
:100FC00016C046815781248135814217530744F466
:100FD000A081B1819D012F5F3F4F318320838C938E
:100FE000268137812F5F3F4F3783268314C08B01C3
:100FF000EC01FB010084F185E02D0995892BE1F6D8
:10100000D80116968D919C911797019617969C93EF
:101010008E931697CE01DF91CF911F910F91089576
:10102000FA01AA27283051F1203181F1E8946F9319
:101030006E7F6E5F7F4F8F4F9F4FAF4FB1E03ED0BF
:10104000B4E03CD0670F781F891F9A1FA11D680F5D
:10105000791F8A1F911DA11D6A0F711D811D911D90
:10106000A11D20D009F468943F912AE0269F112405
:101070003019305D3193DEF6CF010895462F477069
:10108000405D4193B3E00FD0C9F7F6CF462F4F70C4
:10109000405D4A3318F0495D31FD4052419302D022
:1010A000A9F7EACFB4E0A6959795879577956795C8
:1010B000BA95C9F700976105710508959B01AC01C8
:1010C0000A2E06945795479537952795BA95C9F7EF
:1010D000620F731F841F951FA01D08952F923F92CA
:1010E0004F925F926F927F928F929F92AF92BF9238
:1010F000CF92DF92EF92FF920F931F93CF93DF93E4
:10110000CDB7DEB7CA1BDB0B0FB6F894DEBF0FBE40
:10111000CDBF09942A88398848885F846E847D848D
:101120008C849B84AA84B984C884DF80EE80FD808F
:101130000C811B81AA81B981CE0FD11D0FB6F89405
:0E114000DEBF0FBECDBFED010895F894FFCFC6
:10114E006D313233343536373839612B2D2A2F5ED7
:10115E00716C657363746778706F302E66646E3D64
:10116E0000484F4C4100496E6963696F2070726F81
:0E117E006772616D6100256400202D3E200027
:00000001FF
