S012000050726F796563746F5F312E737265632D
S11300000C9434000C9451000C9451000C94510045
S11300100C94A9000C9453000C9451000C945100BE
S11300200C9451000C9451000C9451000C94510008
S11300300C9451000C9451000C9451000C945100F8
S11300400C9451000C9451000C9451000C945100E8
S11300500C9451000C9451000C9451000C945100D8
S11300600C9451000C94510011241FBECFEFD8E022
S1130070DEBFCDBF11E0A0E0B1E0EAEAF9E002C0E2
S113008005900D92AE32B107D9F721E0AEE2B1E0AE
S113009001C01D92A233B207E1F70E9400010C9443
S11300A0D3040C9400001F920F920FB60F921124E8
S11300B02F933F934F935F936F937F938F939F936C
S11300C0AF93BF93EF93FF934C9909C08091300194
S11300D09091310190932F0180932E0123C04D996B
S11300E00AC08091300190913101019690932F01C3
S11300F080932E0117C04E990AC0809130019091CF
S11301003101029690932F0180932E010BC04F99D9
S113011009C08091300190913101039690932F0191
S113012080932E0180912E0190912F010E949501C0
S1130130FF91EF91BF91AF919F918F917F916F91BB
S11301405F914F913F912F910F900FBE0F901F9091
S113015018951F920F920FB60F9211242F933F936D
S11301604F935F936F937F938F939F93AF93BF93BB
S1130170EF93FF9332990AC080913001909131013D
S1130180049690932F0180932E0123C033990AC0C3
S11301908091300190913101059690932F018093C5
S11301A02E0117C034990AC0809130019091310119
S11301B0069690932F0180932E010BC0359909C0A8
S11301C08091300190913101079690932F01809393
S11301D02E0180912E0190912F010E949501FF9193
S11301E0EF91BF91AF919F918F917F916F915F91AB
S11301F04F913F912F910F900FBE0F901F90189524
S11302000E94560180E190E00E94DE0181E291E0CB
S11302100E948601789468E070E040E150E028E1B3
S113022030E0409889EF90E00197F1F700C00000BA
S113023088B1836088B98BB18C608BB9109231011D
S113024010923001419889EF90E00197F1F700C0D6
S1130250000088B1836088B98BB18C608BB97093CE
S11302603101609330015A9889EF90E00197F1F7DA
S113027000C0000088B1836088B98BB18C608BB9F1
S113028050933101409330015B9889EF90E00197DE
S1130290F1F700C0000088B1836088B98BB18C602D
S11302A08BB93093310120933001BBCF87B1836088
S11302B087B98AB18C608AB987B1837C87B98AB1DE
S11302C08F708AB988B18C6388B98BB1806F8BB910
S11302D088B1836088B98BB18C608BB9ECE6F0E0AF
S11302E080818C638083EDE6F0E08081806F808381
S11302F0E8E6F0E08081866080830895E0ECF0E039
S1130300908195FFFDCF8093C6000895CF93DF932E
S1130310EC018881882331F021960E947E01899125
S11303208111FBCFDF91CF910895FF920F931F931B
S1130330CF93DF93CDB7DEB7A1970FB6F894DEBFA6
S11303400FBECDBF2FE1E0E0F1E0DE011196019098
S11303500D922A95E1F7E1E0F0E0EC0FFD1FE80FC4
S1130360F91FF0809F938F9386E291E09F938F9380
S11303708E01005E1F4F1F930F930E94E901C80175
S11303800E94860189E291E00E9486018F2D0E94DD
S11303907E018AE00E947E010F900F900F900F90D3
S11303A00F900F90A1960FB6F894DEBF0FBECDBF8D
S11303B0DF91CF911F910F91FF9008959093C50005
S11303C08093C40088E18093C10086E08093C200DA
S11303D00895AEE0B0E0EFEEF1E00C94AA040D89CC
S11303E01E8986E08C831A8309838FEF9FE79E839F
S11303F08D83AE01475E5F4F6F89788DCE01019684
S11304000E940B02EF81F885E00FF11F10822E96F7
S1130410E4E00C94C604ABE0B0E0E1E1F2E00C945B
S11304209C046C017B018A01FC0117821682838182
S113043081FFCCC1CE0101963C01F6019381F70105
S113044093FD859193FF81917F01882309F4BAC1BB
S1130450853239F493FD859193FF81917F01853233
S113046029F4B60190E00E940204E7CF912C212CDC
S1130470312CFFE1F315D8F08B3279F038F4803267
S113048079F08332A1F4232D20611DC08D3261F0F7
S1130490803369F4232D216016C0832D8260382EA9
S11304A0E32DE4603E2E2AC0F32DF8601DC037FC16
S11304B02DC020ED280F2A3040F08E32B9F436FCDE
S11304C081C1232D2064322E19C036FE06C08AE075
S11304D0989E200D1124922E11C0EAE02E9E200D2C
S11304E01124222EF32DF0623F2E08C08C3621F405
S11304F0832D8068382E02C0883641F4F70193FDBD
S1130500859193FF81917F018111B3CF982F9F7DB6
S11305109554933028F40C5F1F4F9FE399830DC0CB
S1130520833631F0833771F0833509F059C021C027
S1130530F801808189830E5F1F4F88248394912C56
S1130540530113C02801F2E04F0E511CF801A080A2
S1130550B18036FE03C0692D70E002C06FEF7FEFFB
S1130560C5010E94F7034C018201F32DFF773F2E52
S113057016C0280122E0420E511CF801A080B1806F
S113058036FE03C0692D70E002C06FEF7FEFC50136
S11305900E94EC034C01F32DF0683F2E820133FCE2
S11305A01BC0822D90E088169906B0F4B60180E253
S11305B090E00E9402042A94F4CFF50137FC85915F
S11305C037FE81915F01B60190E00E940204211080
S11305D02A9421E0821A91088114910471F7E8C0E9
S11305E0843611F0893641F5F80137FE07C0608181
S11305F07181828193810C5F1F4F08C0608171817A
S1130600072E000C880B990B0E5F1F4FF32DFF76FE
S11306103F2E97FF09C090958095709561957F4F07
S11306208F4F9F4FF0683F2E2AE030E0A3010E94D5
S11306303E04882E861845C0853731F4232D2F7E3D
S1130640B22E2AE030E025C0932D997FB92E8F3643
S1130650C1F018F4883579F0B5C0803719F08837BF
S113066021F0B0C0E92FE061BE2EB4FE0DC0FB2D19
S1130670F460BF2E09C034FE0AC0292F2660B22EB2
S113068006C028E030E005C020E130E002C020E1EF
S113069032E0F801B7FE07C06081718182819381E5
S11306A00C5F1F4F06C06081718180E090E00E5F97
S11306B01F4FA3010E943E04882E8618FB2DFF774E
S11306C03F2E36FE0DC0232D2E7FA22E891458F402
S11306D034FE0BC032FC09C0832D8E7EA82E05C0CB
S11306E0B82CA32C03C0B82C01C0B92CA4FE0FC095
S11306F0FE01E80DF11D8081803321F49A2D997E4D
S1130700A92E09C0A2FE06C0B394B39404C08A2DD6
S1130710867809F0B394A3FC11C0A0FE06C0B214FD
S113072088F4280C922C9B180EC0B21460F4B60105
S113073080E290E00E940204B394F7CFB21418F45C
S11307402B1802C0982C212CA4FE10C0B60180E303
S113075090E00E940204A2FE17C0A1FC03C088E737
S113076090E002C088E590E0B6010CC08A2D86783E
S113077059F0A1FE02C08BE201C080E2A7FC8DE229
S1130780B60190E00E940204891438F4B60180E3B3
S113079090E00E9402049A94F7CF8A94F301E80D42
S11307A0F11D8081B60190E00E9402048110F5CF12
S11307B0222009F442CEB60180E290E00E940204B5
S11307C02A94F6CFF6018681978102C08FEF9FEFBE
S11307D02B96E2E10C94B804FC0105906150704042
S11307E00110D8F7809590958E0F9F1F0895FC01F6
S11307F06150704001900110D8F7809590958E0F4C
S11308009F1F08950F931F93CF93DF93FB012381C1
S113081021FD03C08FEF9FEF2CC022FF16C046813D
S11308205781248135814217530744F4A081B18153
S11308309D012F5F3F4F318320838C932681378125
S11308402F5F3F4F3783268314C08B01EC01FB01DC
S11308500084F185E02D0995892BE1F6D8011696DF
S11308608D919C911797019617969C938E9316974A
S1130870CE01DF91CF911F910F910895FA01AA271C
S1130880283051F1203181F1E8946F936E7F6E5FCF
S11308907F4F8F4F9F4FAF4FB1E03ED0B4E03CD07D
S11308A0670F781F891F9A1FA11D680F791F8A1F60
S11308B0911DA11D6A0F711D811D911DA11D20D0C7
S11308C009F468943F912AE0269F11243019305D81
S11308D03193DEF6CF010895462F4770405D419372
S11308E0B3E00FD0C9F7F6CF462F4F70405D4A33BF
S11308F018F0495D31FD4052419302D0A9F7EACF87
S1130900B4E0A6959795879577956795BA95C9F7B5
S113091000976105710508959B01AC010A2E0694A8
S11309205795479537952795BA95C9F7620F731F61
S1130930841F951FA01D08952F923F924F925F929E
S11309406F927F928F929F92AF92BF92CF92DF92DB
S1130950EF92FF920F931F93CF93DF93CDB7DEB740
S1130960CA1BDB0B0FB6F894DEBF0FBECDBF0994D4
S11309702A88398848885F846E847D848C849B842B
S1130980AA84B984C884DF80EE80FD800C811B8139
S1130990AA81B981CE0FD11D0FB6F894DEBF0FBE68
S10D09A0CDBFED010895F894FFCFD8
S11309AA6D3132333435363738392E2B2D2A2F5EB2
S11309BA716C657363746778706F666130646E3DD9
S11109CA00484F4C4100256400202D3E2000C3
S9030000FC
