S014000056657273696F6E46696E616C2E7372656340
S11300000C94A7020C94C4020C94C4020C94C40271
S11300100C944A130C94DF120C94C4020C94A103A4
S11300200C94C4020C94C4020C94C4020C94C40234
S11300300C94C4020C94C4020C94C4020C94C40224
S11300400C94C4020C94C4020C94C4020C94C40214
S11300500C94C4020C94C4020C94C4020C94C40204
S11300600C94C4020C94C4021B05310544055705C5
S11300705C056F05740577088008B205F8053F062E
S11300808606CD0614075B07A207E9073008770840
S11300908508BB05010648068F06D6061D076407BA
S11300A0AB07F20739085C0B650B9708DD082409D8
S11300B06B09B209F909400A870ACE0A150B5C0BD1
S11300C06A0BA008E6082D097409BB09020A490A4B
S11300D0900AD70A1E0B050C540CDF0B540C2B0C86
S11300E0540C540C540C540CCC0B540C540C540C95
S11300F0540CB90B540CF20B180C540C540C540C37
S11301003E0C091079127912791279127912791246
S11301107912791279127912791279127912791283
S11301207912791279127912791279127912791273
S11301307912791279127912791279127912791263
S113014079127912791279127912E00F79127912EF
S11301504F107912DD10791279127912791279120D
S11301607912281096107912B90F07634236B79B9B
S1130170D8A71A39685618AEBAAB558C1D3CB7CC03
S11301805763BD6DEDFD753EF6177231BF0000007B
S1130190803F05A84CCDB2D44EB93836A9020C50D4
S11301A0B9918688083CA6AAAA2ABE000000803F0E
S11301B008000000BE922449123EABAAAA2ABECD72
S11301C0CCCC4C3E00000080BEABAAAAAA3E0000E4
S11301D00000BF000000803F0000000000084178DC
S11301E0D3BB4387D1133D190E3CC3BD4282AD2B13
S11301F03E68EC8276BED98FE1A93E4C80EFFFBE0B
S113020001C4FF7F3F00000000000664EC1B3C04B7
S1130210BC163E3BE5B93CC93C37C29E5A3D660418
S113022098083EEA69AAAA3E000000803F00004008
S11302307A10F35A00A0724E18090010A5D4E800F1
S113024000E87648170000E40B54020000CA9A3B09
S1130250000000E1F505000080969800000040428F
S11302600F000000A086010000001027000000001D
S1130270E803000000006400000000000A00000021
S113028000000100000000002C76D888DC674F08CD
S113029023DFC1DFAE59E1B1B796E5E3E453C63AD3
S11302A0E651997696E8E6C28426EB898C9B62ED4A
S11302B0407C6FFCEFBC9C9F40F2BAA56FA5F49004
S11302C0055A2AF75C936B6CF9676DC11BFCE0E47B
S11302D00D47FEF520E6B500D0ED902E03009435D1
S11302E077050080841E080000204E0A000000C824
S11302F00C333333330F986E12831141EF8D211475
S1130300893BE65516CFFEE6DB18D1844B381BF744
S11303107C1D901DA4BBE424203284725E228100E3
S1130320C9F124ECA1E53D27000000000000005FB6
S113033000000007000700147F147F14242A7F2A7A
S11303401223130864623649552250000503000045
S1130350001C2241000041221C0014083E0814081D
S1130360083E08080050300000080808080800602B
S113037060000020100804023E5149453E00427FBF
S1130380400042615149462141454B311814127FC6
S11303901027454545393C4A49493001710905034F
S11303A03649494936064949291E003636000000B7
S11303B05636000008142241001414141414004189
S11303C02214080201510906324979413E7E111175
S11303D0117E7F494949363E414141227F414122B4
S11303E01C7F494949417F090909013E4149497A2C
S11303F07F0808087F00417F41002040413F017F82
S1130400081422417F404040407F020C027F7F0459
S113041008107F3E4141413E7F090909063E415192
S1130420215E7F09192946464949493101017F0165
S1130430013F4040403F1F2040201F3F4038403F85
S113044063140814630708700807615149454300A1
S11304507F41410002040810200041417F00040252
S11304600102044040404040000102040020545472
S113047054787F48444438384444442038444448F9
S11304807F3854545418087E0901020C5252523ECB
S11304907F0804047800447D40002040443D007FF0
S11304A01028440000417F40007C041804787C0834
S11304B004047838444444387C141414080814148C
S11304C0147C7C080404084854545420043F4440D9
S11304D0203C4040207C1C2040201C3C4030403CC0
S11304E044281028440C5050503C4464544C44005C
S11304F00836410000007F00000041360800100863
S113050008100800000000000B0180C81180C83AE0
S113051081050AB1830006030A20800A3601A0B6C9
S1130520021502B40100E01009160920211B131959
S113053017151E2B0405020EE1900B14081E221D34
S1130540181E1B1A242B0606020F0A13800A1124F4
S11305501FBECFEFD8E0DEBFCDBF11E0A0E0B1E019
S1130560E2E5F0E402C005900D92AE35B107D9F78B
S113057021E0AEE5B1E001C01D92A53CB207E1F770
S11305800E940E040C9427200C940000CF93DF9358
S1130590EC018136910561F469E183E20E9445141E
S11305A041E06FEF7FEF8AEB91E00E94681520C075
S11305B069E183E20E94451441E06FEF7FEF8AEB2B
S11305C091E00E946815DE01EAEBF1E024EC31E0F1
S11305D08D918193E217F307D9F769E183E20E94D1
S11305E0451441E060E070E08AEB91E00E946815F8
S11305F0DF91CF910895CF93DF93EC01813691057C
S1130600A9F46DE283E20E94451441E06FEF7FEFAD
S113061086EA91E00E946815E6EAF1E020EB31E019
S113062080E28193E217F307E1F720C06DE283E2F1
S11306300E94451441E06FEF7FEF86EA91E00E944B
S11306406815DE01E6EAF1E020EB31E08D9181935B
S1130650E217F307D9F76DE283E20E94451441E003
S113066060E070E086EA91E00E946815DF91CF9126
S11306700895CF93DF93EC0181369105A9F461E4E9
S113068083E20E94451441E06FEF7FEF80EB91E03D
S11306900E946815E0EBF1E02AEB31E080E28193FF
S11306A0E217F307E1F720C061E483E20E944514F6
S11306B041E06FEF7FEF80EB91E00E946815DE016F
S11306C0E0EBF1E02AEB31E08D918193E217F3073F
S11306D0D9F761E483E20E94451441E060E070E0F0
S11306E080EB91E00E946815DF91CF910895CF933C
S11306F0C82F813671F46DE28FE00E94451441E009
S11307006FEF7FEF81E60E94771480E28093C4014B
S113071016C06DE28FE00E94451441E06FEF7FEF59
S11307208C2F0E947714C093C4016DE28FE00E9465
S1130730451441E060E070E08C2F0E947714CF9163
S113074008951F920F920FB60F9211242F933F9387
S11307508F939F93809100019091010118161906BF
S113076034F40197909301018093000104C0109226
S113077061011092600180915E0190915F01019688
S113078090935F0180935E018830910529F4109263
S11307905F0110925E011CC09C012D7F2130310548
S11307A019F02530310539F488B1836088B98BB1EB
S11307B08C608BB92AC08230910581F01CF4892B9E
S11307C021F506C08430910589F00697B9F01DC063
S11307D04098109263011092620117C0419888E01A
S11307E090E090936301809362010FC05A9880E176
S11307F090E0909363018093620107C05B9888E165
S113080090E090936301809362019F918F913F9157
S11308102F910F900FBE0F901F9018950E940E16E7
S11308200E94B8150E94171680E190E00E946C1691
S113083085E291E00E945D16789467E389E10E9465
S1130840451441E060E070E08AE291E00E9468159E
S11308502FE784E89EE1215080409040E1F700C0FA
S113086000008FEF9FEF0E94A715FFCFCF92DF927A
S1130870EF92FF920F931F93CF93DF936B017C0151
S11308808A012FE736E948E15BE40E94B2181816A2
S113089054F02FE736E948E15BECC701B6010E944A
S11308A0E41688237CF48BE0EAE3F1E0D8010190BC
S11308B00D928A95E1F781E090E090938F01809307
S11308C08E01A7C020E030E0A901C701B6010E9453
S11308D0B21888230CF44AC020E030E040E251E42E
S11308E0C701B6010E94E416882374F120E030E0C9
S11308F048EC52E4C701B6010E94E41688233CF197
S113090020E030E04AE754E4C701B6010E94E4164F
S1130910882304F120E030E44CE156E4C701B60139
S11309200E94E4168823CCF0D1E0C0E020E030E55A
S113093043EC57E4C701B6010E94E41688230CF087
S1130940D0E02D2F3C2F0BC025E030E008C024E080
S113095030E005C023E030E002C022E030E04AE0AD
S113096050E0C701B6010E94E41A53C020E030E011
S1130970A901C701B6010E94E41688230CF049C0FE
S113098020E030E040E251ECC701B6010E94B21809
S1130990181674F120E030E048EC52ECC701B601BF
S11309A00E94B21818163CF120E030E04AE754ECFB
S11309B0C701B6010E94B218181604F120E030E411
S11309C04CE156ECC701B6010E94B2181816CCF0DF
S11309D0D1E0C0E020E030E543EC57ECC701B601BC
S11309E00E94B21818160CF0D0E02D2F3C2F0BC02B
S11309F025E030E008C024E030E005C023E030E02A
S1130A0002C022E030E04AE050E0C701B6010E9493
S1130A10E41ADF91CF911F910F91FF90EF90DF9037
S1130A20CF9008958730910508F067C0FC01EC5C15
S1130A30FF4F0C94DE1A8AE0EBE4F1E0A0E7B1E0AA
S1130A4001900D928A95E1F780E2809302018AE099
S1130A50EBE4F1E0A6E6B1E001900D928A95E1F7AE
S1130A60089560919E0170919F018091A0019091E1
S1130A70A10144E851E00E94360464E871E08AE789
S1130A8091E00E94041B39C060919A0170919B010E
S1130A9080919C0190919D0144E851E00E943604AC
S1130AA064E871E080E791E00E94041B26C0809115
S1130AB003018093020121C060919E0170919F0106
S1130AC08091A0019091A10144E851E00E94360474
S1130AD064E871E086E691E00E94041B0EC080E0A9
S1130AE090E00E94A71509C086E0E5E4F1E0AAE7DA
S1130AF0B1E001900D928A95E1F78AE791E021E057
S1130B008B34920711F00E94C60280E791E00E94A4
S1130B10FB0286E691E00E943903809102010E9463
S1130B20770308958F929F92AF92BF92CF92DF92F4
S1130B30EF92FF920F931F93CF93DF93C091900195
S1130B40D0919101C730D1050CF0F7C5019709F098
S1130B50E5C200919201109193010115110509F06C
S1130B60BEC5C9C50F2EC12CD12CF0E8EF2EFFE372
S1130B70FF2EF02D08C00F2EC12CD12CF0E2EF2E49
S1130B80F1E4FF2EF02DBE010D2E000C880B990B05
S1130B900E949C179B01AC0160E070E080E291E44C
S1130BA00E94F2194B015C0120919E0130919F013A
S1130BB04091A0015091A101C701B6010E9485197D
S1130BC06B017C01A501940160E070E0CB010E94FF
S1130BD0EE169B01AC01C701B6010E947816609322
S1130BE09E0170939F018093A0019093A10186C2FE
S1130BF00F2EC12CD12CF0E8EF2EFFE3FF2EF02DA9
S1130C0008C00F2EC12CD12CF0E2EF2EF1E4FF2E00
S1130C10F02DBE010D2E000C880B990B0E949C1721
S1130C209B01AC0160E070E080E291E40E94F21963
S1130C304B015C0120919E0130919F014091A001E4
S1130C405091A101C701B6010E9485196B017C0175
S1130C50A501940160E070E080E89FE30E94EE1635
S1130C609B01AC01C701B6010E94781660939E01F6
S1130C7070939F018093A0019093A1013FC20F2E16
S1130C80C12CD12CF0E8EF2EFFE3FF2EF02D08C08D
S1130C900F2EC12CD12CF0E2EF2EF1E4FF2EF02D1B
S1130CA0BE010D2E000C880B990B0E949C179B0112
S1130CB0AC0160E070E080E291E40E94F2194B0123
S1130CC05C0120919E0130919F014091A0015091BF
S1130CD0A101C701B6010E9485196B017C01A50120
S1130CE0940160E070E080E090E40E94EE169B01C5
S1130CF0AC01C701B6010E94781660939E017093FF
S1130D009F018093A0019093A101F8C10F2EC12CE3
S1130D10D12CF0E8EF2EFFE3FF2EF02D08C00F2EAC
S1130D20C12CD12CF0E2EF2EF1E4FF2EF02DBE0108
S1130D300D2E000C880B990B0E949C179B01AC0193
S1130D4060E070E080E291E40E94F2194B015C01E2
S1130D5020919E0130919F014091A0015091A101E9
S1130D60C701B6010E9485196B017C01A50194019C
S1130D7060E070E080E490E40E94EE169B01AC0118
S1130D80C701B6010E94781660939E0170939F017B
S1130D908093A0019093A101B1C10F2EC12CD12C3D
S1130DA0F0E8EF2EFFE3FF2EF02D08C00F2EC12C2C
S1130DB0D12CF0E2EF2EF1E4FF2EF02DBE010D2E2A
S1130DC0000C880B990B0E949C179B01AC0160E0FE
S1130DD070E080E291E40E94F2194B015C012091E1
S1130DE09E0130919F014091A0015091A101C70142
S1130DF0B6010E9485196B017C01A501940160E094
S1130E0070E080E890E40E94EE169B01AC01C701FB
S1130E10B6010E94781660939E0170939F0180939F
S1130E20A0019093A1016AC10F2EC12CD12CF0E82E
S1130E30EF2EFFE3FF2EF02D08C00F2EC12CD12C76
S1130E40F0E2EF2EF1E4FF2EF02DBE010D2E000C8A
S1130E50880B990B0E949C179B01AC0160E070E029
S1130E6080E291E40E94F2194B015C0120919E0101
S1130E7030919F014091A0015091A101C701B60199
S1130E800E9485196B017C01A501940160E070E06A
S1130E9080EA90E40E94EE169B01AC01C701B60102
S1130EA00E94781660939E0170939F018093A00125
S1130EB09093A10123C10F2EC12CD12CF0E8EF2E69
S1130EC0FFE3FF2EF02D08C00F2EC12CD12CF0E231
S1130ED0EF2EF1E4FF2EF02DBE010D2E000C880B39
S1130EE0990B0E949C179B01AC0160E070E080E2CA
S1130EF091E40E94F2194B015C0120919E01309112
S1130F009F014091A0015091A101C701B6010E9427
S1130F1085196B017C01A501940160E070E080EC0F
S1130F2090E40E94EE169B01AC01C701B6010E9439
S1130F30781660939E0170939F018093A001909313
S1130F40A101DCC00F2EC12CD12CF0E8EF2EFFE361
S1130F50FF2EF02D08C00F2EC12CD12CF0E2EF2E65
S1130F60F1E4FF2EF02DBE010D2E000C880B990B21
S1130F700E949C179B01AC0160E070E080E291E468
S1130F800E94F2194B015C0120919E0130919F0156
S1130F904091A0015091A101C701B6010E94851999
S1130FA06B017C01A501940160E070E080EE90E4A7
S1130FB00E94EE169B01AC01C701B6010E9478168F
S1130FC060939E0170939F018093A0019093A1016F
S1130FD095C00F2EC12CD12CF0E8EF2EFFE3FF2E8D
S1130FE0F02D08C00F2EC12CD12CF0E2EF2EF1E42D
S1130FF0FF2EF02DBE010D2E000C880B990B0E94C4
S11310009C179B01AC0160E070E080E291E40E94D7
S1131010F2194B015C0120919E0130919F01409196
S1131020A0015091A101C701B6010E9485196B016D
S11310307C01A501940160E070E080E091E40E94ED
S1131040EE169B01AC01C701B6010E9478166093AD
S11310509E0170939F018093A0019093A1014EC0C3
S11310600F2EC12CD12CF0E8EF2EFFE3FF2EF02D34
S113107008C00F2EC12CD12CF0E2EF2EF1E4FF2E8C
S1131080F02DBE010D2E000C880B990B0E949C17AD
S11310909B01AC0160E070E080E291E40E94F219EF
S11310A04B015C0120919E0130919F014091A00170
S11310B05091A101C701B6010E9485196B017C0101
S11310C0A501940160E070E080E191E40E94EE16D5
S11310D09B01AC01C701B6010E94781660939E0182
S11310E070939F018093A0019093A10107C081E0B8
S11310F090E0909393018093920102C0012B29F018
S11311002196D0939101C093900180E090E00E94D9
S1131110120581E090E00E9412050FC30091920134
S1131120109193010115110509F0F1C2FBC20F2EB4
S1131130C12CD12CF0E8EF2EFFE3FF2EF02D08C0D8
S11311400F2EC12CD12CF0E2EF2EF1E4FF2EF02D66
S1131150BE010D2E000C880B990B0E949C179B015D
S1131160AC0160E070E080E291E40E94F2194B016E
S11311705C0120919A0130919B0140919C01509116
S11311809D01C701B6010E9485196B017C01A5016F
S1131190940160E070E0CB010E94EE169B01AC016B
S11311A0C701B6010E94781660939A0170939B015F
S11311B080939C0190939D0186C20F2EC12CD12C4B
S11311C0F0E8EF2EFFE3FF2EF02D08C00F2EC12C08
S11311D0D12CF0E2EF2EF1E4FF2EF02DBE010D2E06
S11311E0000C880B990B0E949C179B01AC0160E0DA
S11311F070E080E291E40E94F2194B015C012091BD
S11312009A0130919B0140919C0150919D01C7012D
S1131210B6010E9485196B017C01A501940160E06F
S113122070E080E89FE30E94EE169B01AC01C701C9
S1131230B6010E94781660939A0170939B01809383
S11312409C0190939D013FC20F2EC12CD12CF0E83C
S1131250EF2EFFE3FF2EF02D08C00F2EC12CD12C52
S1131260F0E2EF2EF1E4FF2EF02DBE010D2E000C66
S1131270880B990B0E949C179B01AC0160E070E005
S113128080E291E40E94F2194B015C0120919A01E1
S113129030919B0140919C0150919D01C701B60181
S11312A00E9485196B017C01A501940160E070E046
S11312B080E090E40E94EE169B01AC01C701B601E8
S11312C00E94781660939A0170939B0180939C010D
S11312D090939D01F8C10F2EC12CD12CF0E8EF2E74
S11312E0FFE3FF2EF02D08C00F2EC12CD12CF0E20D
S11312F0EF2EF1E4FF2EF02DBE010D2E000C880B15
S1131300990B0E949C179B01AC0160E070E080E2A5
S113131091E40E94F2194B015C0120919A013091F1
S11313209B0140919C0150919D01C701B6010E940F
S113133085196B017C01A501940160E070E080E4F3
S113134090E40E94EE169B01AC01C701B6010E9415
S1131350781660939A0170939B0180939C019093FB
S11313609D01B1C10F2EC12CD12CF0E8EF2EFFE36B
S1131370FF2EF02D08C00F2EC12CD12CF0E2EF2E41
S1131380F1E4FF2EF02DBE010D2E000C880B990BFD
S11313900E949C179B01AC0160E070E080E291E444
S11313A00E94F2194B015C0120919A0130919B013A
S11313B040919C0150919D01C701B6010E9485197D
S11313C06B017C01A501940160E070E080E890E489
S11313D00E94EE169B01AC01C701B6010E9478166B
S11313E060939A0170939B0180939C0190939D015B
S11313F06AC10F2EC12CD12CF0E8EF2EFFE3FF2E93
S1131400F02D08C00F2EC12CD12CF0E2EF2EF1E408
S1131410FF2EF02DBE010D2E000C880B990B0E949F
S11314209C179B01AC0160E070E080E291E40E94B3
S1131430F2194B015C0120919A0130919B0140917A
S11314409C0150919D01C701B6010E9485196B0151
S11314507C01A501940160E070E080EA90E40E94C0
S1131460EE169B01AC01C701B6010E947816609389
S11314709A0170939B0180939C0190939D0123C1D9
S11314800F2EC12CD12CF0E8EF2EFFE3FF2EF02D10
S113149008C00F2EC12CD12CF0E2EF2EF1E4FF2E68
S11314A0F02DBE010D2E000C880B990B0E949C1789
S11314B09B01AC0160E070E080E291E40E94F219CB
S11314C04B015C0120919A0130919B0140919C0158
S11314D050919D01C701B6010E9485196B017C01E1
S11314E0A501940160E070E080EC90E40E94EE16A7
S11314F09B01AC01C701B6010E94781660939A0162
S113150070939B0180939C0190939D01DCC00F2EEE
S1131510C12CD12CF0E8EF2EFFE3FF2EF02D08C0F4
S11315200F2EC12CD12CF0E2EF2EF1E4FF2EF02D82
S1131530BE010D2E000C880B990B0E949C179B0179
S1131540AC0160E070E080E291E40E94F2194B018A
S11315505C0120919A0130919B0140919C01509132
S11315609D01C701B6010E9485196B017C01A5018B
S1131570940160E070E080EE90E40E94EE169B011E
S1131580AC01C701B6010E94781660939A0170936A
S11315909B0180939C0190939D0195C00F2EC12CBB
S11315A0D12CF0E8EF2EFFE3FF2EF02D08C00F2E14
S11315B0C12CD12CF0E2EF2EF1E4FF2EF02DBE0170
S11315C00D2E000C880B990B0E949C179B01AC01FB
S11315D060E070E080E291E40E94F2194B015C014A
S11315E020919A0130919B0140919C0150919D0161
S11315F0C701B6010E9485196B017C01A501940104
S113160060E070E080E091E40E94EE169B01AC0182
S1131610C701B6010E94781660939A0170939B01EA
S113162080939C0190939D014EC00F2EC12CD12C10
S1131630F0E8EF2EFFE3FF2EF02D08C00F2EC12C93
S1131640D12CF0E2EF2EF1E4FF2EF02DBE010D2E91
S1131650000C880B990B0E949C179B01AC0160E065
S113166070E080E291E40E94F2194B015C01209148
S11316709A0130919B0140919C0150919D01C701B9
S1131680B6010E9485196B017C01A501940160E0FB
S113169070E080E191E40E94EE169B01AC01C70169
S11316A0B6010E94781660939A0170939B0180930F
S11316B09C0190939D0107C081E090E09093930179
S11316C08093920102C0012B29F02196D0939101BD
S11316D0C093900182E090E00E9412052EC0862FF4
S11316E090E0FC01BE97EC30F10508F009CDE55C13
S11316F0FF4F0C94DE1A862F90E0FC01BE97EC306D
S1131700F10508F002CDE95BFF4F0C94DE1A862F39
S113171090E0FC01BE97EC30F105B8F6ED5AFF4FAE
S11317200C94DE1A862F90E0FC01BE97EC30F10594
S113173088F6E15AFF4F0C94DE1ADF91CF911F9186
S11317400F91FF90EF90DF90CF90BF90AF909F905C
S11317508F900895CF93C42F842F90E0FC01E3561B
S1131760F109E631F10508F09FC0E559FF4F0C94EB
S1131770DE1A60919E0170919F018091A001909169
S1131780A1010E94501A60939E0170939F0180935F
S1131790A0019093A10188C060919E0170919F0166
S11317A08091A0019091A1010E94091960939E016A
S11317B070939F018093A0019093A10175C06091E3
S11317C09E0170919F018091A0019091A1010E94BE
S11317D0681760939E0170939F018093A00190937A
S11317E0A10162C060919E0170919F018091A0014E
S11317F09091A1010E94421A60939E0170939F01EF
S11318008093A0019093A1014FC060919E017091BB
S11318109F018091A0019091A1010E94E91660931B
S11318209E0170939F018093A0019093A1013CC0FD
S113183060919E0170919F018091A0019091A101FE
S11318400E94901A60939E0170939F018093A0015F
S11318509093A10129C060919E0170919F01809194
S1131860A0019091A1010E94F91860939E017093C8
S11318709F018093A0019093A10116C020919E0125
S113188030919F014091A0015091A10160E070E06E
S113189080E89FE30E94EE1660939E0170939F017F
S11318A08093A0019093A10110929A0110929B0140
S11318B010929C0110929D01C093030183E090E07B
S11318C00E94120584E090E00E941205CF910895D1
S11318D00F930D3249F130F40A3209F440C00B324F
S11318E041F08DC00F3209F455C00E3509F46DC0B6
S11318F086C020919A0130919B0140919C015091A6
S11319009D0160919E0170919F018091A001909131
S1131910A1010E94781660939E0170939F018093A9
S1131920A0019093A1016BC020919A0130919B0179
S113193040919C0150919D0160919E0170919F0185
S11319408091A0019091A1010E94771660939E015D
S113195070939F018093A0019093A10150C02091A6
S11319609A0130919B0140919C0150919D0160919D
S11319709E0170919F018091A0019091A1010E940C
S1131980851960939E0170939F018093A0019093A9
S1131990A10135C020919A0130919B0140919C0195
S11319A050919D0160919E0170919F018091A001D1
S11319B09091A1010E94EE1660939E0170939F0185
S11319C08093A0019093A1011AC020919A013091B3
S11319D09B0140919C0150919D0160919E017091E9
S11319E09F018091A0019091A1010E94F21960933E
S11319F09E0170939F018093A0019093A101109286
S1131A009A0110929B0110929C0110929D0184E016
S1131A1090E00E9412050F9108950F93CF93C82F61
S1131A2080918E0190918F01892B39F084E090E0B0
S1131A30909395018093940112C5809194019091A3
S1131A4095018230910509F40DC234F4009761F0D8
S1131A50019709F43AC14DC58330910509F4B8C31F
S1131A60049709F046C5FBC480ED8C0F8A3010F052
S1131A70CE3251F46C2F81E090E00E9492051092D6
S1131A8095011092940135C58C2F8D7F8D3231F0E4
S1131A9086ED8C0F823010F0CE3569F4C0930301CB
S1131AA081E090E0909395018093940183E090E02D
S1131AB00E9412051EC5C13771F0CC3661F0C536DF
S1131AC051F08DE88C0F823030F08C2F8B7F833671
S1131AD011F0C83791F460919E0170919F0180913B
S1131AE0A0019091A1014C2F0E94AA0B83E090E0E9
S1131AF09093950180939401FCC4C63609F4DAC02E
S1131B0038F4C13609F4B5C0C43609F44CC0F1C484
S1131B10CE3609F47BC0C03721F0CD3609F0E9C4D4
S1131B201BC080ED9FE0A9E4B0E480939E019093F4
S1131B309F01A093A001B093A10183E090E0909352
S1131B4095018093940180E090E00E94120581E069
S1131B5090E00E941205CDC4809196019091970166
S1131B60A0919801B091990180939E0190939F0157
S1131B70A093A001B093A10110929A0110929B012D
S1131B8010929C0110929D0183E090E09093950146
S1131B908093940180E090E00E94120581E090E03F
S1131BA00E941205A6C420919E0130919F0140918C
S1131BB0A0015091A10160919601709197018091CB
S1131BC09801909199010E94781660939601709300
S1131BD09701809398019093990110929E0110921D
S1131BE09F011092A0011092A10110929A011092EB
S1131BF09B0110929C0110929D01109295011092EC
S1131C00940180E090E00E94120573C420919E012B
S1131C1030919F014091A0015091A10160919601E2
S1131C207091970180919801909199010E94771683
S1131C306093960170939701809398019093990112
S1131C4010929E0110929F011092A0011092A10186
S1131C5010929A0110929B0110929C0110929D0186
S1131C60109295011092940180E090E00E94120578
S1131C7040C410929601109297011092980110920C
S1131C80990110929E0110929F011092A00110924E
S1131C90A10110929A0110929B0110929C01109242
S1131CA09D01109295011092940180E090E00E94B1
S1131CB012051FC485E090E00E94120584E090E0C4
S1131CC0909395018093940114C4109293011092FF
S1131CD09201109291011092900180ED8C0F8A3044
S1131CE010F0CE32A1F410929A0110929B0110923E
S1131CF09C0110929D016C2F82E090E00E9492055D
S1131D0082E090E09093950180939401F2C38C2F2C
S1131D108D7F8D3231F086ED8C0F823010F0CE3510
S1131D2069F4C093030181E090E09093950180935E
S1131D30940183E090E00E941205DBC3C13781F077
S1131D4084E98C0F833060F08DE88C0F823040F092
S1131D508DE98C0F833020F0C73611F0C83779F441
S1131D6084E090E0909395018093940180E090E06A
S1131D700E94120586E090E00E941205BAC3C136A3
S1131D8091F120F4CD3309F44FC0B3C3C63609F43E
S1131D905EC0C03709F0ADC380ED9FE0A9E4B0E4B4
S1131DA080939A0190939B01A0939C01B0939D0111
S1131DB060919E0170919F018091A0019091A10179
S1131DC00091030120ED3FE049E450E40E94680CD7
S1131DD083E090E0909395018093940182E090E0F9
S1131DE00E94120586C310929601109297011092D8
S1131DF098011092990110929E0110929F011092E5
S1131E00A0011092A10110929A0110929B011092CC
S1131E109C0110929D01109295011092940180E012
S1131E2090E00E94120565C360919E0170919F012C
S1131E308091A0019091A101009103019B01AC014B
S1131E400E94680C109295011092940152C385E08F
S1131E5090E00E94120584E090E0909395018093B5
S1131E60940147C380ED8C0F8A3010F0CE3261F4B8
S1131E706C2F82E090E00E94920582E090E09093C3
S1131E8095018093940135C38C2F8D7F8D3231F071
S1131E9086ED8C0F823010F0CE3549F520919A01F1
S1131EA030919B0140919C0150919D0160919E0154
S1131EB070919F018091A0019091A1010091030173
S1131EC00E94680C81E090E09093950180939401C6
S1131ED0C093030180E090E00E94120581E090E04D
S1131EE00E94120583E090E00E94120502C3C137EC
S1131EF071F0CC3661F0C53651F08DE88C0F82302C
S1131F0030F08C2F8B7F833611F0C83731F5209158
S1131F109A0130919B0140919C0150919D016091E7
S1131F209E0170919F018091A0019091A101009167
S1131F3003010E94680C60919E0170919F01809141
S1131F40A0019091A1014C2F0E94AA0B83E090E084
S1131F509093950180939401CCC28C2F90E0FC0166
S1131F60FD97E433F10508F0C4C2EF57FF4F0C941A
S1131F70DE1A80ED9FE0A9E4B0E480939A01909387
S1131F809B01A0939C01B0939D0160919E0170916F
S1131F909F018091A0019091A1010091030120ED86
S1131FA03FE049E450E40E94680C83E090E09093A1
S1131FB095018093940182E090E00E94120599C2F9
S1131FC01092960110929701109298011092990123
S1131FD010929E0110929F011092A0011092A101F3
S1131FE010929A0110929B0110929C0110929D01F3
S1131FF0109293011092920110929101109290010B
S1132000109295011092940180E090E00E941205D4
S113201070C220919A0130919B0140919C01509192
S11320209D0160919E0170919F018091A00190910A
S1132030A101009103010E94680C83E090E0909359
S113204095018093940182E090E00E94120551C2B0
S11320508091960190919701A0919801B091990176
S113206080939E0190939F01A093A001B093A1013E
S113207010929A0110929B0110929C0110929D0162
S113208083E090E0909395018093940180E090E048
S11320900E94120581E090E00E9412052AC220915C
S11320A09A0130919B0140919C0150919D01609156
S11320B09E0170919F018091A0019091A1010091D6
S11320C003010E94680C20919E0130919F01409170
S11320D0A0015091A10160919601709197018091A6
S11320E09801909199010E947816609396017093DB
S11320F09701809398019093990110929E011092F8
S11321009F011092A0011092A10110929A011092C5
S11321109B0110929C0110929D01109295011092C6
S1132120940180E090E00E941205E3C120919A019D
S113213030919B0140919C0150919D0160919E01C1
S113214070919F018091A0019091A10100910301E0
S11321500E94680C20919E0130919F014091A00142
S11321605091A1016091960170919701809198011D
S1132170909199010E94771660939601709397014C
S1132180809398019093990110929E0110929F015F
S11321901092A0011092A10110929A0110929B0139
S11321A010929C0110929D0110929501109294013D
S11321B080E090E00E9412059CC185E090E00E94BE
S11321C0120584E090E0909395018093940191C16D
S11321D01092930110929201109291011092900129
S11321E080ED8C0F8A3010F0CE3291F410929E0163
S11321F010929F011092A0011092A1016C2F81E016
S113220090E00E949205109295011092940171C180
S11322108C2F8D7F8D3231F086ED8C0F823010F053
S1132220CE3599F4C093030180E090E00E9412053A
S113223081E090E090939501809394010E941205AF
S113224083E090E00E94120554C1C13771F0CC368E
S113225061F0C53651F08DE88C0F823030F08C2F50
S11322608B7F833611F0C83791F460919E01709191
S11322709F018091A0019091A1014C2F0E94AA0B73
S113228083E090E0909395018093940132C1C63627
S113229009F4DAC038F4C13609F4B5C0C43609F417
S11322A04CC027C1CE3609F47BC0C03721F0CD36EF
S11322B009F01FC11BC080ED9FE0A9E4B0E4809346
S11322C09E0190939F01A093A001B093A10183E08C
S11322D090E0909395018093940180E090E00E94B7
S11322E0120581E090E00E94120503C180919601DD
S11322F090919701A0919801B091990180939E01CA
S113230090939F01A093A001B093A10110929A0110
S113231010929B0110929C0110929D0183E090E029
S1132320909395018093940180E090E00E941205BF
S113233081E090E00E941205DCC020919E01309162
S11323409F014091A0015091A1016091960170916B
S1132350970180919801909199010E947816609359
S1132360960170939701809398019093990110922C
S11323709E0110929F011092A0011092A10110924F
S11323809A0110929B0110929C0110929D0110924F
S113239095011092940180E090E00E941205A9C07A
S11323A020919E0130919F014091A0015091A10183
S11323B06091960170919701809198019091990193
S11323C00E94771660939601709397018093980109
S11323D09093990110929E0110929F011092A00176
S11323E01092A10110929A0110929B0110929C01EB
S11323F010929D01109295011092940180E090E05A
S11324000E94120576C010929601109297011092C4
S113241098011092990110929E0110929F011092BE
S1132420A0011092A10110929A0110929B011092A6
S11324309C0110929D01109295011092940180E0EC
S113244090E00E94120555C085E090E00E941205BC
S113245084E090E090939501809394014AC0CF3634
S113246069F51092960110929701109298011092BA
S1132470990110929E0110929F011092A001109256
S1132480A10110929A0110929B0110929C0110924A
S11324909D01109295011092940110929301109253
S11324A09201109291011092900180E090E00E94BC
S11324B0120510928F0110928E011BC0C63659F47A
S11324C085E090E00E94120584E090E090939501ED
S11324D0809394010EC080E090E00E94120586E093
S11324E090E00E94120584E090E09093950180931F
S11324F09401CF910F910895EF92FF921F93CF9380
S1132500DF93CDB7DEB7A2970FB6F894DEBF0FBE48
S1132510CDBF80E2E4E0F1E0DE01119601900D927E
S11325208A95E1F7E0916401F091650181E090E022
S11325308C0F9D1FE80FF91F1081812F90E00E94DE
S11325400D0D1F3629F48FEF9FEF0E94A71506C0CB
S1132550163621F480E090E00E94A7158091650171
S11325608F93809164018F9385E591E09F938F937E
S11325707E0191E2E90EF11CFF92EF920E940B1B87
S1132580C7010E945D1688E591E00E945D16812FC7
S11325900E9455168AE00E9455160F900F900F90D6
S11325A00F900F900F90A2960FB6F894DEBF0FBE57
S11325B0CDBFDF91CF911F91FF90EF9008951F92AF
S11325C00F920FB60F9211242F933F934F935F9363
S11325D06F937F938F939F93AF93BF93EF93FF93E7
S11325E08091600190916101892BE9F54C9909C0B2
S11325F080916201909163019093650180936401DD
S113260023C04D990AC080916201909163010196A3
S1132610909365018093640117C04E990AC080911C
S11326206201909163010296909365018093640125
S11326300BC04F9909C08091620190916301039688
S1132640909365018093640181E090E0909361012F
S11326508093600182E390E09093010180930001F4
S11326600E947C1206C082E390E090930101809363
S11326700001FF91EF91BF91AF919F918F917F9155
S11326806F915F914F913F912F910F900FBE0F90DB
S11326901F9018951F920F920FB60F9211242F932B
S11326A03F934F935F936F937F938F939F93AF93D6
S11326B0BF93EF93FF938091600190916101892B07
S11326C0F1F532990AC080916201909163010496F8
S11326D0909365018093640123C033990AC080916B
S11326E06201909163010596909365018093640162
S11326F017C034990AC080916201909163010696D3
S113270090936501809364010BC0359909C0809151
S1132710620190916301079690936501809364012F
S113272081E090E0909361018093600182E390E006
S113273090930101809300010E947C1206C082E301
S113274090E09093010180930001FF91EF91BF917C
S1132750AF919F918F917F916F915F914F913F9135
S11327602F910F900FBE0F901F901895289A209AC2
S11327708FE493EC0197F1F700C0000028988FE4F0
S113278093EC0197F1F700C00000289A089584B1F2
S11327908E6284B9249885B1846185B98CB58065CD
S11327A08CBD8DB581608DBD08952A9829988EBD04
S11327B00DB407FEFDCF2A9A8EB508952A98299A5A
S11327C08EBD0DB407FEFDCF2A9A8EB508952A98C2
S11327D0299A9EBD0DB407FEFDCF8EBD0DB407FE34
S11327E0FDCF2A9A8EB508950F931F93CF93DF934D
S11327F08C01EB018CE20E94D513209729F0C801CB
S11328000E94E7132197D9F7DF91CF911F910F9180
S113281008950F931F93CF93DF93681750F1623A93
S113282050F5241750F1243850F5122F042FC62FD9
S1132830D82F8AE20E94D51380E00E94DE138D2FE8
S11328400E94DE1380E00E94DE138C2F0E94DE13B0
S11328508BE20E94D51380E00E94DE13802F0E9439
S1132860DE1380E00E94DE13812F0E94DE1381E0DC
S113287007C080E005C080E003C080E001C080E0C4
S1132880DF91CF911F910F9108958D3990F06D379D
S1132890E0F46C3770F470E0685F7F4F7093A501CB
S11328A06093A40190E09093A3018093A20181E03E
S11328B0089570E07093A5016093A40190E0909353
S11328C0A3018093A20181E0089580E00895CF934D
S11328D0DF93EA01262F462F682F0E94091461E036
S11328E070E0CE010E94F413DF91CF9108954F92CE
S11328F05F927F928F929F92AF92BF92CF92DF921C
S1132900EF92FF921F93CF93DF932B01411134C0B9
S11329106894992492F8C82FD0E0CE018097EC01F6
S1132920CC0FDD1FCC0FDD1FC80FD91F0F2EF4EA0B
S1132930CF2EF1E0DF2EF02D0F2EF2EAEF2EF1E094
S1132940FF2EF02DFE01E90DF11DE85DFC4FB49062
S113295017E0BB204CF4F6016081610FF701808120
S1132960A201890D0E946714BB0C115090F79A9430
S1132970FFEF9F12E7CF9CC0413009F040C068943C
S1132980992492F8E82EF12CC70180977C01EE0C73
S1132990FF1CEE0CFF1CE80EF91E0F2EF4EAAF2EFE
S11329A0F1E0BF2EF02D0F2EF2EACF2EF1E0DF2E54
S11329B0F02DF701E90DF11DE85DFC4F8490C7E0AF
S11329C08820ACF4F5016081DC2FDD0F6D0FF6017A
S11329D08081A201890D0E946714F50160816F5FF7
S11329E06D0FF6018081A201890D0E946714880C85
S11329F0C15030F79A94FFEF9F12DBCF59C04A3091
S1132A0009F056C06894EE24E2F8C82ED12CC60111
S1132A1080976C01CC0CDD1CCC0CDD1CC80ED91EBF
S1132A200F2EF4EA8F2EF1E09F2EF02D0F2EF2EAF6
S1132A30AF2EF1E0BF2EF02DF601EE0DF11DE85D95
S1132A40FC4FC4917E2C770CD7E0CC2354F5F401D1
S1132A506081FD2EFF0C6F0DF5018081A201870DB1
S1132A600E946714F40160816F5F6F0DF50180812E
S1132A70A201870D0E946714F40160816F0DF501B6
S1132A8080818F5FA201870D0E946714F401608129
S1132A906F5F6F0DF50180818F5FA201870D0E942A
S1132AA06714CC0FD15088F6EA94FFEFEF12C4CF2D
S1132AB080E0DF91CF911F91FF90EF90DF90CF9056
S1132AC0BF90AF909F908F907F905F904F900895AC
S1132AD09F92AF92BF92CF92DF92EF92FF920F93A9
S1132AE01F93CF93DF93EC018881882321F1A42ED7
S1132AF08B01942E9694B12C0F2EF4EACF2EF1E094
S1132B00DF2EF02D0F2EF2EAEF2EF1E0FF2EF02D46
S1132B10B3944A2DB8010E947714F70180818A5F2B
S1132B20F6016081890D0E944514FE01EB0DF11D33
S1132B3080818111EDCFDF91CF911F910F91FF9093
S1132B40EF90DF90CF90BF90AF909F900895CF9378
S1132B50DF93EC0123E840E061EA80E00E9409147D
S1132B6068E873E5CE010E94F413DF91CF910895D4
S1132B7089E20E94D5130895882341F0EFE9FFE02C
S1132B803197F1F700C000008150C1F70895CF924A
S1132B90DF92EF92FF920F931F93CF93DF937C0109
S1132BA02FEFE21AF20AFC01D4902DC0F7018491B0
S1132BB00E94D513F7013196E491F2E0EF0EF11C77
S1132BC02E2F2078C22EEF778FEF8E0FEE2389F011
S1132BD03E2D2F2D90E00196E80EF91E8701C32F9C
S1132BE0D22FFE0184910E94DE132196C017D107D3
S1132BF0C1F7CC2039F0E7012196F70184910E94B6
S1132C00BC157E01DA94D110D1CFDF91CF911F9101
S1132C100F91FF90EF90DF90CF9008950E94B6132C
S1132C200E94C71388E095E00E94C715089587B1F4
S1132C30836087B98AB18C608AB987B1837C87B98C
S1132C408AB18F708AB988B18C6388B98BB1806F6F
S1132C508BB988B1836088B98BB18C608BB9ECE691
S1132C60F0E080818C638083EDE6F0E08081806F0A
S1132C708083E8E6F0E0808186608083A0EBB0E0AA
S1132C801C92E1EBF0E010821092B2008CE780938A
S1132C90B3008C9182608C93808185608083E0E7AF
S1132CA0F0E08081826080830895E0ECF0E0908120
S1132CB095FFFDCF8093C6000895CF93DF93EC0179
S1132CC08881882331F021960E94551689918111BB
S1132CD0FBCFDF91CF9108959093C5008093C400FA
S1132CE088E18093C10086E08093C2000895505823
S1132CF0BB27AA270E948F160C9464180E942B18D5
S1132D0038F00E94321820F039F49F3F19F426F469
S1132D100C9401180EF4E095E7FB0C94FB17E92FD3
S1132D200E94891858F3BA17620773078407950736
S1132D3020F079F4A6F50C94AB180EF4E0950B2E64
S1132D40BA2FA02D0B01B90190010C01CA01A001F9
S1132D501124FF27591B99F0593F50F4503E68F154
S1132D601A16F040A22F232F342F4427585FF3CF95
S1132D70469537952795A795F0405395C9F77EF466
S1132D801F16BA0B620B730B840BBAF09150A1F0AF
S1132D90FF0FBB1F661F771F881FC2F70EC0BA0F35
S1132DA0621F731F841F48F4879577956795B795BD
S1132DB0F7959E3F08F0B0CF9395880F08F09927B8
S1132DC0EE0F9795879508950E94D71708F481E030
S1132DD008950E943B18E3950C9475180E940217FD
S1132DE00C9464180E94321858F00E942B1840F07A
S1132DF029F45F3F29F00C94FB1751110C94AC1883
S1132E000C9401180E94891868F39923B1F355238F
S1132E1091F3951B550BBB27AA27621773078407E9
S1132E2038F09F5F5F4F220F331F441FAA1FA9F37F
S1132E3035D00E2E3AF0E0E832D091505040E6956D
S1132E40001CCAF72BD0FE2F29D0660F771F881FCE
S1132E50BB1F261737074807AB07B0E809F0BB0BC1
S1132E60802DBF01FF2793585F4F3AF09E3F5105D5
S1132E7078F00C94FB170C94AC185F3FE4F3983E85
S1132E80D4F3869577956795B795F7959F5FC9F7BE
S1132E90880F911D9695879597F90895E1E0660F3F
S1132EA0771F881FBB1F621773078407BA0720F0B8
S1132EB0621B730B840BBA0BEE1F88F7E095089521
S1132EC029F416F00C94FB170C94AB180C9401180D
S1132ED00E949118A8F39638A0F707F80F92E89487
S1132EE02BE33AEA48EB5FE70E949B190F920F929B
S1132EF00F924DB75EB70F920E945119EAE6F1E0C6
S1132F000E9404184F915F91EF91FF91E595EE1F98
S1132F10FF1F49F0FE57E0684427EE0F441FFA955F
S1132F20E1F74195550B0E94C3180F9007FE0C94CE
S1132F30B7180895E89409C097FB3EF490958095DE
S1132F40709561957F4F8F4F9F4F9923A9F0F92F6B
S1132F5096E9BB279395F695879577956795B795E9
S1132F60F111F8CFFAF4BB0F11F460FF1BC06F5FCF
S1132F707F4F8F4F9F4F16C0882311F096E911C0E1
S1132F80772321F09EE8872F762F05C0662371F002
S1132F9096E8862F70E060E02AF09A95660F771F16
S1132FA0881FDAF7880F9695879597F90895990FF2
S1132FB00008550FAA0BE0E8FEEF16161706E807FF
S1132FC0F907C0F012161306E407F50798F0621B20
S1132FD0730B840B950B39F40A2661F0232B242BF5
S1132FE0252B21F408950A2609F4A140A6958FEF14
S1132FF0811D811D089597F99F6780E870E060E066
S113300008959FEF80EC0895DF93CF931F930F9360
S1133010FF92EF92DF927B018C01689406C0DA2E56
S1133020EF010E949819FE01E894A591259135912C
S113303045915591A6F3EF010E948F16FE01970169
S1133040A801DA9469F7DF90EF90FF900F911F9138
S1133050CF91DF91089500240A94161617061806D6
S11330600906089500240A94121613061406050688
S113307008950C9401180E949118D8F3E894E0E0A4
S1133080BB279F57F0F02AED3FE049EC06C0EE0F56
S1133090BB0F661F771F881F28F0B23A62077307B9
S11330A0840728F0B25A620B730B840BE3959A954C
S11330B072F7803830F49A95BB0F661F771F881F0C
S11330C0D2F790480C94B71A092E0394000C11F40B
S11330D0882352F0BB0F40F4BF2B11F460FF04C0EF
S11330E06F5F7F4F8F4F9F4F0895EF93E0FF07C0AF
S11330F0A2EA2AED3FE049EC5FEB0E948F160E94A2
S113310064180F90039401FC9058E2E9F1E00C94E8
S1133110CA1A57FD9058440F551F59F05F3F71F07C
S11331204795880F97FB991F61F09F3F79F087952A
S11331300895121613061406551FF2CF4695F1DFB3
S113314008C0161617061806991FF1CF8695710543
S1133150610508940895E894BB2766277727CB0177
S113316097F908950E94D71708F48FEF08959B01EB
S1133170AC0160E070E080E89FE30C94EE160C94E0
S1133180FB170C94B51A0E949118D8F39923C9F32C
S1133190940F511DA3F39150504094F059F088239B
S11331A032F0660F771F881F91505040C1F79E3F41
S11331B051052CF7880F911D9695879597F90895D9
S11331C05F3FACF0983E9CF0BB278695779567955A
S11331D0B79508F4B1609395C1F7BB0F58F711F494
S11331E060FFE8CF6F5F7F4F8F4F9F4FE3CF0C940B
S11331F0AC180E94091929ED3BE54EED5EE30C94F1
S1133200851916F00C94B51A0C94011868940C9452
S1133210FB170E949118A8F39923C1F3AEF3DF932F
S1133220CF931F930F93FF92C92FDD2788232AF092
S11332302197660F771F881FDAF720E030E040E817
S11332405FEB9FE3883920F0803E38F021968F773A
S11332500E947816E0EBF1E004C00E947816EDEDD0
S1133260F1E00E9404188B01BE01EC01FB2E6F57A4
S113327071097595771F880B990B0E949C1728E19B
S113328032E741E35FE30E949819AF2D9801AE0144
S1133290FF900F911F91CF91DF910E948F160C9494
S11332A06418FA01DC01AA0FBB1F9B01AC01BF57D4
S11332B028F4222733274427507820C0B75190F4AC
S11332C0AB2F0024469537952795011CA395D2F37F
S11332D0002071F0220F331F441FB395DAF30ED090
S11332E00C94771661307105A0E88A07B94630F46A
S11332F09B01AC016627772788279078309621F0C8
S1133300208331834283538308950E9498190C9437
S113331064180E942B1838F00E94321820F095236C
S113332011F00C94FB170C94011811240C94AC1894
S11333300E94891870F3959FC1F3950F50E0551FB3
S1133340629FF001729FBB27F00DB11D639FAA27F6
S1133350F00DB11DAA1F649F6627B00DA11D661F45
S1133360829F2227B00DA11D621F739FB00DA11D66
S1133370621F839FA00D611D221F749F3327A00D20
S1133380611D231F849F600D211D822F762F6A2FBC
S113339011249F5750409AF0F1F088234AF0EE0F21
S11333A0FF1FBB1F661F771F881F91505040A9F74E
S11333B09E3F510580F00C94FB170C94AC185F3FB2
S11333C0E4F3983ED4F3869577956795B795F7958A
S11333D0E7959F5FC1F7FE2B880F911D9695879502
S11333E097F90895FA01EE0FFF1F30962105310574
S11333F0A1F16115710561F48038BFE39B0749F1C0
S113340068949038810561F08038BFEF9B0741F0E4
S113341099234AF5FF3FE1053105210519F1E894A7
S11334200894E795D901AA2329F4AB2FBE2FF85F9E
S1133430D0F310C0FF5F70F4A695E0F7F73950F0B1
S113344019F0FF3A38F49F779F930DD00F9007FC43
S11334509058089546F00C94011860E070E080E8FC
S11334609FE308954FE79F775F934F933F932F9385
S11334700E9409192F913F914F915F910E948519E4
S11334800C9468179F930E943B180F9007FCEE5F03
S11334900C94751819F416F40C9401180C94B51ABC
S11334A00E949118B8F39923C9F3B6F39F57550BAB
S11334B087FF0E94C31A0024A0E640EA90018058C6
S11334C05695979528F4805C660F771F881F20F027
S11334D026173707480730F4621B730B840B202927
S11334E031294A2BA69517940794202531254A277C
S11334F058F7660F771F881F20F0261737074807ED
S113350030F4620B730B840B200D311D411DA0950B
S113351081F7B901842F9158880F9695879508955E
S1133520DF93D92F0E943B18E695D7952AED3FE00B
S113353049E45FE3B33A6207730784079507D795B5
S11335403AF0A2EA49EC90680E948F160E9464182F
S1133550EAE0F2E00E94CA1ADD0F13F00E94B718E5
S1133560DD0F0BF49058DF9108959F3F31F0915097
S113357020F4879577956795B795880F911D969553
S1133580879597F9089591505040660F771F881FCB
S1133590D2F708959F938F937F936F93FF93EF9345
S11335A09B01AC010E948519EF91FF910E940418C0
S11335B02F913F914F915F910C948519EE0FFF1F4E
S11335C00590F491E02D0994EF920F931F93CF93FC
S11335D0DF93E80147FD02C034E001C034E1042E6A
S11335E0000C550B57FF03C0519541955109E32E2B
S11335F0022F242FAE010E940E1DCE01DF91CF9128
S11336001F910F91EF900895FB01DC0101900D9241
S11336100020E1F70895AEE0B0E0E1E1FBE10C94B5
S1133620FE1F0D891E8986E08C831A8309838FEF20
S11336309FE79E838D83AE01475E5F4F6F89788DD0
S1133640CE0101960E942D1BEF81F885E00FF11F3A
S113365010822E96E4E00C941A20ABE0B0E0E3E391
S1133660FBE10C94F01F6C017B018A01FC011782C1
S11336701682838181FFCCC1CE0101963C01F60103
S11336809381F70193FD859193FF81917F018823B5
S113369009F4BAC1853239F493FD859193FF819180
S11336A07F01853229F4B60190E00E94561FE7CFCE
S11336B0912C212C312CFFE1F315D8F08B3279F0C9
S11336C038F4803279F08332A1F4232D20611DC0B7
S11336D08D3261F0803369F4232D216016C0832D6F
S11336E08260382EE32DE4603E2E2AC0F32DF8606C
S11336F01DC037FC2DC020ED280F2A3040F08E323B
S1133700B9F436FC81C1232D2064322E19C036FE53
S113371006C08AE0989E200D1124922E11C0EAE082
S11337202E9E200D1124222EF32DF0623F2E08C070
S11337308C3621F4832D8068382E02C0883641F4FB
S1133740F70193FD859193FF81917F018111B3CF9F
S1133750982F9F7D9554933028F40C5F1F4F9FE35F
S113376099830DC0833631F0833771F0833509F0C6
S113377059C021C0F801808189830E5F1F4F8824BE
S11337808394912C530113C02801F2E04F0E511C75
S1133790F801A080B18036FE03C0692D70E002C03C
S11337A06FEF7FEFC5010E944B1F4C018201F32D87
S11337B0FF773F2E16C0280122E0420E511CF8016B
S11337C0A080B18036FE03C0692D70E002C06FEFA7
S11337D07FEFC5010E94401F4C01F32DF0683F2E7E
S11337E0820133FC1BC0822D90E088169906B0F448
S11337F0B60180E290E00E94561F2A94F4CFF501AE
S113380037FC859137FE81915F01B60190E00E94FB
S1133810561F21102A9421E0821A910881149104E0
S113382071F7E8C0843611F0893641F5F80137FEA6
S113383007C060817181828193810C5F1F4F08C032
S113384060817181072E000C880B990B0E5F1F4F4E
S1133850F32DFF763F2E97FF09C0909580957095C4
S113386061957F4F8F4F9F4FF0683F2E2AE030E0E5
S1133870A3010E94921F882E861845C0853731F413
S1133880232D2F7EB22E2AE030E025C0932D997F80
S1133890B92E8F36C1F018F4883579F0B5C0803769
S11338A019F0883721F0B0C0E92FE061BE2EB4FED4
S11338B00DC0FB2DF460BF2E09C034FE0AC0292FB1
S11338C02660B22E06C028E030E005C020E130E0DA
S11338D002C020E132E0F801B7FE07C060817181C7
S11338E0828193810C5F1F4F06C06081718180E0EB
S11338F090E00E5F1F4FA3010E94921F882E86182E
S1133900FB2DFF773F2E36FE0DC0232D2E7FA22EDA
S1133910891458F434FE0BC032FC09C0832D8E7E0A
S1133920A82E05C0B82CA32C03C0B82C01C0B92CF8
S1133930A4FE0FC0FE01E80DF11D8081803321F447
S11339409A2D997EA92E09C0A2FE06C0B394B39401
S113395004C08A2D867809F0B394A3FC11C0A0FE9C
S113396006C0B21488F4280C922C9B180EC0B21412
S113397060F4B60180E290E00E94561FB394F7CF42
S1133980B21418F42B1802C0982C212CA4FE10C0D9
S1133990B60180E390E00E94561FA2FE17C0A1FC6E
S11339A003C088E790E002C088E590E0B6010CC04F
S11339B08A2D867859F0A1FE02C08BE201C080E214
S11339C0A7FC8DE2B60190E00E94561F891438F4DA
S11339D0B60180E390E00E94561F9A94F7CF8A9430
S11339E0F301E80DF11D8081B60190E00E94561F9D
S11339F08110F5CF222009F442CEB60180E290E096
S1133A000E94561F2A94F6CFF6018681978102C040
S1133A108FEF9FEF2B96E2E10C940C20A9E0B0E02D
S1133A20E4E1FDE10C94F61F6A01122FB02E2BE3A2
S1133A30201720F0FF24F394F00E02C02CE3F22EA2
S1133A400F2D27E0AE014F5F5F4F0E94681EBC013F
S1133A504981842F8970813031F0E1FC06C0E0FE99
S1133A6006C090E205C09DE203C09BE201C090E065
S1133A705E2D507143FF3CC0911102C083E001C030
S1133A8084E0811718F4212F281B01C020E0511174
S1133A900BC0F601822F30E2882319F03193815054
S1133AA0FBCFC20ED11C20E0992329F0D6019C93B0
S1133AB0F60131966F01C6010396E2FE0AC03EE4A8
S1133AC0D6013C9341E411964C93119712963C9382
S1133AD006C03EE6F601308341E641833283FC01B1
S1133AE0322F40E2332309F442C041933150FACFDC
S1133AF042FF44C0911102C083E001C084E08117F9
S1133B0018F4212F281B01C020E051110BC0F6012D
S1133B10822F30E2882319F031938150FBCFC20EFB
S1133B20D11C20E0992329F0D6019C93F60131960B
S1133B306F01C6010396E2FE0BC039E4D6013C9343
S1133B403EE411963C93119736E412963C9307C0D9
S1133B5039E6F60130833EE6318336E63283FC01F2
S1133B60322F40E2332319F041933150FBCFFC0153
S1133B70E20FF11D10828EEF9FEFA6C021E030E02E
S1133B80911102C020E030E0161617061CF4FB0168
S1133B90319602C0E1E0F0E02E0F3F1FBB2021F080
S1133BA0EB2DF0E0319602C0E0E0F0E02E0F3F1F75
S1133BB0E12FF0E02E173F071CF4121B212F01C048
S1133BC020E08E2D887159F4F601822F30E288238B
S1133BD019F031938150FBCFC20ED11C20E0992300
S1133BE029F0D6019C93F60131966F0151110BC057
S1133BF0F601822F90E3882319F091938150FBCF33
S1133C00C20ED11C20E00F2D060F9A81342F307183
S1133C1044FF03C0913309F40150101624F4093011
S1133C2018F008E001C001E0AB0177FF02C040E0FA
S1133C3050E0FB01E41BF50BA1E0B0E0AC0FBD1FAD
S1133C40EA0FFB1F8EE2A82E4B01801A91080B2D60
S1133C5010E01195019511094F3FBFEF5B0721F467
S1133C60D601AC9211966D01641775072CF0841679
S1133C70950614F4818101C080E3415051093196C5
S1133C80D60111967D014017510724F0D6018C937B
S1133C906701E2CF6417750739F4963320F495333E
S1133CA019F4311101C081E3F6018083F701822FF9
S1133CB090E2882319F091938150FBCFF701E20F32
S1133CC0F11D108280E090E02996ECE00C94122023
S1133CD0283008F027E03327DA01990F311D87FDDA
S1133CE0916000966105710539F432602E5F3D9351
S1133CF030E32A95E1F708959F3F30F0803871054D
S1133D00610509F03C5F3C5F3D93913008F08068A9
S1133D10911DDF93CF931F930F93FF92EF92192F6F
S1133D20987F9695E92F96959695E90FFF27E85782
S1133D30FD4F99273327EE24FF24A701E7010590BF
S1133D400894079428F4360FE71EF81E491F511DE6
S1133D50660F771F881F991F0694A1F70590079493
S1133D6028F4E70EF81E491F561FC11D770F881F40
S1133D70991F661F0694A1F70590079428F4F80E7E
S1133D80491F561FC71FD11D880F991F661F771F14
S1133D900694A1F70590079420F4490F561FC71FF6
S1133DA0D81F990F661F771F881F0694A9F784915F
S1133DB01095177041F0D695C79557954795F79488
S1133DC0E7941A95C1F7EEE2F2E068941590159124
S1133DD035916591959105907FE27395E118F10A0B
S1133DE0430B560BC90BD009C0F7E10CF11E431F5E
S1133DF0561FC91FD01D7EF4703311F48A95E6CF87
S1133E00E894015030F0080F0AF40027021708F470
S1133E10202F2395022F7A3328F079E37D932A9576
S1133E20E9F710C07D932A9589F6069497956795CE
S1133E30379517951794E118F10A430B560BC90BE4
S1133E40D00998F023957E9173957A3308F070E346
S1133E507C932013B8F77E9170617D9330F0839545
S1133E6071E37D9370E32A95E1F71124EF90FF90BD
S1133E700F911F91CF91DF91992787FD9095089518
S1133E80FC010590615070400110D8F78095909521
S1133E908E0F9F1F0895FC01615070400190011026
S1133EA0D8F7809590958E0F9F1F08950F931F93B9
S1133EB0CF93DF93FB01238121FD03C08FEF9FEF9D
S1133EC02CC022FF16C046815781248135814217B8
S1133ED0530744F4A081B1819D012F5F3F4F31838B
S1133EE020838C93268137812F5F3F4F378326832E
S1133EF014C08B01EC01FB010084F185E02D0995D0
S1133F00892BE1F6D80116968D919C91179701960D
S1133F1017969C938E931697CE01DF91CF911F91A4
S1133F200F910895FA01AA27283051F1203181F127
S1133F30E8946F936E7F6E5F7F4F8F4F9F4FAF4FAD
S1133F40B1E03ED0B4E03CD0670F781F891F9A1FC0
S1133F50A11D680F791F8A1F911DA11D6A0F711D74
S1133F60811D911DA11D20D009F468943F912AE080
S1133F70269F11243019305D3193DEF6CF01089568
S1133F80462F4770405D4193B3E00FD0C9F7F6CF99
S1133F90462F4F70405D4A3318F0495D31FD405261
S1133FA0419302D0A9F7EACFB4E0A69597958795F7
S1133FB077956795BA95C9F70097610571050895D6
S1133FC09B01AC010A2E0694579547953795279582
S1133FD0BA95C9F7620F731F841F951FA01D08951A
S1133FE02F923F924F925F926F927F928F929F9205
S1133FF0AF92BF92CF92DF92EF92FF920F931F93F3
S1134000CF93DF93CDB7DEB7CA1BDB0B0FB6F894A3
S1134010DEBF0FBECDBF09942A88398848885F84E3
S11340206E847D848C849B84AA84B984C884DF8054
S1134030EE80FD800C811B81AA81B981CE0FD11D38
S11340400FB6F894DEBF0FBECDBFED010895F8940E
S1054050FFCF9C
S1134052FFFF202B3D33393678746C6E2F2D2A2BBB
S11340626170675E303137346F73716D2E3238355B
S11340726663656400484F4C4100496E6963696F29
S11340822070726F6772616D6100202020202020F1
S1134092206F7666004572726F7200202020202005
S11140A22020202000256400202D3E20000058
S9030000FC
