S014000056657273696F6E46696E616C2E7372656340
S11300000C94A7020C94C4020C94C4020C94C40271
S11300100C941E130C94B3120C94C4020C94770326
S11300200C94C4020C94C4020C94C4020C94C40234
S11300300C94C4020C94C4020C94C4020C94C40224
S11300400C94C4020C94C4020C94C4020C94C40214
S11300500C94C4020C94C4020C94C4020C94C40204
S11300600C94C4020C94C4022C05F1040805030585
S11300701A054B055E05590862089405DA05210640
S11300806806AF06F6063D078407CB071208590831
S113009067089D05E3052A067106B806FF064607AC
S11300A08D07D4071B083E0B470B7908BF080609C8
S11300B04D099409DB09220A690AB00AF70A3E0BC2
S11300C04C0B8208C8080F0956099D09E4092B0A3C
S11300D0720AB90A000BE70B360CC10B360C0D0C77
S11300E0360C360C360C360CAE0B360C360C360C85
S11300F0360C9B0B360CD40BFA0B360C360C360C28
S1130100200CEB0F5B125B125B125B125B125B1237
S11301105B125B125B125B125B125B125B125B1273
S11301205B125B125B125B125B125B125B125B1263
S11301305B125B125B125B125B125B125B125B1253
S11301405B125B125B125B125B12C20F5B125B12DF
S113015031105B12BF105B125B125B125B125B12FD
S11301605B120A1078105B129B0F07634236B79B31
S1130170D8A71A39685618AEBAAB558C1D3CB7CC03
S11301805763BD6DEDFD753EF6177231BF0000007B
S1130190803F05A84CCDB2D44EB93836A9020C50D4
S11301A0B9918688083CA6AAAA2ABE000000803F0E
S11301B008000000BE922449123EABAAAA2ABECD72
S11301C0CCCC4C3E00000080BEABAAAAAA3E0000E4
S11301D00000BF000000803F0000000000084178DC
S11301E0D3BB4387D1133D190E3CC3BD4282AD2B13
S11301F03E68EC8276BED98FE1A93E4C80EFFFBE0B
S113020001C4FF7F3F00000000000664EC1B3C04B7
S1130210BC163E3BE5B93CC93C37C29E5A3D660418
S113022098083EEA69AAAA3E000000803F00004008
S11302307A10F35A00A0724E18090010A5D4E800F1
S113024000E87648170000E40B54020000CA9A3B09
S1130250000000E1F505000080969800000040428F
S11302600F000000A086010000001027000000001D
S1130270E803000000006400000000000A00000021
S113028000000100000000002C76D888DC674F08CD
S113029023DFC1DFAE59E1B1B796E5E3E453C63AD3
S11302A0E651997696E8E6C28426EB898C9B62ED4A
S11302B0407C6FFCEFBC9C9F40F2BAA56FA5F49004
S11302C0055A2AF75C936B6CF9676DC11BFCE0E47B
S11302D00D47FEF520E6B500D0ED902E03009435D1
S11302E077050080841E080000204E0A000000C824
S11302F00C333333330F986E12831141EF8D211475
S1130300893BE65516CFFEE6DB18D1844B381BF744
S11303107C1D901DA4BBE424203284725E228100E3
S1130320C9F124ECA1E53D27000000000000005FB6
S113033000000007000700147F147F14242A7F2A7A
S11303401223130864623649552250000503000045
S1130350001C2241000041221C0014083E0814081D
S1130360083E08080050300000080808080800602B
S113037060000020100804023E5149453E00427FBF
S1130380400042615149462141454B311814127FC6
S11303901027454545393C4A49493001710905034F
S11303A03649494936064949291E003636000000B7
S11303B05636000008142241001414141414004189
S11303C02214080201510906324979413E7E111175
S11303D0117E7F494949363E414141227F414122B4
S11303E01C7F494949417F090909013E4149497A2C
S11303F07F0808087F00417F41002040413F017F82
S1130400081422417F404040407F020C027F7F0459
S113041008107F3E4141413E7F090909063E415192
S1130420215E7F09192946464949493101017F0165
S1130430013F4040403F1F2040201F3F4038403F85
S113044063140814630708700807615149454300A1
S11304507F41410002040810200041417F00040252
S11304600102044040404040000102040020545472
S113047054787F48444438384444442038444448F9
S11304807F3854545418087E0901020C5252523ECB
S11304907F0804047800447D40002040443D007FF0
S11304A01028440000417F40007C041804787C0834
S11304B004047838444444387C141414080814148C
S11304C0147C7C080404084854545420043F4440D9
S11304D0203C4040207C1C2040201C3C4030403CC0
S11304E044281028440C5050503C4464544C44005C
S11304F00836410000007F00000041360800100863
S113050008100800000000000B0180C81180C83AE0
S113051081050AB1830006030A20800A3601A0B6C9
S1130520021502B40100E01009160920211B131959
S113053017151E2B0405020EE1900B14081E221D34
S1130540181E1B1A242B0606020F0A13800A1124F4
S11305501FBECFEFD8E0DEBFCDBF11E0A0E0B1E019
S1130560EAEFFFE302C005900D92AC36B107D9F76C
S113057021E0ACE6B1E001C01D92A33DB207E1F772
S11305800E94E4030C94FB1F0C940000CF93DF93B0
S1130590EC018136910561F469E183E20E9419144A
S11305A041E06FEF7FEF88EC91E00E943C1520C0A2
S11305B069E183E20E94191441E06FEF7FEF88EC58
S11305C091E00E943C15DE01E8ECF1E022ED31E01F
S11305D08D918193E217F307D9F769E183E20E94D1
S11305E0191441E060E070E088EC91E00E943C1551
S11305F0DF91CF910895CF93DF93EC01813691057C
S1130600A9F46DE283E20E94191441E06FEF7FEFD9
S113061084EB91E00E943C15E4EBF1E02EEB31E039
S113062080E28193E217F307E1F720C06DE283E2F1
S11306300E94191441E06FEF7FEF84EB91E00E9478
S11306403C15DE01E4EBF1E02EEB31E08D9181937A
S1130650E217F307D9F76DE283E20E94191441E02F
S113066060E070E084EB91E00E943C15DF91CF9153
S11306700895CF93DF93EC0181369105A9F461E4E9
S113068083E20E94191441E06FEF7FEF8EEB91E05B
S11306900E943C15EEEBF1E028EC31E080E281931E
S11306A0E217F307E1F720C061E483E20E94191422
S11306B041E06FEF7FEF8EEB91E00E943C15DE018D
S11306C0EEEBF1E028EC31E08D918193E217F30732
S11306D0D9F761E483E20E94191441E060E070E01C
S11306E08EEB91E00E943C15DF91CF9108951F920B
S11306F00F920FB60F9211242F933F938F939F93D2
S113070080910001909101011816190634F40197A3
S1130710909301018093000104C010926F01109224
S11307206E0180916C0190916D01019690936D0121
S113073080936C018830910529F410926D01109218
S11307406C011CC09C012D7F2130310519F025302E
S1130750310539F488B1836088B98BB18C608BB969
S11307602AC08230910581F01CF4892B21F506C042
S11307708430910589F00697B9F01DC04098109215
S113078071011092700117C0419888E090E0909335
S11307907101809370010FC05A9880E190E09093AA
S11307A071018093700107C05B9888E190E0909399
S11307B07101809370019F918F913F912F910F90C0
S11307C00FBE0F901F9018950E94E2150E948C1581
S11307D00E94EB1580E190E00E94401685E291E0D2
S11307E00E943116789467E389E10E94191441E06C
S11307F060E070E08AE291E00E943C152FE784E813
S11308009EE1215080409040E1F700C000008FEF4E
S11308109FEF0E947B15FFCFCF92DF92EF92FF9262
S11308200F931F93CF93DF936B017C018A012FE712
S113083036E948E15BE40E948618181654F02FE765
S113084036E948E15BECC701B6010E94B81688237B
S11308507CF48BE0EAE3F1E0D80101900D928A95F3
S1130860E1F781E090E090939D0180939C01A7C003
S113087020E030E0A901C701B6010E948618882350
S11308800CF44AC020E030E040E251E4C701B60174
S11308900E94B816882374F120E030E048EC52E45A
S11308A0C701B6010E94B81688233CF120E030E06D
S11308B04AE754E4C701B6010E94B816882304F13C
S11308C020E030E44CE156E4C701B6010E94B816BA
S11308D08823CCF0D1E0C0E020E030E543EC57E4DD
S11308E0C701B6010E94B81688230CF0D0E02D2F62
S11308F03C2F0BC025E030E008C024E030E005C008
S113090023E030E002C022E030E04AE050E0C701DA
S1130910B6010E94B81A53C020E030E0A901C70113
S1130920B6010E94B81688230CF049C020E030E0DC
S113093040E251ECC701B6010E948618181674F102
S113094020E030E048EC52ECC701B6010E94861862
S113095018163CF120E030E04AE754ECC701B60138
S11309600E948618181604F120E030E44CE156EC9D
S1130970C701B6010E9486181816CCF0D1E0C0E079
S113098020E030E543EC57ECC701B6010E9486181D
S113099018160CF0D0E02D2F3C2F0BC025E030E0D2
S11309A008C024E030E005C023E030E002C022E0CB
S11309B030E04AE050E0C701B6010E94B81ADF9166
S11309C0CF911F910F91FF90EF90DF90CF900895FA
S11309D08730910508F07BC0FC01EC5CFF4F0C9460
S11309E0B21A6091AC017091AD018091AE01909109
S11309F0AF0142E951E00E940C04BC0188E891E097
S1130A000E94D81A64C080910301809302015FC0E0
S1130A106091A8017091A9018091AA019091AB0104
S1130A2042E951E00E940C04BC018EE791E00E946F
S1130A30D81A4DC06091AC017091AD018091AE01A6
S1130A409091AF0142E951E00E940C04BC0184E79B
S1130A5091E00E94D81A3BC08AE0EAE5F1E0A8E8F8
S1130A60B1E001900D928A95E1F78AE0EAE5F1E0C0
S1130A70AEE7B1E001900D928A95E1F780E28093B0
S1130A8002018AE0EAE5F1E0A4E7B1E001900D9209
S1130A908A95E1F7089589E0E5E4F1E0A8E8B1E09A
S1130AA001900D928A95E1F786E0EEE4F1E0A8E882
S1130AB0B1E001900D928A95E1F709C086E0E4E582
S1130AC0F1E0A8E8B1E001900D928A95E1F788E899
S1130AD091E00E94C6028EE791E00E94FB0284E747
S1130AE091E00E94390308958F929F92AF92BF9232
S1130AF0CF92DF92EF92FF920F931F93CF93DF93E6
S1130B00C0919E01D0919F01C730D1050CF0F7C56B
S1130B10019709F0E5C20091A0011091A10101150E
S1130B20110509F0BEC5C9C50F2EC12CD12CF0E8A2
S1130B30EF2EFFE3FF2EF02D08C00F2EC12CD12C79
S1130B40F0E2EF2EF1E4FF2EF02DBE010D2E000C8D
S1130B50880B990B0E9470179B01AC0160E070E058
S1130B6080E291E40E94C6194B015C012091AC0122
S1130B703091AD014091AE015091AF01C701B60172
S1130B800E9459196B017C01A501940160E070E099
S1130B90CB010E94C2169B01AC01C701B6010E94A1
S1130BA04C166093AC017093AD018093AE019093A9
S1130BB0AF0186C20F2EC12CD12CF0E8EF2EFFE33B
S1130BC0FF2EF02D08C00F2EC12CD12CF0E2EF2EF9
S1130BD0F1E4FF2EF02DBE010D2E000C880B990BB5
S1130BE00E9470179B01AC0160E070E080E291E428
S1130BF00E94C6194B015C012091AC013091AD01FA
S1130C004091AE015091AF01C701B6010E9459193C
S1130C106B017C01A501940160E070E080E89FE332
S1130C200E94C2169B01AC01C701B6010E944C167A
S1130C306093AC017093AD018093AE019093AF01CA
S1130C403FC20F2EC12CD12CF0E8EF2EFFE3FF2E74
S1130C50F02D08C00F2EC12CD12CF0E2EF2EF1E4C0
S1130C60FF2EF02DBE010D2E000C880B990B0E9457
S1130C7070179B01AC0160E070E080E291E40E9497
S1130C80C6194B015C012091AC013091AD0140913A
S1130C90AE015091AF01C701B6010E9459196B0111
S1130CA07C01A501940160E070E080E090E40E9482
S1130CB0C2169B01AC01C701B6010E944C16609399
S1130CC0AC017093AD018093AE019093AF01F8C174
S1130CD00F2EC12CD12CF0E8EF2EFFE3FF2EF02DC8
S1130CE008C00F2EC12CD12CF0E2EF2EF1E4FF2E20
S1130CF0F02DBE010D2E000C880B990B0E9470176D
S1130D009B01AC0160E070E080E291E40E94C619AE
S1130D104B015C012091AC013091AD014091AE01D9
S1130D205091AF01C701B6010E9459196B017C01B2
S1130D30A501940160E070E080E490E40E94C21692
S1130D409B01AC01C701B6010E944C166093AC0133
S1130D507093AD018093AE019093AF01B1C10F2E9A
S1130D60C12CD12CF0E8EF2EFFE3FF2EF02D08C0AC
S1130D700F2EC12CD12CF0E2EF2EF1E4FF2EF02D3A
S1130D80BE010D2E000C880B990B0E9470179B015D
S1130D90AC0160E070E080E291E40E94C6194B016E
S1130DA05C012091AC013091AD014091AE015091B4
S1130DB0AF01C701B6010E9459196B017C01A5015D
S1130DC0940160E070E080E890E40E94C2169B0108
S1130DD0AC01C701B6010E944C166093AC0170933C
S1130DE0AD018093AE019093AF016AC10F2EC12C67
S1130DF0D12CF0E8EF2EFFE3FF2EF02D08C00F2ECC
S1130E00C12CD12CF0E2EF2EF1E4FF2EF02DBE0127
S1130E100D2E000C880B990B0E9470179B01AC01DE
S1130E2060E070E080E291E40E94C6194B015C012D
S1130E302091AC013091AD014091AE015091AF01D0
S1130E40C701B6010E9459196B017C01A5019401E7
S1130E5060E070E080EA90E40E94C2169B01AC015D
S1130E60C701B6010E944C166093AC017093AD01AA
S1130E708093AE019093AF0123C10F2EC12CD12CCE
S1130E80F0E8EF2EFFE3FF2EF02D08C00F2EC12C4B
S1130E90D12CF0E2EF2EF1E4FF2EF02DBE010D2E49
S1130EA0000C880B990B0E9470179B01AC0160E049
S1130EB070E080E291E40E94C6194B015C0120912C
S1130EC0AC013091AD014091AE015091AF01C70129
S1130ED0B6010E9459196B017C01A501940160E0DF
S1130EE070E080EC90E40E94C2169B01AC01C70143
S1130EF0B6010E944C166093AC017093AD018093CF
S1130F00AE019093AF01DCC00F2EC12CD12CF0E8C0
S1130F10EF2EFFE3FF2EF02D08C00F2EC12CD12C95
S1130F20F0E2EF2EF1E4FF2EF02DBE010D2E000CA9
S1130F30880B990B0E9470179B01AC0160E070E074
S1130F4080E291E40E94C6194B015C012091AC013E
S1130F503091AD014091AE015091AF01C701B6018E
S1130F600E9459196B017C01A501940160E070E0B5
S1130F7080EE90E40E94C2169B01AC01C701B60149
S1130F800E944C166093AC017093AD018093AE0146
S1130F909093AF0195C00F2EC12CD12CF0E8EF2E09
S1130FA0FFE3FF2EF02D08C00F2EC12CD12CF0E250
S1130FB0EF2EF1E4FF2EF02DBE010D2E000C880B58
S1130FC0990B0E9470179B01AC0160E070E080E215
S1130FD091E40E94C6194B015C012091AC0130914F
S1130FE0AD014091AE015091AF01C701B6010E941D
S1130FF059196B017C01A501940160E070E080E067
S113100091E40E94C2169B01AC01C701B6010E9483
S11310104C166093AC017093AD018093AE01909334
S1131020AF014EC00F2EC12CD12CF0E8EF2EFFE300
S1131030FF2EF02D08C00F2EC12CD12CF0E2EF2E84
S1131040F1E4FF2EF02DBE010D2E000C880B990B40
S11310500E9470179B01AC0160E070E080E291E4B3
S11310600E94C6194B015C012091AC013091AD0185
S11310704091AE015091AF01C701B6010E945919C8
S11310806B017C01A501940160E070E080E191E4D2
S11310900E94C2169B01AC01C701B6010E944C1606
S11310A06093AC017093AD018093AE019093AF0156
S11310B007C081E090E09093A1018093A00102C059
S11310C0012B29F02196D0939F01C0939E0180E0CB
S11310D090E00E94E80481E090E00E94E8040FC3DD
S11310E00091A0011091A1010115110509F0F1C2AF
S11310F0FBC20F2EC12CD12CF0E8EF2EFFE3FF2E04
S1131100F02D08C00F2EC12CD12CF0E2EF2EF1E40B
S1131110FF2EF02DBE010D2E000C880B990B0E94A2
S113112070179B01AC0160E070E080E291E40E94E2
S1131130C6194B015C012091A8013091A90140918D
S1131140AA015091AB01C701B6010E9459196B0164
S11311507C01A501940160E070E0CB010E94C216FD
S11311609B01AC01C701B6010E944C166093A80113
S11311707093A9018093AA019093AB0186C20F2EAC
S1131180C12CD12CF0E8EF2EFFE3FF2EF02D08C088
S11311900F2EC12CD12CF0E2EF2EF1E4FF2EF02D16
S11311A0BE010D2E000C880B990B0E9470179B0139
S11311B0AC0160E070E080E291E40E94C6194B014A
S11311C05C012091A8013091A9014091AA0150919C
S11311D0AB01C701B6010E9459196B017C01A5013D
S11311E0940160E070E080E89FE30E94C2169B01D6
S11311F0AC01C701B6010E944C166093A80170931C
S1131200A9018093AA019093AB013FC20F2EC12C78
S1131210D12CF0E8EF2EFFE3FF2EF02D08C00F2EA7
S1131220C12CD12CF0E2EF2EF1E4FF2EF02DBE0103
S11312300D2E000C880B990B0E9470179B01AC01BA
S113124060E070E080E291E40E94C6194B015C0109
S11312502091A8013091A9014091AA015091AB01BC
S1131260C701B6010E9459196B017C01A5019401C3
S113127060E070E080E090E40E94C2169B01AC0143
S1131280C701B6010E944C166093A8017093A9018E
S11312908093AA019093AB01F8C10F2EC12CD12CDD
S11312A0F0E8EF2EFFE3FF2EF02D08C00F2EC12C27
S11312B0D12CF0E2EF2EF1E4FF2EF02DBE010D2E25
S11312C0000C880B990B0E9470179B01AC0160E025
S11312D070E080E291E40E94C6194B015C01209108
S11312E0A8013091A9014091AA015091AB01C70115
S11312F0B6010E9459196B017C01A501940160E0BB
S113130070E080E490E40E94C2169B01AC01C70126
S1131310B6010E944C166093A8017093A9018093B2
S1131320AA019093AB01B1C10F2EC12CD12CF0E8CE
S1131330EF2EFFE3FF2EF02D08C00F2EC12CD12C71
S1131340F0E2EF2EF1E4FF2EF02DBE010D2E000C85
S1131350880B990B0E9470179B01AC0160E070E050
S113136080E291E40E94C6194B015C012091A8011E
S11313703091A9014091AA015091AB01C701B60176
S11313800E9459196B017C01A501940160E070E091
S113139080E890E40E94C2169B01AC01C701B6012B
S11313A00E944C166093A8017093A9018093AA012E
S11313B09093AB016AC10F2EC12CD12CF0E8EF2E13
S11313C0FFE3FF2EF02D08C00F2EC12CD12CF0E22C
S11313D0EF2EF1E4FF2EF02DBE010D2E000C880B34
S11313E0990B0E9470179B01AC0160E070E080E2F1
S11313F091E40E94C6194B015C012091A80130912F
S1131400A9014091AA015091AB01C701B6010E9404
S113141059196B017C01A501940160E070E080EA38
S113142090E40E94C2169B01AC01C701B6010E9460
S11314304C166093A8017093A9018093AA0190931C
S1131440AB0123C10F2EC12CD12CF0E8EF2EFFE30A
S1131450FF2EF02D08C00F2EC12CD12CF0E2EF2E60
S1131460F1E4FF2EF02DBE010D2E000C880B990B1C
S11314700E9470179B01AC0160E070E080E291E48F
S11314800E94C6194B015C012091A8013091A90169
S11314904091AA015091AB01C701B6010E945919AC
S11314A06B017C01A501940160E070E080EC90E4A4
S11314B00E94C2169B01AC01C701B6010E944C16E2
S11314C06093A8017093A9018093AA019093AB0142
S11314D0DCC00F2EC12CD12CF0E8EF2EFFE3FF2E41
S11314E0F02D08C00F2EC12CD12CF0E2EF2EF1E428
S11314F0FF2EF02DBE010D2E000C880B990B0E94BF
S113150070179B01AC0160E070E080E291E40E94FE
S1131510C6194B015C012091A8013091A9014091A9
S1131520AA015091AB01C701B6010E9459196B0180
S11315307C01A501940160E070E080EE90E40E94DB
S1131540C2169B01AC01C701B6010E944C16609300
S1131550A8017093A9018093AA019093AB0195C04F
S11315600F2EC12CD12CF0E8EF2EFFE3FF2EF02D2F
S113157008C00F2EC12CD12CF0E2EF2EF1E4FF2E87
S1131580F02DBE010D2E000C880B990B0E947017D4
S11315909B01AC0160E070E080E291E40E94C61916
S11315A04B015C012091A8013091A9014091AA014D
S11315B05091AB01C701B6010E9459196B017C011E
S11315C0A501940160E070E080E091E40E94C216FD
S11315D09B01AC01C701B6010E944C166093A8019F
S11315E07093A9018093AA019093AB014EC00F2E72
S11315F0C12CD12CF0E8EF2EFFE3FF2EF02D08C014
S11316000F2EC12CD12CF0E2EF2EF1E4FF2EF02DA1
S1131610BE010D2E000C880B990B0E9470179B01C4
S1131620AC0160E070E080E291E40E94C6194B01D5
S11316305C012091A8013091A9014091AA01509127
S1131640AB01C701B6010E9459196B017C01A501C8
S1131650940160E070E080E191E40E94C2169B0175
S1131660AC01C701B6010E944C166093A8017093A7
S1131670A9018093AA019093AB0107C081E090E097
S11316809093A1018093A00102C0012B29F021961F
S1131690D0939F01C0939E0182E090E00E94E804F1
S11316A02EC0862F90E0FC01BE97EC30F10508F0C7
S11316B009CDE55CFF4F0C94B21A862F90E0FC0133
S11316C0BE97EC30F10508F002CDE95BFF4F0C94B6
S11316D0B21A862F90E0FC01BE97EC30F105B8F603
S11316E0ED5AFF4F0C94B21A862F90E0FC01BE977E
S11316F0EC30F10588F6E15AFF4F0C94B21ADF91F1
S1131700CF911F910F91FF90EF90DF90CF90BF90FA
S1131710AF909F908F900895CF93C42F842F90E023
S1131720FC01E356F109E631F10508F09FC0E559E3
S1131730FF4F0C94B21A6091AC017091AD0180918D
S1131740AE019091AF010E94241A6093AC01709392
S1131750AD018093AE019093AF0188C06091AC015C
S11317607091AD018091AE019091AF010E94DD189E
S11317706093AC017093AD018093AE019093AF017F
S113178075C06091AC017091AD018091AE019091F2
S1131790AF010E943C176093AC017093AD0180933C
S11317A0AE019093AF0162C06091AC017091AD0144
S11317B08091AE019091AF010E94161A6093AC0122
S11317C07093AD018093AE019093AF014FC06091CF
S11317D0AC017091AD018091AE019091AF010E9476
S11317E0BD166093AC017093AD018093AE019093EC
S11317F0AF013CC06091AC017091AD018091AE012C
S11318009091AF010E94641A6093AC017093AD0192
S11318108093AE019093AF0129C06091AC017091A7
S1131820AD018091AE019091AF010E94CD186093FB
S1131830AC017093AD018093AE019093AF0116C0DB
S11318402091AC013091AD014091AE015091AF01B6
S113185060E070E080E89FE30E94C2166093AC01F0
S11318607093AD018093AE019093AF011092A801E3
S11318701092A9011092AA011092AB01C093030126
S113188083E090E00E94E80484E090E00E94E80491
S1131890CF9108950F930D3249F130F40A3209F4CF
S11318A040C00B3241F08DC00F3209F455C00E35E3
S11318B009F46DC086C02091A8013091A90140911E
S11318C0AA015091AB016091AC017091AD0180917E
S11318D0AE019091AF010E944C166093AC017093DD
S11318E0AD018093AE019093AF016BC02091A8012C
S11318F03091A9014091AA015091AB016091AC01D2
S11319007091AD018091AE019091AF010E944B1690
S11319106093AC017093AD018093AE019093AF01DD
S113192050C02091A8013091A9014091AA01509181
S1131930AB016091AC017091AD018091AE019091C9
S1131940AF010E9459196093AC017093AD0180936B
S1131950AE019093AF0135C02091A8013091A90147
S11319604091AA015091AB016091AC017091AD011D
S11319708091AE019091AF010E94C2166093AC01B8
S11319807093AD018093AE019093AF011AC0209182
S1131990A8013091A9014091AA015091AB01609135
S11319A0AC017091AD018091AE019091AF010E94A4
S11319B0C6196093AC017093AD018093AE0190930E
S11319C0AF011092A8011092A9011092AA011092DD
S11319D0AB0184E090E00E94E8040F9108950F9316
S11319E0CF93C82F80919C0190919D01892B39F050
S11319F084E090E09093A3018093A20112C58091AA
S1131A00A2019091A3018230910509F40DC230F432
S1131A10009761F0019709F43AC14DC583309105EF
S1131A2009F4B8C3049709F046C5FBC480ED8C0FD4
S1131A308A3010F0CE3251F46C2F81E090E00E9495
S1131A4074051092A3011092A20135C58C2F8D7FCD
S1131A508D3231F086ED8C0F823010F0CE3569F482
S1131A60C093030181E090E09093A3018093A201CD
S1131A7083E090E00E94E8041EC5C13771F0CC36C3
S1131A8061F0C53651F08DE88C0F823030F08C2F28
S1131A908B7F833611F0C83791F46091AC0170915B
S1131AA0AD018091AE019091AF014C2F0E948C0B3F
S1131AB083E090E09093A3018093A201FCC4C63616
S1131AC009F4DAC038F4C13609F4B5C0C43609F4EF
S1131AD04CC0F1C4CE3609F47BC0C03721F0CD36FA
S1131AE009F0E9C41BC080E090E0A0E4B0E4809376
S1131AF0AC019093AD01A093AE01B093AF0183E02C
S1131B0090E09093A3018093A20180E090E00E9472
S1131B10E80481E090E00E94E804CDC48091A4012F
S1131B209091A501A091A601B091A7018093AC0169
S1131B309093AD01A093AE01B093AF011092A801B0
S1131B401092A9011092AA011092AB0183E090E0D7
S1131B509093A3018093A20180E090E00E94E804A6
S1131B6081E090E00E94E804A6C42091AC01309189
S1131B70AD014091AE015091AF016091A40170910B
S1131B80A5018091A6019091A7010E944C16609333
S1131B90A4017093A5018093A6019093A7011092CC
S1131BA0AC011092AD011092AE011092AF011092EF
S1131BB0A8011092A9011092AA011092AB011092EF
S1131BC0A3011092A20180E090E00E94E80473C493
S1131BD02091AC013091AD014091AE015091AF0123
S1131BE06091A4017091A5018091A6019091A70133
S1131BF00E944B166093A4017093A5018093A601E3
S1131C009093A7011092AC011092AD011092AE0115
S1131C101092AF011092A8011092A9011092AA018A
S1131C201092AB011092A3011092A20180E090E007
S1131C300E94E80440C41092A4011092A5011092DD
S1131C40A6011092A7011092AC011092AD0110925E
S1131C50AE011092AF011092A8011092A901109246
S1131C60AA011092AB011092A3011092A20180E08C
S1131C7090E00E94E8041FC485E090E00E94E8041C
S1131C8084E090E09093A3018093A20114C4109285
S1131C90A1011092A00110929F0110929E0180ED6B
S1131CA08C0F8A3010F0CE32A1F41092A801109259
S1131CB0A9011092AA011092AB016C2F82E090E06E
S1131CC00E94740582E090E09093A3018093A201A6
S1131CD0F2C38C2F8D7F8D3231F086ED8C0F8230E4
S1131CE010F0CE3569F4C093030181E090E0909345
S1131CF0A3018093A20183E090E00E94E804DBC387
S1131D00C13781F084E98C0F833060F08DE88C0F4B
S1131D10823040F08DE98C0F833020F0C73611F00B
S1131D20C83779F484E090E09093A3018093A201F2
S1131D3080E090E00E94E80486E090E00E94E804DD
S1131D40BAC3C13691F120F4CD3309F44FC0B3C303
S1131D50C63609F45EC0C03709F0ADC380E090E038
S1131D60A0E4B0E48093A8019093A901A093AA01F0
S1131D70B093AB016091AC017091AD018091AE0163
S1131D809091AF010091030120E030E040E450E481
S1131D900E944A0C83E090E09093A3018093A201F7
S1131DA082E090E00E94E80486C31092A40110929D
S1131DB0A5011092A6011092A7011092AC011092F5
S1131DC0AD011092AE011092AF011092A8011092D1
S1131DD0A9011092AA011092AB011092A3011092D2
S1131DE0A20180E090E00E94E80465C36091AC0128
S1131DF07091AD018091AE019091AF01009103010A
S1131E009B01AC010E944A0C1092A3011092A20102
S1131E1052C385E090E00E94E80484E090E090934F
S1131E20A3018093A20147C380ED8C0F8A3010F088
S1131E30CE3261F46C2F82E090E00E94740582E05F
S1131E4090E09093A3018093A20135C38C2F8D7FE2
S1131E508D3231F086ED8C0F823010F0CE3549F59D
S1131E602091A8013091A9014091AA015091AB01A0
S1131E706091AC017091AD018091AE019091AF0180
S1131E80009103010E944A0C81E090E09093A30129
S1131E908093A201C093030180E090E00E94E804D3
S1131EA081E090E00E94E80483E090E00E94E8046E
S1131EB002C3C13771F0CC3661F0C53651F08DE8FC
S1131EC08C0F823030F08C2F8B7F833611F0C83723
S1131ED031F52091A8013091A9014091AA015091B6
S1131EE0AB016091AC017091AD018091AE01909114
S1131EF0AF01009103010E944A0C6091AC01709102
S1131F00AD018091AE019091AF014C2F0E948C0BDA
S1131F1083E090E09093A3018093A201CCC28C2F24
S1131F2090E0FC01FD97E433F10508F0C4C2EF57DB
S1131F30FF4F0C94B21A80E090E0A0E4B0E48093E8
S1131F40A8019093A901A093AA01B093AB01609159
S1131F50AC017091AD018091AE019091AF010091FF
S1131F60030120E030E040E450E40E944A0C83E0A6
S1131F7090E09093A3018093A20182E090E00E94FC
S1131F80E80499C21092A4011092A5011092A6012E
S1131F901092A7011092AC011092AD011092AE0103
S1131FA01092AF011092A8011092A9011092AA01F7
S1131FB01092AB011092A1011092A00110929F0106
S1131FC010929E011092A3011092A20180E090E071
S1131FD00E94E80470C22091A8013091A9014091A7
S1131FE0AA015091AB016091AC017091AD01809157
S1131FF0AE019091AF01009103010E944A0C83E06D
S113200090E09093A3018093A20182E090E00E946B
S1132010E80451C28091A4019091A501A091A60168
S1132020B091A7018093AC019093AD01A093AE0150
S1132030B093AF011092A8011092A9011092AA01C5
S11320401092AB0183E090E09093A3018093A201EE
S113205080E090E00E94E80481E090E00E94E804BF
S11320602AC22091A8013091A9014091AA0150915E
S1132070AB016091AC017091AD018091AE01909182
S1132080AF01009103010E944A0C2091AC013091F0
S1132090AD014091AE015091AF016091A4017091E6
S11320A0A5018091A6019091A7010E944C1660930E
S11320B0A4017093A5018093A6019093A7011092A7
S11320C0AC011092AD011092AE011092AF011092CA
S11320D0A8011092A9011092AA011092AB011092CA
S11320E0A3011092A20180E090E00E94E804E3C101
S11320F02091A8013091A9014091AA015091AB010E
S11321006091AC017091AD018091AE019091AF01ED
S1132110009103010E944A0C2091AC013091AD0161
S11321204091AE015091AF016091A4017091A5015D
S11321308091A6019091A7010E944B166093A4017F
S11321407093A5018093A6019093A7011092AC010E
S11321501092AD011092AE011092AF011092A8013D
S11321601092A9011092AA011092AB011092A3013E
S11321701092A20180E090E00E94E8049CC185E0F6
S113218090E00E94E80484E090E09093A30180939F
S1132190A20191C11092A1011092A00110929F017D
S11321A010929E0180ED8C0F8A3010F0CE3291F4A3
S11321B01092AC011092AD011092AE011092AF01D9
S11321C06C2F81E090E00E9474051092A30110929C
S11321D0A20171C18C2F8D7F8D3231F086ED8C0F71
S11321E0823010F0CE3599F4C093030180E090E082
S11321F00E94E80481E090E09093A3018093A201FF
S11322000E94E80483E090E00E94E80454C1C137CE
S113221071F0CC3661F0C53651F08DE88C0F823008
S113222030F08C2F8B7F833611F0C83791F4609196
S1132230AC017091AD018091AE019091AF014C2F32
S11322400E948C0B83E090E09093A3018093A20101
S113225032C1C63609F4DAC038F4C13609F4B5C05F
S1132260C43609F44CC027C1CE3609F47BC0C0374C
S113227021F0CD3609F01FC11BC080E090E0A0E43E
S1132280B0E48093AC019093AD01A093AE01B09300
S1132290AF0183E090E09093A3018093A20180E0DA
S11322A090E00E94E80481E090E00E94E80403C109
S11322B08091A4019091A501A091A601B091A701DC
S11322C08093AC019093AD01A093AE01B093AF01A4
S11322D01092A8011092A9011092AA011092AB01C8
S11322E083E090E09093A3018093A20180E090E0CA
S11322F00E94E80481E090E00E94E804DCC02091A0
S1132300AC013091AD014091AE015091AF016091AB
S1132310A4017091A5018091A6019091A7010E944A
S11323204C166093A4017093A5018093A601909329
S1132330A7011092AC011092AD011092AE0110925F
S1132340AF011092A8011092A9011092AA01109253
S1132350AB011092A3011092A20180E090E00E94D0
S1132360E804A9C02091AC013091AD014091AE01C7
S11323705091AF016091A4017091A5018091A601D3
S11323809091A7010E944B166093A4017093A5013C
S11323908093A6019093A7011092AC011092AD0115
S11323A01092AE011092AF011092A8011092A901EF
S11323B01092AA011092AB011092A3011092A201F3
S11323C080E090E00E94E80476C01092A40110928C
S11323D0A5011092A6011092A7011092AC011092CF
S11323E0AD011092AE011092AF011092A8011092AB
S11323F0A9011092AA011092AB011092A3011092AC
S1132400A20180E090E00E94E80455C085E090E0DD
S11324100E94E80484E090E09093A3018093A201D9
S11324204AC0CF3669F51092A4011092A50110920A
S1132430A6011092A7011092AC011092AD01109266
S1132440AE011092AF011092A8011092A90110924E
S1132450AA011092AB011092A3011092A201109252
S1132460A1011092A00110929F0110929E0180E0A0
S113247090E00E94E80410929D0110929C011BC000
S1132480C63659F485E090E00E94E80484E090E0C8
S11324909093A3018093A2010EC080E090E00E947B
S11324A0E80486E090E00E94E80484E090E09093E1
S11324B0A3018093A201CF910F910895FF920F93EE
S11324C01F93CF93DF93CDB7DEB7A2970FB6F894DF
S11324D0DEBF0FBECDBF80E2E4E0F1E0DE01119685
S11324E001900D928A95E1F7E0917201F0917301E8
S11324F081E090E08C0F9D1FE80FF91FF0808F2D75
S113250090E00E94EF0C809173018F93809172018F
S11325108F9384E691E09F938F938E010F5D1F4FFD
S11325201F930F930E94DF1AC8010E94311687E699
S113253091E00E9431168F2D0E9429168AE00E9494
S113254029160F900F900F900F900F900F90A29656
S11325500FB6F894DEBF0FBECDBFDF91CF911F91B0
S11325600F91FF9008951F920F920FB60F921124AE
S11325702F933F934F935F936F937F938F939F9387
S1132580AF93BF93EF93FF9380916E0190916F018E
S1132590892BE9F54C9909C08091700190917101E2
S11325A0909373018093720123C04D990AC0809166
S11325B0700190917101019690937301809372015F
S11325C017C04E990AC080917001909171010296D2
S11325D090937301809372010BC04F9909C080914D
S11325E0700190917101039690937301809372012D
S11325F081E090E090936F0180936E0182E390E01C
S113260090930101809300010E945E1206C082E350
S113261090E09093010180930001FF91EF91BF91AD
S1132620AF919F918F917F916F915F914F913F9166
S11326302F910F900FBE0F901F9018951F920F921D
S11326400FB60F9211242F933F934F935F936F9381
S11326507F938F939F93AF93BF93EF93FF93809157
S11326606E0190916F01892BF1F532990AC0809126
S1132670700190917101049690937301809372019B
S113268023C033990AC0809170019091710105961D
S1132690909373018093720117C034990AC080919A
S11326A07001909171010696909373018093720169
S11326B00BC0359909C08091700190917101079602
S11326C0909373018093720181E090E090936F0185
S11326D080936E0182E390E0909301018093000166
S11326E00E945E1206C082E390E090930101809301
S11326F00001FF91EF91BF91AF919F918F917F91D5
S11327006F915F914F913F912F910F900FBE0F905A
S11327101F901895289A209A8FE493EC0197F1F76B
S113272000C0000028988FE493EC0197F1F700C0F3
S11327300000289A089584B18E6284B9249885B1E2
S1132740846185B98CB580658CBD8DB581608DBD86
S113275008952A9829988EBD0DB407FEFDCF2A9AB4
S11327608EB508952A98299A8EBD0DB407FEFDCF23
S11327702A9A8EB508952A98299A9EBD0DB407FE0B
S1132780FDCF8EBD0DB407FEFDCF2A9A8EB50895F8
S11327900F931F93CF93DF938C01EB018CE20E9484
S11327A0A913209729F0C8010E94BB132197D9F7D8
S11327B0DF91CF911F910F9108950F931F93CF93A2
S11327C0DF93681750F1623A50F5241750F124381A
S11327D050F5122F042FC62FD82F8AE20E94A91376
S11327E080E00E94B2138D2F0E94B21380E00E94F9
S11327F0B2138C2F0E94B2138BE20E94A91380E0C3
S11328000E94B213802F0E94B21380E00E94B21380
S1132810812F0E94B21381E007C080E005C080E0F0
S113282003C080E001C080E0DF91CF911F910F9140
S113283008958D3990F06D37E0F46C3770F470E0E2
S1132840685F7F4F7093B3016093B20190E09093FF
S1132850B1018093B00181E0089570E07093B301F9
S11328606093B20190E09093B1018093B00181E054
S1132870089580E00895CF93DF93EA01262F462F31
S1132880682F0E94DD1361E070E0CE010E94C8133E
S1132890DF91CF9108954F925F927F928F929F9292
S11328A0AF92BF92CF92DF92EF92FF921F93CF939A
S11328B0DF932B01411134C06894992492F8C82FF6
S11328C0D0E0CE018097EC01CC0FDD1FCC0FDD1FD3
S11328D0C80FD91F0F2EF2EBCF2EF1E0DF2EF02D13
S11328E00F2EF0EBEF2EF1E0FF2EF02DFE01E90D9F
S11328F0F11DE85DFC4FB49017E0BB204CF4F601E9
S11329006081610FF7018081A201890D0E943B144F
S1132910BB0C115090F79A94FFEF9F12E7CF9CC025
S1132920413009F040C06894992492F8E82EF12CC3
S1132930C70180977C01EE0CFF1CEE0CFF1CE80E17
S1132940F91E0F2EF2EBAF2EF1E0BF2EF02D0F2E5D
S1132950F0EBCF2EF1E0DF2EF02DF701E90DF11DA4
S1132960E85DFC4F8490C7E08820ACF4F5016081F9
S1132970DC2FDD0F6D0FF6018081A201890D0E940D
S11329803B14F50160816F5F6D0FF6018081A20138
S1132990890D0E943B14880CC15030F79A94FFEFC4
S11329A09F12DBCF59C04A3009F056C06894EE2418
S11329B0E2F8C82ED12CC60180976C01CC0CDD1C2A
S11329C0CC0CDD1CC80ED91E0F2EF2EB8F2EF1E0BD
S11329D09F2EF02D0F2EF0EBAF2EF1E0BF2EF02D39
S11329E0F601EE0DF11DE85DFC4FC4917E2C770CD1
S11329F0D7E0CC2354F5F4016081FD2EFF0C6F0D5C
S1132A00F5018081A201870D0E943B14F4016081CD
S1132A106F5F6F0DF5018081A201870D0E943B1449
S1132A20F40160816F0DF50180818F5FA201870D34
S1132A300E943B14F40160816F5F6F0DF50180818A
S1132A408F5FA201870D0E943B14CC0FD15088F6F2
S1132A50EA94FFEFEF12C4CF80E0DF91CF911F9192
S1132A60FF90EF90DF90CF90BF90AF909F908F90AA
S1132A707F905F904F9008959F92AF92BF92CF92B4
S1132A80DF92EF92FF920F931F93CF93DF93EC01AA
S1132A908881882321F1A42E8B01942E9694B12C45
S1132AA00F2EF2EBCF2EF1E0DF2EF02D0F2EF0EBF8
S1132AB0EF2EF1E0FF2EF02DB3944A2DB8010E94C1
S1132AC04B14F70180818A5FF6016081890D0E94B1
S1132AD01914FE01EB0DF11D80818111EDCFDF9101
S1132AE0CF911F910F91FF90EF90DF90CF90BF9007
S1132AF0AF909F900895CF93DF93EC0123E840E0DB
S1132B0061EA80E00E94DD1368E873E5CE010E946B
S1132B10C813DF91CF91089589E20E94A913089503
S1132B20882341F0EFE9FFE03197F1F700C000009E
S1132B308150C1F70895CF92DF92EF92FF920F93E5
S1132B401F93CF93DF937C012FEFE21AF20AFC016B
S1132B50D4902DC0F70184910E94A913F7013196F6
S1132B60E491F2E0EF0EF11C2E2F2078C22EEF77C5
S1132B708FEF8E0FEE2389F03E2D2F2D90E00196DE
S1132B80E80EF91E8701C32FD22FFE0184910E9403
S1132B90B2132196C017D107C1F7CC2039F0E70151
S1132BA02196F70184910E9490157E01DA94D11048
S1132BB0D1CFDF91CF911F910F91FF90EF90DF90D4
S1132BC0CF9008950E948A130E949B1388E095E099
S1132BD00E949B15089587B1836087B98AB18C6080
S1132BE08AB987B1837C87B98AB18F708AB988B171
S1132BF08C6388B98BB1806F8BB988B1836088B9D5
S1132C008BB18C608BB9ECE6F0E080818C638083BF
S1132C10EDE6F0E08081806F8083E8E6F0E080817B
S1132C2086608083A0EBB0E01C92E1EBF0E01082C0
S1132C301092B2008CE78093B3008C9182608C93E5
S1132C40808185608083E0E7F0E08081826080831A
S1132C500895E0ECF0E0908195FFFDCF8093C600ED
S1132C600895CF93DF93EC018881882331F0219676
S1132C700E94291689918111FBCFDF91CF9108958C
S1132C809093C5008093C40088E18093C10086E0DE
S1132C908093C20008955058BB27AA270E94631648
S1132CA00C9438180E94FF1738F00E94061820F080
S1132CB039F49F3F19F426F40C94D5170EF4E095DB
S1132CC0E7FB0C94CF17E92F0E945D1858F3BA174D
S1132CD0620773078407950720F079F4A6F50C942E
S1132CE07F180EF4E0950B2EBA2FA02D0B01B9011D
S1132CF090010C01CA01A0011124FF27591B99F06E
S1132D00593F50F4503E68F11A16F040A22F232F79
S1132D10342F4427585FF3CF469537952795A795C9
S1132D20F0405395C9F77EF41F16BA0B620B730B70
S1132D30840BBAF09150A1F0FF0FBB1F661F771FE1
S1132D40881FC2F70EC0BA0F621F731F841F48F496
S1132D50879577956795B795F7959E3F08F0B0CF1F
S1132D609395880F08F09927EE0F97958795089506
S1132D700E94AB1708F481E008950E940F18E395B0
S1132D800C9449180E94D6160C9438180E94061800
S1132D9058F00E94FF1740F029F45F3F29F00C948B
S1132DA0CF1751110C9480180C94D5170E945D18FC
S1132DB068F39923B1F3552391F3951B550BBB2766
S1132DC0AA2762177307840738F09F5F5F4F220FAB
S1132DD0331F441FAA1FA9F335D00E2E3AF0E0E8A2
S1132DE032D091505040E695001CCAF72BD0FE2FEC
S1132DF029D0660F771F881FBB1F26173707480780
S1132E00AB07B0E809F0BB0B802DBF01FF27935837
S1132E105F4F3AF09E3F510578F00C94CF170C9415
S1132E2080185F3FE4F3983ED4F3869577956795D1
S1132E30B795F7959F5FC9F7880F911D969587956C
S1132E4097F90895E1E0660F771F881FBB1F62178B
S1132E5073078407BA0720F0621B730B840BBA0B49
S1132E60EE1F88F7E095089529F416F00C94CF1717
S1132E700C947F180C94D5170E946518A8F3963803
S1132E80A0F707F80F92E8942BE33AEA48EB5FE7E0
S1132E900E946F190F920F920F924DB75EB70F9267
S1132EA00E942519EAE6F1E00E94D8174F915F913C
S1132EB0EF91FF91E595EE1FFF1F49F0FE57E06883
S1132EC04427EE0F441FFA95E1F74195550B0E94F4
S1132ED097180F9007FE0C948B180895E89409C076
S1132EE097FB3EF490958095709561957F4F8F4F39
S1132EF09F4F9923A9F0F92F96E9BB279395F6954F
S1132F00879577956795B795F111F8CFFAF4BB0FCC
S1132F1011F460FF1BC06F5F7F4F8F4F9F4F16C030
S1132F20882311F096E911C0772321F09EE8872FBA
S1132F30762F05C0662371F096E8862F70E060E076
S1132F402AF09A95660F771F881FDAF7880F9695EF
S1132F50879597F90895990F0008550FAA0BE0E893
S1132F60FEEF16161706E807F907C0F01216130647
S1132F70E407F50798F0621B730B840B950B39F487
S1132F800A2661F0232B242B252B21F408950A26ED
S1132F9009F4A140A6958FEF811D811D089597F92D
S1132FA09F6780E870E060E008959FEF80EC0895EB
S1132FB0DF93CF931F930F93FF92EF92DF927B01E6
S1132FC08C01689406C0DA2EEF010E946C19FE0190
S1132FD0E894A5912591359145915591A6F3EF017A
S1132FE00E946316FE019701A801DA9469F7DF9045
S1132FF0EF90FF900F911F91CF91DF9108950024DE
S11330000A941616170618060906089500240A9449
S1133010121613061406050608950C94D5170E947B
S11330206518D8F3E894E0E0BB279F57F0F02AED49
S11330303FE049EC06C0EE0FBB0F661F771F881FE9
S113304028F0B23A62077307840728F0B25A620B79
S1133050730B840BE3959A9572F7803830F49A9544
S1133060BB0F661F771F881FD2F790480C948B1AEA
S1133070092E0394000C11F4882352F0BB0F40F482
S1133080BF2B11F460FF04C06F5F7F4F8F4F9F4FC2
S11330900895EF93E0FF07C0A2EA2AED3FE049EC70
S11330A05FEB0E9463160E9438180F90039401FC92
S11330B09058E2E9F1E00C949E1A57FD9058440FA1
S11330C0551F59F05F3F71F04795880F97FB991F83
S11330D061F09F3F79F08795089512161306140640
S11330E0551FF2CF4695F1DF08C0161617061806CD
S11330F0991FF1CF86957105610508940895E894A8
S1133100BB2766277727CB0197F908950E94AB1751
S113311008F48FEF08959B01AC0160E070E080E853
S11331209FE30C94C2160C94CF170C94891A0E9436
S11331306518D8F39923C9F3940F511DA3F3915043
S1133140504094F059F0882332F0660F771F881F9F
S113315091505040C1F79E3F51052CF7880F911DA7
S11331609695879597F908955F3FACF0983E9CF04B
S1133170BB27869577956795B79508F4B1609395C5
S1133180C1F7BB0F58F711F460FFE8CF6F5F7F4FB3
S11331908F4F9F4FE3CF0C9480180E94DD1829EDC8
S11331A03BE54EED5EE30C94591916F00C94891A24
S11331B00C94D51768940C94CF170E946518A8F343
S11331C09923C1F3AEF3DF93CF931F930F93FF9231
S11331D0C92FDD2788232AF02197660F771F881FC0
S11331E0DAF720E030E040E85FEB9FE3883920F035
S11331F0803E38F021968F770E944C16E0EBF1E088
S113320004C00E944C16EDEDF1E00E94D8178B012A
S1133210BE01EC01FB2E6F5771097595771F880B62
S1133220990B0E94701728E132E741E35FE30E94A3
S11332306C19AF2D9801AE01FF900F911F91CF91A2
S1133240DF910E9463160C943818FA01DC01AA0F6E
S1133250BB1F9B01AC01BF5728F422273327442707
S1133260507820C0B75190F4AB2F00244695379581
S11332702795011CA395D2F3002071F0220F331F70
S1133280441FB395DAF30ED00C944B1661307105DC
S1133290A0E88A07B94630F49B01AC01662777277A
S11332A088279078309621F020833183428353839A
S11332B008950E946C190C9438180E94FF1738F076
S11332C00E94061820F0952311F00C94CF170C944B
S11332D0D51711240C9480180E945D1870F3959FE3
S11332E0C1F3950F50E0551F629FF001729FBB27F9
S11332F0F00DB11D639FAA27F00DB11DAA1F649F95
S11333006627B00DA11D661F829F2227B00DA11D47
S1133310621F739FB00DA11D621F839FA00D611DCD
S1133320221F749F3327A00D611D231F849F600DEE
S1133330211D822F762F6A2F11249F5750409AF017
S1133340F1F088234AF0EE0FFF1FBB1F661F771FA3
S1133350881F91505040A9F79E3F510580F00C946E
S1133360CF170C9480185F3FE4F3983ED4F386950E
S113337077956795B795F795E7959F5FC1F7FE2B0E
S1133380880F911D9695879597F90895FA01EE0F88
S1133390FF1F309621053105A1F16115710561F416
S11333A08038BFE39B0749F168949038810561F048
S11333B08038BFEF9B0741F099234AF5FF3FE105B1
S11333C03105210519F1E8940894E795D901AA2358
S11333D029F4AB2FBE2FF85FD0F310C0FF5F70F459
S11333E0A695E0F7F73950F019F0FF3A38F49F77D3
S11333F09F930DD00F9007FC9058089546F00C94BD
S1133400D51760E070E080E89FE308954FE79F7769
S11334105F934F933F932F930E94DD182F913F9119
S11334204F915F910E9459190C943C179F930E94ED
S11334300F180F9007FCEE5F0C94491819F416F45A
S11334400C94D5170C94891A0E946518B8F3992323
S1133450C9F3B6F39F57550B87FF0E94971A0024B0
S1133460A0E640EA900180585695979528F4805C30
S1133470660F771F881F20F026173707480730F498
S1133480621B730B840B202931294A2BA6951794B0
S11334900794202531254A2758F7660F771F881F80
S11334A020F026173707480730F4620B730B840BA0
S11334B0200D311D411DA09581F7B901842F91582C
S11334C0880F969587950895DF93D92F0E940F183A
S11334D0E695D7952AED3FE049E45FE3B33A620706
S11334E0730784079507D7953AF0A2EA49EC9068E8
S11334F00E9463160E943818EAE0F2E00E949E1AC5
S1133500DD0F13F00E948B18DD0F0BF49058DF9140
S113351008959F3F31F0915020F4879577956795F2
S1133520B795880F911D9695879597F908959150B1
S11335305040660F771F881FD2F708959F938F938B
S11335407F936F93FF93EF939B01AC010E945919F2
S1133550EF91FF910E94D8172F913F914F915F9166
S11335600C945919EE0FFF1F0590F491E02D099466
S1133570EF920F931F93CF93DF93E80147FD02C0AF
S113358034E001C034E1042E000C550B57FF03C096
S1133590519541955109E32E022F242FAE010E942B
S11335A0E21CCE01DF91CF911F910F91EF9008950E
S11335B0FB01DC0101900D920020E1F70895AEE0DB
S11335C0B0E0E5EEFAE10C94D21F0D891E8986E085
S11335D08C831A8309838FEF9FE79E838D83AE01CB
S11335E0475E5F4F6F89788DCE0101960E94011B63
S11335F0EF81F885E00FF11F10822E96E4E00C9421
S1133600EE1FABE0B0E0E7E0FBE10C94C41F6C01FB
S11336107B018A01FC0117821682838181FFCCC160
S1133620CE0101963C01F6019381F70193FD85914A
S113363093FF81917F01882309F4BAC1853239F45B
S113364093FD859193FF81917F01853229F4B60121
S113365090E00E942A1FE7CF912C212C312CFFE10E
S1133660F315D8F08B3279F038F4803279F0833264
S1133670A1F4232D20611DC08D3261F0803369F4E3
S1133680232D216016C0832D8260382EE32DE46043
S11336903E2E2AC0F32DF8601DC037FC2DC020ED4E
S11336A0280F2A3040F08E32B9F436FC81C1232D24
S11336B02064322E19C036FE06C08AE0989E200D82
S11336C01124922E11C0EAE02E9E200D1124222EE8
S11336D0F32DF0623F2E08C08C3621F4832D8068D0
S11336E0382E02C0883641F4F70193FD859193FF8B
S11336F081917F018111B3CF982F9F7D9554933091
S113370028F40C5F1F4F9FE399830DC0833631F07B
S1133710833771F0833509F059C021C0F8018081E5
S113372089830E5F1F4F88248394912C530113C007
S11337302801F2E04F0E511CF801A080B18036FE42
S113374003C0692D70E002C06FEF7FEFC5010E94D6
S11337501F1F4C018201F32DFF773F2E16C0280155
S113376022E0420E511CF801A080B18036FE03C055
S1133770692D70E002C06FEF7FEFC5010E94141F36
S11337804C01F32DF0683F2E820133FC1BC0822DC7
S113379090E088169906B0F4B60180E290E00E94A9
S11337A02A1F2A94F4CFF50137FC859137FE8191C5
S11337B05F01B60190E00E942A1F21102A9421E0A3
S11337C0821A91088114910471F7E8C0843611F0CB
S11337D0893641F5F80137FE07C060817181828125
S11337E093810C5F1F4F08C060817181072E000C0C
S11337F0880B990B0E5F1F4FF32DFF763F2E97FF1B
S113380009C090958095709561957F4F8F4F9F4F1C
S1133810F0683F2E2AE030E0A3010E94661F882E44
S1133820861845C0853731F4232D2F7EB22E2AE029
S113383030E025C0932D997FB92E8F36C1F018F44E
S1133840883579F0B5C0803719F0883721F0B0C0D9
S1133850E92FE061BE2EB4FE0DC0FB2DF460BF2E37
S113386009C034FE0AC0292F2660B22E06C028E003
S113387030E005C020E130E002C020E132E0F80190
S1133880B7FE07C060817181828193810C5F1F4FF5
S113389006C06081718180E090E00E5F1F4FA3013C
S11338A00E94661F882E8618FB2DFF773F2E36FE5A
S11338B00DC0232D2E7FA22E891458F434FE0BC084
S11338C032FC09C0832D8E7EA82E05C0B82CA32CF3
S11338D003C0B82C01C0B92CA4FE0FC0FE01E80D32
S11338E0F11D8081803321F49A2D997EA92E09C07F
S11338F0A2FE06C0B394B39404C08A2D867809F05E
S1133900B394A3FC11C0A0FE06C0B21488F4280C22
S1133910922C9B180EC0B21460F4B60180E290E0C1
S11339200E942A1FB394F7CFB21418F42B1802C0C4
S1133930982C212CA4FE10C0B60180E390E00E94D4
S11339402A1FA2FE17C0A1FC03C088E790E002C0B2
S113395088E590E0B6010CC08A2D867859F0A1FE66
S113396002C08BE201C080E2A7FC8DE2B60190E0C8
S11339700E942A1F891438F4B60180E390E00E9463
S11339802A1F9A94F7CF8A94F301E80DF11D8081E0
S1133990B60190E00E942A1F8110F5CF222009F47D
S11339A042CEB60180E290E00E942A1F2A94F6CF0C
S11339B0F6018681978102C08FEF9FEF2B96E2E19B
S11339C00C94E01FA9E0B0E0E8EEFCE10C94CA1FFF
S11339D06A01122FB02E2BE3201720F0FF24F3945A
S11339E0F00E02C02CE3F22E0F2D27E0AE014F5F44
S11339F05F4F0E943C1EBC014981842F8970813035
S1133A0031F0E1FC06C0E0FE06C090E205C09DE294
S1133A1003C09BE201C090E05E2D507143FF3CC0A7
S1133A20911102C083E001C084E0811718F4212FB2
S1133A30281B01C020E051110BC0F601822F30E297
S1133A40882319F031938150FBCFC20ED11C20E0A2
S1133A50992329F0D6019C93F60131966F01C60192
S1133A600396E2FE0AC03EE4D6013C9341E411967B
S1133A704C93119712963C9306C03EE6F6013083B0
S1133A8041E641833283FC01322F40E2332309F4BF
S1133A9042C041933150FACF42FF44C0911102C059
S1133AA083E001C084E0811718F4212F281B01C092
S1133AB020E051110BC0F601822F30E2882319F067
S1133AC031938150FBCFC20ED11C20E0992329F001
S1133AD0D6019C93F60131966F01C6010396E2FE6E
S1133AE00BC039E4D6013C933EE411963C93119704
S1133AF036E412963C9307C039E6F60130833EE67D
S1133B00318336E63283FC01322F40E2332319F04D
S1133B1041933150FBCFFC01E20FF11D10828EEF77
S1133B209FEFA6C021E030E0911102C020E030E018
S1133B30161617061CF4FB01319602C0E1E0F0E012
S1133B402E0F3F1FBB2021F0EB2DF0E0319602C079
S1133B50E0E0F0E02E0F3F1FE12FF0E02E173F07CB
S1133B601CF4121B212F01C020E08E2D887159F402
S1133B70F601822F30E2882319F031938150FBCF74
S1133B80C20ED11C20E0992329F0D6019C93F601A2
S1133B9031966F0151110BC0F601822F90E38823F7
S1133BA019F091938150FBCFC20ED11C20E00F2D50
S1133BB0060F9A81342F307144FF03C0913309F406
S1133BC00150101624F4093018F008E001C001E097
S1133BD0AB0177FF02C040E050E0FB01E41BF50BB2
S1133BE0A1E0B0E0AC0FBD1FEA0FFB1F8EE2A82ED0
S1133BF04B01801A91080B2D10E0119501951109C4
S1133C004F3FBFEF5B0721F4D601AC9211966D01D3
S1133C10641775072CF08416950614F4818101C08D
S1133C2080E3415051093196D60111967D01401728
S1133C30510724F0D6018C936701E2CF641775070E
S1133C4039F4963320F4953319F4311101C081E32A
S1133C50F6018083F701822F90E2882319F0919373
S1133C608150FBCFF701E20FF11D108280E090E05C
S1133C702996ECE00C94E61F283008F027E033275F
S1133C80DA01990F311D87FD916000966105710578
S1133C9039F432602E5F3D9330E32A95E1F70895BD
S1133CA09F3F30F080387105610509F03C5F3C5F4F
S1133CB03D93913008F08068911DDF93CF931F935B
S1133CC00F93FF92EF92192F987F9695E92F96956F
S1133CD09695E90FFF27E857FD4F99273327EE24E0
S1133CE0FF24A701E70105900894079428F4360FF0
S1133CF0E71EF81E491F511D660F771F881F991F65
S1133D000694A1F70590079428F4E70EF81E491FBE
S1133D10561FC11D770F881F991F661F0694A1F7B0
S1133D200590079428F4F80E491F561FC71FD11D8C
S1133D30880F991F661F771F0694A1F705900794B3
S1133D4020F4490F561FC71FD81F990F661F771FEE
S1133D50881F0694A9F784911095177041F0D695A1
S1133D60C79557954795F794E7941A95C1F7EEE2EE
S1133D70F2E06894159015913591659195910590AF
S1133D807FE27395E118F10A430B560BC90BD00976
S1133D90C0F7E10CF11E431F561FC91FD01D7EF44E
S1133DA0703311F48A95E6CFE894015030F0080F8F
S1133DB00AF40027021708F4202F2395022F7A33E0
S1133DC028F079E37D932A95E9F710C07D932A952D
S1133DD089F6069497956795379517951794E11882
S1133DE0F10A430B560BC90BD00998F023957E9129
S1133DF073957A3308F070E37C932013B8F77E91BF
S1133E0070617D9330F0839571E37D9370E32A951F
S1133E10E1F71124EF90FF900F911F91CF91DF9163
S1133E20992787FD90950895FC0105906150704095
S1133E300110D8F7809590958E0F9F1F0895FC016F
S1133E406150704001900110D8F7809590958E0FC5
S1133E509F1F08950F931F93CF93DF93FB0123813B
S1133E6021FD03C08FEF9FEF2CC022FF16C04681B7
S1133E705781248135814217530744F4A081B181CD
S1133E809D012F5F3F4F318320838C93268137819F
S1133E902F5F3F4F3783268314C08B01EC01FB0156
S1133EA00084F185E02D0995892BE1F6D801169659
S1133EB08D919C911797019617969C938E931697C4
S1133EC0CE01DF91CF911F910F910895FA01AA2796
S1133ED0283051F1203181F1E8946F936E7F6E5F49
S1133EE07F4F8F4F9F4FAF4FB1E03ED0B4E03CD0F7
S1133EF0670F781F891F9A1FA11D680F791F8A1FDA
S1133F00911DA11D6A0F711D811D911DA11D20D040
S1133F1009F468943F912AE0269F11243019305DFA
S1133F203193DEF6CF010895462F4770405D4193EB
S1133F30B3E00FD0C9F7F6CF462F4F70405D4A3338
S1133F4018F0495D31FD4052419302D0A9F7EACF00
S1133F50B4E0A6959795879577956795BA95C9F72F
S1133F6000976105710508959B01AC010A2E069422
S1133F705795479537952795BA95C9F7620F731FDB
S1133F80841F951FA01D08952F923F924F925F9218
S1133F906F927F928F929F92AF92BF92CF92DF9255
S1133FA0EF92FF920F931F93CF93DF93CDB7DEB7BA
S1133FB0CA1BDB0B0FB6F894DEBF0FBECDBF09944E
S1133FC02A88398848885F846E847D848C849B84A5
S1133FD0AA84B984C884DF80EE80FD800C811B81B3
S1133FE0AA81B981CE0FD11D0FB6F894DEBF0FBEE2
S10D3FF0CDBFED010895F894FFCF52
S1133FFAFFFF202B3D33393678746C6E2F2D2A2B14
S113400A6170675E303137346F73716D2E323835B3
S113401A6663656400484F4C4100496E6963696F81
S113402A2070726F6772616D610020202020202049
S113403A206F76660070616E74616C6C61006E65E7
S113404A677261004572726F72002020202020205E
S10F405A20202000256400202D3E2000C2
S9030000FC
