:100000000C9447010C9464010C9464010C946401F9
:100010000C9464010C9464010C9464010C946401CC
:100020000C9464010C9464010C9464010C946401BC
:100030000C9464010C9464010C9464010C946401AC
:100040000C9464010C9464010C94C2010C94EA01B8
:100050000C9464010C9464010C9464010C9464018C
:100060000C9464010C946401000000000000005F27
:1000700000000007000700147F147F14242A7F2A41
:10008000122313086462364955225000050300000C
:10009000001C2241000041221C0014083E081408E4
:1000A000083E0808005030000008080808080060F2
:1000B00060000020100804023E5149453E00427F86
:1000C000400042615149462141454B311814127F8D
:1000D0001027454545393C4A494930017109050316
:1000E0003649494936064949291E0036360000007E
:1000F0005636000008142241001414141414004150
:100100002214080201510906324979413E7E11113B
:10011000117E7F494949363E414141227F4141227A
:100120001C7F494949417F090909013E4149497AF2
:100130007F0808087F00417F41002040413F017F48
:10014000081422417F404040407F020C027F7F0420
:1001500008107F3E4141413E7F090909063E415159
:10016000215E7F09192946464949493101017F012C
:10017000013F4040403F1F2040201F3F4038403F4C
:100180006314081463070870080761514945430068
:100190007F41410002040810200041417F00040219
:1001A0000102044040404040000102040020545439
:1001B00054787F48444438384444442038444448C0
:1001C0007F3854545418087E0901020C5252523E92
:1001D0007F0804047800447D40002040443D007FB7
:1001E0001028440000417F40007C041804787C08FB
:1001F00004047838444444387C1414140808141453
:10020000147C7C080404084854545420043F44409F
:10021000203C4040207C1C2040201C3C4030403C86
:1002200044281028440C5050503C4464544C440022
:100230000836410000007F00000041360800100829
:1002400008100800000000000B0180C81180C83AA7
:1002500081050AB1830006030A20800A3601A0B690
:10026000021502B40100E01009160920211B131920
:1002700017151E2B0405020EE1900B14081E221DFB
:10028000181E1B1A242B0606020F0A13800A1124BB
:100290001FBECFEFD8E0DEBFCDBF11E0A0E0B1E0E0
:1002A000EEE7FDE002C005900D92A432B107D9F748
:1002B00021E0A4E2B1E001C01D92AE33B207E1F744
:1002C0000E9466010C94BD060C9400000F931F93CE
:1002D000CF93DF9300D000D01F92CDB7DEB70E943E
:1002E000F40485E0E6E0F1E0DE01119601900D9264
:1002F0008A95E1F749815A816B817C818D810E94C9
:10030000FD046CE370E08AE291E00E9424056CE356
:1003100070E082E391E00E94240578940E949E049C
:100320008FEF9FEF0E948D040FEA14E024E144E177
:1003300069E887E10E940F0425E145E169E887E16A
:100340000E940F046AE089E20E94AD0240E06BE780
:1003500070E08BE091E00E94D0036AE185E30E94A7
:10036000AD0240E060E070E089E191E00E94D003DE
:100370000F900F900F900F900F90DF91CF911F91E2
:100380000F9108951F920F920FB60F9211242F9381
:100390003F934F935F936F937F938F939F93AF930D
:1003A000BF93EF93FF936091C60082E391E00E94B8
:1003B0003705FF91EF91BF91AF919F918F917F9101
:1003C0006F915F914F913F912F910F900FBE0F90C2
:1003D0001F9018951F920F920FB60F9211242F9312
:1003E0003F934F935F936F937F938F939F93AF93BD
:1003F000BF93EF93FF938AE291E00E945C05811125
:1004000006C0E1ECF0E080818F7D808302C08093A4
:10041000C600FF91EF91BF91AF919F918F917F9116
:100420006F915F914F913F912F910F900FBE0F9061
:100430001F901895289A209A8FE493EC0197F1F772
:1004400000C0000028988FE493EC0197F1F700C0FA
:100450000000289A089584B18E6284B924988AB1E4
:100460008C608AB98BB18C608BB92C9A8CB5806505
:100470008CBD8DB581608DBD08955A9829988EBD2B
:100480000DB407FEFDCF5A9A8EB508955A98299A51
:100490008EBD0DB407FEFDCF5A9A8EB508955A98B9
:1004A000299A9EBD0DB407FEFDCF8EBD0DB407FE8B
:1004B000FDCF5A9A8EB508950F931F93CF93DF9374
:1004C0008C01EB018CE20E943D02209729F0C801CB
:1004D0000E944F022197D9F7DF91CF911F910F9181
:1004E00008950F931F93CF93DF93681750F1623AEB
:1004F00050F5241750F1243850F5122F042FC62F31
:10050000D82F8AE20E943D0280E00E9446028D2F91
:100510000E94460280E00E9446028C2F0E94460202
:100520008BE20E943D0280E00E944602802F0E94E2
:10053000460280E00E944602812F0E94460281E02E
:1005400007C080E005C080E003C080E001C080E01B
:10055000DF91CF911F910F9108958D3990F06D37F4
:10056000E0F46C3770F470E0685F7F4F70932701A0
:100570006093260190E0909325018093240181E00F
:10058000089570E0709327016093260190E09093A6
:1005900025018093240181E0089580E00895CF93A0
:1005A000DF93EA01262F462F682F0E94710261E037
:1005B00070E0CE010E945C02DF91CF9108954F92CE
:1005C0005F927F928F929F92AF92BF92CF92DF9273
:1005D000EF92FF921F93CF93DF932B01411134C011
:1005E0006894992492F8C82FD0E0CE018097EC014E
:1005F000CC0FDD1FCC0FDD1FC80FD91F0F2EF6E269
:10060000CF2EF1E0DF2EF02D0F2EF4E2EF2EF1E0F1
:10061000FF2EF02DFE01E90DF11DE859FF4FB490BA
:1006200017E0BB204CF4F6016081610FF701808177
:10063000A201890D0E94CF02BB0C115090F79A9431
:10064000FFEF9F12E7CF9CC0413009F040C0689493
:10065000992492F8E82EF12CC70180977C01EE0CCA
:10066000FF1CEE0CFF1CE80EF91E0F2EF6E2AF2E5B
:10067000F1E0BF2EF02D0F2EF4E2CF2EF1E0DF2EB1
:10068000F02DF701E90DF11DE859FF4F8490C7E007
:100690008820ACF4F5016081DC2FDD0F6D0FF601D1
:1006A0008081A201890D0E94CF02F50160816F5FF8
:1006B0006D0FF6018081A201890D0E94CF02880C86
:1006C000C15030F79A94FFEF9F12DBCF59C04A30E8
:1006D00009F056C06894EE24E2F8C82ED12CC60169
:1006E00080976C01CC0CDD1CCC0CDD1CC80ED91E17
:1006F0000F2EF6E28F2EF1E09F2EF02D0F2EF4E25A
:10070000AF2EF1E0BF2EF02DF601EE0DF11DE859F0
:10071000FF4FC4917E2C770CD7E0CC2354F5F40125
:100720006081FD2EFF0C6F0DF5018081A201870D08
:100730000E94CF02F40160816F5F6F0DF50180812F
:10074000A201870D0E94CF02F40160816F0DF501B7
:1007500080818F5FA201870D0E94CF02F40160812A
:100760006F5F6F0DF50180818F5FA201870D0E9481
:10077000CF02CC0FD15088F6EA94FFEFEF12C4CF2E
:1007800080E0DF91CF911F91FF90EF90DF90CF90AD
:10079000BF90AF909F908F907F905F904F90089503
:1007A0009F92AF92BF92CF92DF92EF92FF920F9300
:1007B0001F93CF93DF93EC018881882321F1A42E2E
:1007C0008B01942E9694B12C0F2EF6E2CF2EF1E0F1
:1007D000DF2EF02D0F2EF4E2EF2EF1E0FF2EF02DA4
:1007E000B3944A2DB8010E94DF02F70180818A5F2D
:1007F000F6016081890D0E94AD02FE01EB0DF11D35
:1008000080818111EDCFDF91CF911F910F91FF90EA
:10081000EF90DF90CF90BF90AF909F9008956F9230
:100820007F928F929F92AF92BF92CF92DF92EF9280
:10083000FF920F931F93CF93DF93D82FA62EC42F31
:10084000622E4801E62EF12CE81AF108C22ED12CB6
:10085000C41AD108FF2034F4F194E194F10877240C
:100860007A9402C077247394DD2034F4D194C19437
:10087000D108BB24BA9402C0BB24B394CE14DF04C5
:10088000F4F4CC0CDD1C86010E191F09A4016C2F99
:100890008D2F0E94CF02AD1681F1EE0CFF1CD70DFB
:1008A00011231CF0CB0D0E191F090C0D1D1DA401E9
:1008B0006C2F8D2F0E94CF02DA11F1CF1EC0EE0CEB
:1008C000FF1C86010E191F09A4016C2F8D2F0E9499
:1008D000CF026C1691F0CC0CDD1CCB0D101611065E
:1008E0001CF0D70D0C0D1D1D0E191F09A4016C2F36
:1008F0008D2F0E94CF02C611F0CF81E0DF91CF9102
:100900001F910F91FF90EF90DF90CF90BF90AF902D
:100910009F908F907F906F900895CF93DF93EC011D
:1009200023E840E061EA80E00E94710268E873E534
:10093000CE010E945C02DF91CF91089589E20E946E
:100940003D020895882341F0EFE9FFE03197F1F788
:1009500000C000008150C1F70895CF92DF92EF925E
:10096000FF920F931F93CF93DF937C012FEFE21A37
:10097000F20AFC01D4902DC0F70184910E943D023F
:10098000F7013196E491F2E0EF0EF11C2E2F207862
:10099000C22EEF778FEF8E0FEE2389F03E2D2F2D95
:1009A00090E00196E80EF91E8701C32FD22FFE01B9
:1009B00084910E9446022196C017D107C1F7CC202E
:1009C00039F0E7012196F70184910E94A2047E018B
:1009D000DA94D110D1CFDF91CF911F910F91FF9079
:1009E000EF90DF90CF9008950E941A020E942B0290
:1009F00088E492E00E94AD040895CF93DF9300D085
:100A000000D01F92CDB7DEB749835A8329813A813E
:100A100040E050E060E472E48FE090E00E947A05EC
:100A2000215031093093C5002093C40088E9809398
:100A3000C10086E08093C2000F900F900F900F903E
:100A40000F90DF91CF910895CF93DF93EC017983DD
:100A500068831B821A821D821C82CB01880F991F1A
:100A60000E949C059F838E83DF91CF910895FC01A6
:100A7000A681B78182819381A80FB91F6C9382816F
:100A8000938101969383828320813181821793071A
:100A900014F01382128284819581428153818417DC
:100AA000950749F40196821793071CF49583848374
:100AB0000895158214820895FC0184819581228114
:100AC000338182179307A1F0A681B781A80FB91FC0
:100AD0008C911C92248135812F5F3F4F3583248375
:100AE000408151812417350724F01582148208951E
:100AF00080E00895A1E21A2EAA1BBB1BFD010DC0C8
:100B0000AA1FBB1FEE1FFF1FA217B307E407F507BD
:100B100020F0A21BB30BE40BF50B661F771F881F99
:100B2000991F1A9469F760957095809590959B012F
:100B3000AC01BD01CF0108950F931F93CF93DF93B5
:100B40008230910510F482E090E0E0913C01F09158
:100B50003D0120E030E0A0E0B0E0309719F14081A5
:100B600051810281138148175907C8F084179507EE
:100B700069F4109731F012960C93129713961C9308
:100B800027C000933C0110933D0122C0211531057F
:100B900019F04217530718F49A01BD01EF01DF0164
:100BA000F801DBCF21153105F9F0281B390B243072
:100BB000310580F48A819B816115710521F0FB016B
:100BC0009383828304C090933D0180933C01FE0196
:100BD000329644C0FE01E20FF31F8193919322509D
:100BE0003109398328833AC020913A0130913B0181
:100BF000232B41F4209102013091030130933B01FA
:100C000020933A0120910001309101012115310515
:100C100041F42DB73EB74091040150910501241BCA
:100C2000350BE0913A01F0913B01E217F307A0F494
:100C30002E1B3F0B2817390778F0AC014E5F5F4F32
:100C40002417350748F04E0F5F1F50933B01409328
:100C50003A018193919302C0E0E0F0E0CF01DF918F
:100C6000CF911F910F910895CF93DF93009709F4CF
:100C700081C0FC01329713821282A0913C01B09195
:100C80003D01109781F420813181820F931F2091C3
:100C90003A0130913B012817390751F5F0933B0198
:100CA000E0933A0167C0ED0120E030E0CE17DF07A6
:100CB00040F44A815B819E0141155105F1F0EA0142
:100CC000F5CFD383C28340815181840F951FC8170C
:100CD000D90759F488819981840F951F02969183D1
:100CE00080838A819B81938382832115310529F436
:100CF000F0933D01E0933C013DC0E901FB83EA83B1
:100D000049915991C40FD51FEC17FD0761F48081FB
:100D10009181840F951F0296E901998388838281CE
:100D200093819B838A83E0E0F0E012968D919C9101
:100D30001397009719F0FD01DC01F7CF8D919C917D
:100D400011979D012E5F3F4F820F931F20913A0113
:100D500030913B012817390769F4309729F4109234
:100D60003D0110923C0102C013821282B0933B01FC
:0E0D7000A0933A01DF91CF910895F894FFCF40
:100D7E0000003E01200000E10800015354373733D4
:100D8E0035204452495645520041544D4547412065
:040D9E0031360000EA
:00000001FF
