S010000070726F796563746F2E737265639F
S11300000C9447010C9464010C9464010C946401F5
S11300100C9464010C9464010C9464010C946401C8
S11300200C9464010C9464010C9464010C946401B8
S11300300C9464010C9464010C9464010C946401A8
S11300400C9464010C9464010C9464010C94640198
S11300500C9464010C9464010C9464010C94640188
S11300600C9464010C946401000000000000005F23
S113007000000007000700147F147F14242A7F2A3D
S11300801223130864623649552250000503000008
S1130090001C2241000041221C0014083E081408E0
S11300A0083E0808005030000008080808080060EE
S11300B060000020100804023E5149453E00427F82
S11300C0400042615149462141454B311814127F89
S11300D01027454545393C4A494930017109050312
S11300E03649494936064949291E0036360000007A
S11300F0563600000814224100141414141400414C
S11301002214080201510906324979413E7E111137
S1130110117E7F494949363E414141227F41412276
S11301201C7F494949417F090909013E4149497AEE
S11301307F0808087F00417F41002040413F017F44
S1130140081422417F404040407F020C027F7F041C
S113015008107F3E4141413E7F090909063E415155
S1130160215E7F09192946464949493101017F0128
S1130170013F4040403F1F2040201F3F4038403F48
S11301806314081463070870080761514945430064
S11301907F41410002040810200041417F00040215
S11301A00102044040404040000102040020545435
S11301B054787F48444438384444442038444448BC
S11301C07F3854545418087E0901020C5252523E8E
S11301D07F0804047800447D40002040443D007FB3
S11301E01028440000417F40007C041804787C08F7
S11301F004047838444444387C141414080814144F
S1130200147C7C080404084854545420043F44409B
S1130210203C4040207C1C2040201C3C4030403C82
S113022044281028440C5050503C4464544C44001E
S11302300836410000007F00000041360800100825
S113024008100800000000000B0180C81180C83AA3
S113025081050AB1830006030A20800A3601A0B68C
S1130260021502B40100E01009160920211B13191C
S113027017151E2B0405020EE1900B14081E221DF7
S1130280181E1B1A242B0606020F0A13800A1124B7
S11302901FBECFEFD8E0DEBFCDBF11E0A0E0B1E0DC
S11302A0EAEDF8E002C005900D92A431B107D9F748
S11302B021E0A4E1B1E001C01D92A831B207E1F749
S11302C00E9466010C946B040C9400000F931F931E
S11302D00E9462040E940C048FEF9FEF0E94FB03B4
S11302E00FEA14E024E144E169E887E10E947D0318
S11302F025E145E169E887E10E947D0362E085E04C
S11303000E941B0241E06BE770E080E091E00E94F4
S11303103E031F910F910895289A209A8FE493EC3D
S11303200197F1F700C0000028988FE493EC01973F
S1130330F1F700C00000289A089584B18E6284B950
S1130340249885B1846185B98CB580658CBD8DB5E3
S113035081608DBD08952A9829988EBD0DB407FE3D
S1130360FDCF2A9A8EB508952A98299A8EBD0DB488
S113037007FEFDCF2A9A8EB508952A98299A9EBD24
S11303800DB407FEFDCF8EBD0DB407FEFDCF2A9A36
S11303908EB508950F931F93CF93DF938C01EB01D8
S11303A08CE20E94AB01209729F0C8010E94BD0194
S11303B02197D9F7DF91CF911F910F9108950F9352
S11303C01F93CF93DF93681750F1623A50F52417C7
S11303D050F1243850F5122F042FC62FD82F8AE25B
S11303E00E94AB0180E00E94B4018D2F0E94B401F1
S11303F080E00E94B4018C2F0E94B4018BE20E9421
S1130400AB0180E00E94B401802F0E94B40180E01F
S11304100E94B401812F0E94B40181E007C080E0F2
S113042005C080E003C080E001C080E0DF91CF918F
S11304301F910F9108958D3990F06D37E0F46C376A
S113044070F470E0685F7F4F70931701609316013A
S113045090E0909315018093140181E0089570E079
S1130460709317016093160190E0909315018093A7
S1130470140181E0089580E00895CF93DF93EA01A9
S1130480262F462F682F0E94DF0161E070E0CE0125
S11304900E94CA01DF91CF9108954F925F927F929B
S11304A08F929F92AF92BF92CF92DF92EF92FF9280
S11304B01F93CF93DF932B01411134C06894992487
S11304C092F8C82FD0E0CE018097EC01CC0FDD1F4D
S11304D0CC0FDD1FC80FD91F0F2EF6E1CF2EF1E090
S11304E0DF2EF02D0F2EF4E1EF2EF1E0FF2EF02D94
S11304F0FE01E90DF11DE859FF4FB49017E0BB2050
S11305004CF4F6016081610FF7018081A201890D2D
S11305100E943D02BB0C115090F79A94FFEF9F127A
S1130520E7CF9CC0413009F040C06894992492F808
S1130530E82EF12CC70180977C01EE0CFF1CEE0C19
S1130540FF1CE80EF91E0F2EF6E1AF2EF1E0BF2ED0
S1130550F02D0F2EF4E1CF2EF1E0DF2EF02DF70178
S1130560E90DF11DE859FF4F8490C7E08820ACF4F1
S1130570F5016081DC2FDD0F6D0FF6018081A20192
S1130580890D0E943D02F50160816F5F6D0FF601D8
S11305908081A201890D0E943D02880CC15030F770
S11305A09A94FFEF9F12DBCF59C04A3009F056C02E
S11305B06894EE24E2F8C82ED12CC60180976C0111
S11305C0CC0CDD1CCC0CDD1CC80ED91E0F2EF6E1A4
S11305D08F2EF1E09F2EF02D0F2EF4E1AF2EF1E0DF
S11305E0BF2EF02DF601EE0DF11DE859FF4FC49119
S11305F07E2C770CD7E0CC2354F5F4016081FD2EDA
S1130600FF0C6F0DF5018081A201870D0E943D0250
S1130610F40160816F5F6F0DF5018081A201870D88
S11306200E943D02F40160816F0DF50180818F5FAE
S1130630A201870D0E943D02F40160816F5F6F0D7E
S1130640F50180818F5FA201870D0E943D02CC0FCE
S1130650D15088F6EA94FFEFEF12C4CF80E0DF9127
S1130660CF911F91FF90EF90DF90CF90BF90AF900C
S11306709F908F907F905F904F9008959F92AF923C
S1130680BF92CF92DF92EF92FF920F931F93CF937B
S1130690DF93EC018881882321F1A42E8B01942E11
S11306A09694B12C0F2EF6E1CF2EF1E0DF2EF02D33
S11306B00F2EF4E1EF2EF1E0FF2EF02DB3944A2D2E
S11306C0B8010E944D02F70180818A5FF6016081C2
S11306D0890D0E941B02FE01EB0DF11D8081811129
S11306E0EDCFDF91CF911F910F91FF90EF90DF90AD
S11306F0CF90BF90AF909F9008956F927F928F920A
S11307009F92AF92BF92CF92DF92EF92FF920F939C
S11307101F93CF93DF93D82FA62EC42F622E4801A8
S1130720E62EF12CE81AF108C22ED12CC41AD108F5
S1130730FF2034F4F194E194F10877247A9402C010
S113074077247394DD2034F4D194C194D108BB246C
S1130750BA9402C0BB24B394CE14DF04F4F4CC0CDA
S1130760DD1C86010E191F09A4016C2F8D2F0E9418
S11307703D02AD1681F1EE0CFF1CD70D11231CF0C8
S1130780CB0D0E191F090C0D1D1DA4016C2F8D2FEF
S11307900E943D02DA11F1CF1EC0EE0CFF1C86014F
S11307A00E191F09A4016C2F8D2F0E943D026C1697
S11307B091F0CC0CDD1CCB0D101611061CF0D70DDE
S11307C00C0D1D1D0E191F09A4016C2F8D2F0E94E5
S11307D03D02C611F0CF81E0DF91CF911F910F91BF
S11307E0FF90EF90DF90CF90BF90AF909F908F904D
S11307F07F906F900895CF93DF93EC0123E840E05E
S113080061EA80E00E94DF0168E873E5CE010E949E
S1130810CA01DF91CF91089589E20E94AB01089546
S1130820882341F0EFE9FFE03197F1F700C00000C1
S11308308150C1F70895CF92DF92EF92FF920F9308
S11308401F93CF93DF937C012FEFE21AF20AFC018E
S1130850D4902DC0F70184910E94AB01F701319629
S1130860E491F2E0EF0EF11C2E2F2078C22EEF77E8
S11308708FEF8E0FEE2389F03E2D2F2D90E0019601
S1130880E80EF91E8701C32FD22FFE0184910E9426
S1130890B4012196C017D107C1F7CC2039F0E70184
S11308A02196F70184910E9410047E01DA94D110FC
S11308B0D1CFDF91CF911F910F91FF90EF90DF90F7
S11308C0CF9008950E948C010E949D0188E492E0DB
S10D08D00E941B040895F894FFCF62
S11308DA53543737333520445249564552207465A8
S10708EA737400001F
S9030000FC
