S012000050726F796563746F5F312E737265632D
S11300000C9440000C945D000C945D000C945D0015
S11300100C941B010C94D6000C945D000C945D00B0
S11300200C945D000C945D000C945D000C945D00D8
S11300300C945D000C945D000C945D000C945D00C8
S11300400C945D000C945D000C945D000C945D00B8
S11300500C945D000C945D000C945D000C945D00A8
S11300600C945D000C945D00FA0101027901850194
S113007092019F01AC01B901C601D301E001ED0178
S113008011241FBECFEFD8E0DEBFCDBF11E0A0E04A
S1130090B1E0EEEFF6E102C005900D92A635B1078E
S11300A0D9F721E0A6E5B1E001C01D92A836B20758
S11300B0E1F70E94BB060C947D0B0C940000E0EC6D
S11300C0F0E0908195FFFDCF8093C6000895CF9313
S11300D0DF93EC018881882331F021960E945F0030
S11300E089918111FBCFDF91CF9108959093C50041
S11300F08093C40088E18093C10086E08093C200AD
S11301000895E0ECF0E080818823ECF78091C6004C
S11301100895FF920F931F93CF93DF93CDB7DEB76C
S1130120A1970FB6F894DEBF0FBECDBF8FE1E1E01B
S1130130F1E0DE01119601900D928A95E1F780912C
S1130140660190916701E1E0F0E0EC0FFD1FE80F1C
S1130150F91FF0809F938F9382E291E09F938F9396
S11301608E01005E1F4F1F930F930E949308C801D6
S11301700E94670085E291E00E9467008F2D0E9433
S11301805F008AE00E945F000F900F900F900F9025
S11301900F900F90A1960FB6F894DEBF0FBECDBF9F
S11301A0DF91CF911F910F91FF9008951F920F92AD
S11301B00FB60F9211242F933F934F935F936F9336
S11301C07F938F939F93AF93BF93EF93FF934C9938
S11301D005C010926701109266011AC04D9907C0BC
S11301E081E090E0909367018093660111C04E997D
S11301F007C082E090E0909367018093660108C095
S11302004F9906C083E090E0909367018093660164
S11302100E948900FF91EF91BF91AF919F918F91BF
S11302207F916F915F914F913F912F910F900FBEEE
S11302300F901F9018951F920F920FB60F921124D2
S11302402F933F934F935F936F937F938F939F93DA
S1130250AF93BF93EF93FF93329907C084E090E08C
S113026090936701809366011AC0339907C085E0B3
S113027090E0909367018093660111C0349907C0A0
S113028086E090E0909367018093660108C03599F9
S113029006C087E090E090936701809366010E9416
S11302A08900FF91EF91BF91AF919F918F917F91C1
S11302B06F915F914F913F912F910F900FBE0F90CF
S11302C01F901895FF920F931F93CF93DF9300D045
S11302D000D000D0CDB7DEB7F42E042F10E0F80123
S11302E0BE97EC30F10508F08CC0EC5CFF4F0C9429
S11302F08D0820E030E040E251E40E94200820E034
S113030030E0A9010E94F1067CC020E030E040E228
S113031051E40E94200820E030E040E85FE30E94BE
S1130320F1066FC020E030E040E251E40E94200872
S113033020E030E040E050E40E94F10662C020E09A
S113034030E040E251E40E94200820E030E040E444
S113035050E40E94F10655C020E030E040E251E450
S11303600E94200820E030E040E850E40E94F106BA
S113037048C020E030E040E251E40E94200820E040
S113038030E040EA50E40E94F1063BC020E030E057
S113039040E251E40E94200820E030E040EC50E4C8
S11303A00E94F1062EC020E030E040E251E40E94B9
S11303B0200820E030E040EE50E40E94F10621C025
S11303C020E030E040E251E40E94200820E030E0E8
S11303D040E051E40E94F10614C020E030E040E225
S11303E051E40E94200820E030E040E151E40E9402
S11303F0F10607C021E030E0309357012093560105
S113040006C02091560130915701232B31F020E092
S113041030E040E251E40E945D079F938F937F9305
S11304206F9382E291E09F938F938E010F5F1F4F32
S11304301F930F930E949308C8010E9467008F2D99
S113044090E00E9467008AE00E945F000FB6F89473
S1130450DEBF0FBECDBF26960FB6F894DEBF0FBE2B
S1130460CDBFDF91CF911F910F91FF900895CF934E
S1130470C42F8AE291E00E9467008C2F0E945F00E3
S11304808AE00E945F00CF910895CF93DF93C82F35
S113049080916401909165018230910509F4C6C18F
S11304A030F4009761F0019709F415C161C48330F9
S11304B0910509F426C3049709F436C459C480EDA0
S11304C08C0F8A3010F0CE3281F46091600170910B
S11304D0610180916201909163014C2F0E9462013D
S11304E0109265011092640143C48C2F8D7F8D326C
S11304F031F086ED8C0F823010F0CE3561F4C0936C
S113050000018C2F0E945F0081E090E090936501D0
S1130510809364012DC4C13771F0CC3661F0C536C7
S113052051F08DE88C0F823030F08C2F8B7F833626
S113053011F0C83791F4609160017091610180916C
S11305406201909163014C2F0E94370283E090E096
S113055090936501809364010BC4CD3601F130F4AE
S1130560C13609F499C0C436C9F102C4CE3609F4BF
S113057064C0C03709F0FCC380E090E0A0E4B0E4BC
S11305808093600190936101A0936201B093630131
S113059083E090E09093650180936401E9C38091C6
S11305A0580190915901A0915A01B0915B01809337
S11305B0600190936101A0936201B0936301109272
S11305C05C0110925D0110925E0110925F0183E064
S11305D090E09093650180936401CAC32091600107
S11305E03091610140916201509163016091580121
S11305F07091590180915A0190915B010E94F1061A
S1130600609358017093590180935A0190935B0150
S113061010926001109261011092620110926301C4
S113062010925C0110925D0110925E0110925F01C4
S113063010926501109264019BC320916001309176
S11306406101409162015091630160915801709180
S1130650590180915A0190915B010E94F0066093C8
S113066058017093590180935A0190935B01109241
S11306706001109261011092620110926301109264
S11306805C0110925D0110925E0110925F01109264
S11306906501109264016CC31092580110925901C3
S11306A010925A0110925B01109260011092610144
S11306B0109262011092630110925C0110925D012C
S11306C010925E0110925F0181E090E090936501C9
S11306D0809364014DC3109257011092560180ED2E
S11306E08C0F8A3010F0CE32A9F410925C01109273
S11306F05D0110925E0110925F014C2F60E070E08A
S1130700CB010E94620182E090E0909365018093A6
S113071064012EC38C2F8D7F8D3231F086ED8C0FCA
S1130720823010F0CE3561F4C09300018C2F0E940A
S11307305F0081E090E0909365018093640118C3A9
S1130740C13781F084E98C0F833060F08DE88C0F21
S1130750823040F08DE98C0F833020F0C73611F0E1
S1130760C83739F484E090E0909365018093640184
S1130770FFC2C13629F1C03721F0CD3309F0F8C2E8
S11307803CC080E090E0A0E4B0E480935C019093EE
S11307905D01A0935E01B0935F01C09100018CE301
S11307A091E00E9467008C2F0E945F008AE00E9403
S11307B05F0083E090E09093650180936401D8C268
S11307C0109258011092590110925A0110925B0133
S11307D01092600110926101109262011092630103
S11307E010925C0110925D0110925E0110925F0103
S11307F01092650110926401BBC2109258011092CC
S1130800590110925A0110925B01C09100018CE3CE
S113081091E00E9467008C2F0E945F008AE00E9492
S11308205F001092650110926401A2C280ED8C0FEA
S11308308A3010F0CE3291F460915C0170915D01C8
S113084080915E0190915F014C2F0E94620182E0D1
S113085090E090936501809364018AC28C2F8D7F10
S11308608D3231F086ED8C0F823010F0CE35C1F42C
S1130870D09100018CE391E00E9467008D2F0E94CB
S11308805F008AE00E945F00C09300018C2F0E94E9
S11308905F0081E090E0909365018093640168C2F9
S11308A0C13771F0CC3661F0C53651F08DE88C0F4C
S11308B0823030F08C2F8B7F833611F0C837F1F4FF
S11308C0D09100018CE391E00E9467008D2F0E947B
S11308D05F008AE00E945F00609160017091610195
S11308E080916201909163014C2F0E94370283E052
S11308F090E090936501809364013AC2C43609F490
S11309008AC030F4CD3309F44CC0C13649F130C249
S1130910CE3609F4BBC0C03721F0CD3609F028C269
S11309205BC080E090E0A0E4B0E480935C0190932D
S11309305D01A0935E01B0935F01C09100018CE35F
S113094091E00E9467008C2F0E945F008AE00E9461
S11309505F0083E090E0909365018093640108C296
S1130960109258011092590110925A0110925B0191
S11309701092600110926101109262011092630161
S113098010925C0110925D0110925E0110925F0161
S11309901092570110925601109265011092640151
S11309A0E7C1109258011092590110925A01109205
S11309B05B01C09100018CE391E00E9467008C2FE1
S11309C00E945F008AE00E945F0083E090E09093C1
S11309D0650180936401CCC18091580190915901C3
S11309E0A0915A01B0915B018093600190936101E1
S11309F0A0936201B093630110925C0110925D01B7
S1130A0010925E0110925F0183E090E09093650183
S1130A1080936401ADC1C09100018CE391E00E9418
S1130A2067008C2F0E945F008AE00E945F00209183
S1130A3060013091610140916201509163016091C4
S1130A4058017091590180915A0190915B010E9463
S1130A50F106609358017093590180935A01909361
S1130A605B01109260011092610110926201109278
S1130A70630110925C0110925D0110925E0110926C
S1130A805F01109265011092640172C1C09100016E
S1130A908CE391E00E9467008C2F0E945F008AE043
S1130AA00E945F00209160013091610140916201D8
S1130AB050916301609158017091590180915A01DC
S1130AC090915B010E94F006609358017093590164
S1130AD080935A0190935B0110926001109261011E
S1130AE0109262011092630110925C0110925D01F8
S1130AF010925E0110925F011092650110926401E0
S1130B0037C1109257011092560180ED8C0F8A3034
S1130B1010F0CE3299F4109260011092610110929B
S1130B206201109263014C2F60E070E0CB010E94DF
S1130B30620110926501109264011AC18C2F8D7F9D
S1130B408D3231F086ED8C0F823010F0CE3561F4A9
S1130B50C09300018C2F0E945F0081E090E090938D
S1130B6065018093640104C1C13771F0CC3661F032
S1130B70C53651F08DE88C0F823030F08C2F8B7F8E
S1130B80833611F0C83791F460916001709161016E
S1130B9080916201909163014C2F0E94370283E09F
S1130BA090E09093650180936401E2C0CD3601F139
S1130BB030F4C13609F499C0C436C9F1D9C0CE366F
S1130BC009F464C0C03709F0D3C080E090E0A0E429
S1130BD0B0E48093600190936101A0936201B093AB
S1130BE0630183E090E09093650180936401C0C049
S1130BF08091580190915901A0915A01B0915B01E3
S1130C008093600190936101A0936201B0936301AA
S1130C1010925C0110925D0110925E0110925F01CE
S1130C2083E090E09093650180936401A1C02091DA
S1130C3060013091610140916201509163016091C2
S1130C4058017091590180915A0190915B010E9461
S1130C50F106609358017093590180935A0190935F
S1130C605B01109260011092610110926201109276
S1130C70630110925C0110925D0110925E0110926A
S1130C805F01109265011092640172C020916001AD
S1130C90309161014091620150916301609158016A
S1130CA07091590180915A0190915B010E94F00664
S1130CB0609358017093590180935A0190935B019A
S1130CC0109260011092610110926201109263010E
S1130CD010925C0110925D0110925E0110925F010E
S1130CE0109265011092640143C010925801109251
S1130CF0590110925A0110925B01109260011092F6
S1130D006101109262011092630110925C011092D1
S1130D105D0110925E0110925F0181E090E090937A
S1130D2065018093640124C0CF3611F0C13601F50A
S1130D30109258011092590110925A0110925B01BD
S1130D40109260011092610110926201109263018D
S1130D5010925C0110925D0110925E0110925F018D
S1130D60109265011092640110925701109256017D
S1130D70DF91CF91089587B1836087B98AB18C6080
S1130D808AB987B1837C87B98AB18F708AB988B1EF
S1130D908C6388B98BB1806F8BB988B1836088B953
S1130DA08BB18C608BB9ECE6F0E080818C6380833E
S1130DB0EDE6F0E08081806F8083E8E6F0E08081FA
S1130DC08660808380E190E00E94760081E591E076
S1130DD00E94670078940E9481000E944502FBCF24
S1130DE05058BB27AA270E9408070C94E6070E94C4
S1130DF0D80738F00E94DF0720F039F49F3F19F438
S1130E0026F40C94D5070EF4E095E7FB0C94CF0779
S1130E10E92F0E94F70758F3BA176207730784078C
S1130E20950720F079F4A6F50C9419080EF4E095D2
S1130E300B2EBA2FA02D0B01B90190010C01CA0190
S1130E40A0011124FF27591B99F0593F50F4503E3B
S1130E5068F11A16F040A22F232F342F4427585F2D
S1130E60F3CF469537952795A795F0405395C9F745
S1130E707EF41F16BA0B620B730B840BBAF09150FD
S1130E80A1F0FF0FBB1F661F771F881FC2F70EC09C
S1130E90BA0F621F731F841F48F48795779567956F
S1130EA0B795F7959E3F08F0B0CF9395880F08F05B
S1130EB09927EE0F9795879508950E9471070C94D2
S1130EC0E6070E94DF0758F00E94D80740F029F493
S1130ED05F3F29F00C94CF0751110C941A080C941D
S1130EE0D5070E94F70768F39923B1F3552391F3CB
S1130EF0951B550BBB27AA2762177307840738F085
S1130F009F5F5F4F220F331F441FAA1FA9F335D0E1
S1130F100E2E3AF0E0E832D091505040E695001C95
S1130F20CAF72BD0FE2F29D0660F771F881FBB1F4F
S1130F30261737074807AB07B0E809F0BB0B802D2D
S1130F40BF01FF2793585F4F3AF09E3F510578F059
S1130F500C94CF070C941A085F3FE4F3983ED4F343
S1130F60869577956795B795F7959F5FC9F7880F2D
S1130F70911D9695879597F90895E1E0660F771F7F
S1130F80881FBB1F621773078407BA0720F0621B10
S1130F90730B840BBA0BEE1F88F7E095089597F94D
S1130FA09F6780E870E060E008959FEF80EC08950B
S1130FB000240A9416161706180609060895002434
S1130FC00A9412161306140605060895092E0394AE
S1130FD0000C11F4882352F0BB0F40F4BF2B11F422
S1130FE060FF04C06F5F7F4F8F4F9F4F089557FD81
S1130FF09058440F551F59F05F3F71F04795880F83
S113100097FB991F61F09F3F79F087950895121619
S113101013061406551FF2CF4695F1DF08C01616C5
S113102017061806991FF1CF869571056105089476
S11310300895E894BB2766277727CB0197F908958D
S11310400E9433080C94E6070E94D80738F00E94E7
S1131050DF0720F0952311F00C94CF070C94D507EB
S113106011240C941A080E94F70770F3959FC1F39A
S1131070950F50E0551F629FF001729FBB27F00D42
S1131080B11D639FAA27F00DB11DAA1F649F662797
S1131090B00DA11D661F829F2227B00DA11D621FE6
S11310A0739FB00DA11D621F839FA00D611D221FA0
S11310B0749F3327A00D611D231F849F600D211D84
S11310C0822F762F6A2F11249F5750409AF0F1F007
S11310D088234AF0EE0FFF1FBB1F661F771F881F70
S11310E091505040A9F79E3F510580F00C94CF07D2
S11310F00C941A085F3FE4F3983ED4F386957795F1
S11311006795B795F795E7959F5FC1F7FE2B880F15
S1131110911D9695879597F90895EE0FFF1F0590F9
S1131120F491E02D0994AEE0B0E0E9E9F8E00C9424
S1131130540B0D891E8986E08C831A8309838FEFF3
S11311409FE79E838D83AE01475E5F4F6F89788DE5
S1131150CE0101960E94B508EF81F885E00FF11FDA
S113116010822E96E4E00C94700BABE0B0E0EBEB55
S1131170F8E00C94460B6C017B018A01FC01178298
S11311801682838181FFCCC1CE0101963C01F60118
S11311909381F70193FD859193FF81917F018823CA
S11311A009F4BAC1853239F493FD859193FF819195
S11311B07F01853229F4B60190E00E94AC0AE7CFA2
S11311C0912C212C312CFFE1F315D8F08B3279F0DE
S11311D038F4803279F08332A1F4232D20611DC0CC
S11311E08D3261F0803369F4232D216016C0832D84
S11311F08260382EE32DE4603E2E2AC0F32DF86081
S11312001DC037FC2DC020ED280F2A3040F08E324F
S1131210B9F436FC81C1232D2064322E19C036FE68
S113122006C08AE0989E200D1124922E11C0EAE097
S11312302E9E200D1124222EF32DF0623F2E08C085
S11312408C3621F4832D8068382E02C0883641F410
S1131250F70193FD859193FF81917F018111B3CFB4
S1131260982F9F7D9554933028F40C5F1F4F9FE374
S113127099830DC0833631F0833771F0833509F0DB
S113128059C021C0F801808189830E5F1F4F8824D3
S11312908394912C530113C02801F2E04F0E511C8A
S11312A0F801A080B18036FE03C0692D70E002C051
S11312B06FEF7FEFC5010E94A10A4C018201F32D5B
S11312C0FF773F2E16C0280122E0420E511CF80180
S11312D0A080B18036FE03C0692D70E002C06FEFBC
S11312E07FEFC5010E94960A4C01F32DF0683F2E52
S11312F0820133FC1BC0822D90E088169906B0F45D
S1131300B60180E290E00E94AC0A2A94F4CFF50181
S113131037FC859137FE81915F01B60190E00E9410
S1131320AC0A21102A9421E0821A910881149104B4
S113133071F7E8C0843611F0893641F5F80137FEBB
S113134007C060817181828193810C5F1F4F08C047
S113135060817181072E000C880B990B0E5F1F4F63
S1131360F32DFF763F2E97FF09C0909580957095D9
S113137061957F4F8F4F9F4FF0683F2E2AE030E0FA
S1131380A3010E94E80A882E861845C0853731F4E7
S1131390232D2F7EB22E2AE030E025C0932D997F95
S11313A0B92E8F36C1F018F4883579F0B5C080377E
S11313B019F0883721F0B0C0E92FE061BE2EB4FEE9
S11313C00DC0FB2DF460BF2E09C034FE0AC0292FC6
S11313D02660B22E06C028E030E005C020E130E0EF
S11313E002C020E132E0F801B7FE07C060817181DC
S11313F0828193810C5F1F4F06C06081718180E000
S113140090E00E5F1F4FA3010E94E80A882E861801
S1131410FB2DFF773F2E36FE0DC0232D2E7FA22EEF
S1131420891458F434FE0BC032FC09C0832D8E7E1F
S1131430A82E05C0B82CA32C03C0B82C01C0B92C0D
S1131440A4FE0FC0FE01E80DF11D8081803321F45C
S11314509A2D997EA92E09C0A2FE06C0B394B39416
S113146004C08A2D867809F0B394A3FC11C0A0FEB1
S113147006C0B21488F4280C922C9B180EC0B21427
S113148060F4B60180E290E00E94AC0AB394F7CF16
S1131490B21418F42B1802C0982C212CA4FE10C0EE
S11314A0B60180E390E00E94AC0AA2FE17C0A1FC42
S11314B003C088E790E002C088E590E0B6010CC064
S11314C08A2D867859F0A1FE02C08BE201C080E229
S11314D0A7FC8DE2B60190E00E94AC0A891438F4AE
S11314E0B60180E390E00E94AC0A9A94F7CF8A9404
S11314F0F301E80DF11D8081B60190E00E94AC0A71
S11315008110F5CF222009F442CEB60180E290E0AA
S11315100E94AC0A2A94F6CFF6018681978102C014
S11315208FEF9FEF2B96E2E10C94620BFC01059088
S1131530615070400110D8F7809590958E0F9F1FD1
S11315400895FC016150704001900110D8F7809516
S113155090958E0F9F1F08950F931F93CF93DF9342
S1131560FB01238121FD03C08FEF9FEF2CC022FFDD
S113157016C046815781248135814217530744F4AC
S1131580A081B1819D012F5F3F4F318320838C93D4
S1131590268137812F5F3F4F3783268314C08B0109
S11315A0EC01FB010084F185E02D0995892BE1F61E
S11315B0D80116968D919C911797019617969C9336
S11315C08E931697CE01DF91CF911F910F910895BD
S11315D0FA01AA27283051F1203181F1E8946F9360
S11315E06E7F6E5F7F4F8F4F9F4FAF4FB1E03ED006
S11315F0B4E03CD0670F781F891F9A1FA11D680FA4
S1131600791F8A1F911DA11D6A0F711D811D911DD6
S1131610A11D20D009F468943F912AE0269F11244B
S11316203019305D3193DEF6CF010895462F4770AF
S1131630405D4193B3E00FD0C9F7F6CF462F4F700A
S1131640405D4A3318F0495D31FD4052419302D068
S1131650A9F7EACFB4E0A69597958795779567950E
S1131660BA95C9F700976105710508959B01AC010E
S11316700A2E06945795479537952795BA95C9F735
S1131680620F731F841F951FA01D08952F923F9210
S11316904F925F926F927F928F929F92AF92BF927E
S11316A0CF92DF92EF92FF920F931F93CF93DF932A
S11316B0CDB7DEB7CA1BDB0B0FB6F894DEBF0FBE87
S11316C0CDBF09942A88398848885F846E847D84D4
S11316D08C849B84AA84B984C884DF80EE80FD80D6
S11316E00C811B81AA81B981CE0FD11D0FB6F8944C
S11116F0DEBF0FBECDBFED010895F894FFCF0D
S11316FE2B303132333435363738392E2B2D2A2FC1
S113170E5E716C657363746778706F66616D646E19
S113171E3D00256400202D3E200063616C63756CD2
S113172E6172204E312020636F6E200063616C6302
S113173E756C6172204E312079204E3220636F6EAB
S109174E00484F4C41006D
S9030000FC
