S012000050726F796563746F5F312E737265632D
S11300000C943C000C9459000C9459000C94590025
S11300100C94E2000C947D000C9459000C944A0159
S11300200C9459000C9459000C9459000C945900E8
S11300300C9459000C9459000C9459000C945900D8
S11300400C9459000C9459000C9459000C945900C8
S11300500C9459000C9459000C9459000C945900B8
S11300600C9459000C945900BE01C601CF01D9016A
S1130070E501ED01F601FE0111241FBECFEFD8E02A
S1130080DEBFCDBF11E0A0E0B1E0EAE8FBE002C0D2
S113009005900D92A233B107D9F721E0A2E3B1E0B4
S11300A001C01D92AC33B207E1F70E9457020C94D1
S11300B0C3050C940000E0ECF0E0908195FFFDCFC7
S11300C08093C6000895CF93DF93EC018881882341
S11300D031F021960E945B0089918111FBCFDF9161
S11300E0CF9108959093C5008093C40088E18093D4
S11300F0C10086E08093C20008951F920F920FB64C
S11301000F9211248F939F93809132019091330128
S1130110892B09F050C04C990DC080913A019091FF
S11301203B0190933901809338011092350110926C
S1130130340135C04D9910C080913A0190913B0132
S11301400196909339018093380181E090E0909377
S113015035018093340123C04E9910C080913A0137
S113016090913B010296909339018093380182E08B
S113017090E0909335018093340111C04F990FC0E2
S113018080913A0190913B010396909339018093B9
S1130190380183E090E0909335018093340181E04D
S11301A090E0909333018093320184E190E0909346
S11301B00301809302019F918F910F900FBE0F90C6
S11301C01F9018951F920F920FB60F9211248F93C0
S11301D09F938091320190913301892B09F053C090
S11301E0329910C080913A0190913B01049690930A
S11301F039018093380184E090E090933501809335
S1130200340135C0339910C080913A0190913B017B
S11302100596909339018093380185E090E090939E
S113022035018093340123C0349910C080913A0180
S113023090913B010696909339018093380186E0B2
S113024090E0909335018093340111C035990FC02B
S113025080913A0190913B010796909339018093E4
S1130260380187E090E0909335018093340181E078
S113027090E0909333018093320184E190E0909375
S11302800301809302019F918F910F900FBE0F90F5
S11302901F9018951F920F920FB60F9211242F934F
S11302A03F938F939F9380910201909103011816BD
S11302B019062CF401979093030180930201809115
S11302C0360190913701019690933701809336015E
S11302D08830910529F410923701109236011CC020
S11302E09C012D7F2130310519F02530310539F479
S11302F088B1836088B98BB18C608BB92AC0823095
S1130300910581F01CF4892B21F506C084309105F8
S113031089F00697B9F01DC0409810923B011092E5
S11303203A0117C0419888E090E090933B01809394
S11303303A010FC05A9880E190E090933B0180937A
S11303403A0107C05B9888E190E090933B01809369
S11303503A019F918F913F912F910F900FBE0F9073
S11303601F901895E0913401F0913501E830F105C2
S113037008F04DC0EC5CFF4F0C94D30289B1829518
S11303808F7091E08927817090E0089589B18295FA
S11303908695877091E08927817090E0089589B1EE
S11303A0829586958695837091E08927817090E087
S11303B0089589B1082E000C990B80959095892F8A
S11303C0881F8827881F90E0089586B186958695B2
S11303D091E08927817090E0089586B1869586958D
S11303E0869591E08927817090E0089586B1829581
S11303F08F7091E08927817090E0089586B182958D
S11304008695877091E08927817090E0089580E057
S113041090E00895FF920F931F93CF93DF93CDB78E
S1130420DEB7A1970FB6F894DEBF0FBECDBF8FE144
S1130430E4E0F1E0DE01119601900D928A95E1F776
S11304408091380190913901E1E0F0E0EC0FFD1F5B
S1130450E80FF91FF0809F938F9385E291E09F93BB
S11304608F938E01005E1F4F1F930F930E94D9023A
S1130470C8010E94630088E291E00E9463008F2D0E
S11304800E945B008AE00E945B000F900F900F9027
S11304900F900F900F90A1960FB6F894DEBF0FBE89
S11304A0CDBFDF91CF911F910F91FF90089587B138
S11304B0836087B98AB18C608AB987B1837C87B934
S11304C08AB18F708AB988B18C6388B98BB1806F17
S11304D08BB988B1836088B98BB18C608BB9ECE639
S11304E0F0E080818C638083EDE6F0E08081806FB2
S11304F08083E8E6F0E0808186608083A0EBB0E052
S11305001C92E1EBF0E010821092B2008CE7809331
S1130510B3008C9182608C93808185608083E0E756
S1130520F0E080818260808380E190E00E9472002C
S11305308DE291E00E9463007894CFEFDFEFEE2428
S1130540E394F12C04E110E0809100019091010109
S1130550892BF1F08091020190910301892BA1F77D
S11305600E94B201892B59F00E940A02F092010103
S1130570E09200011093030100930201E5CF109271
S1130580330110923201D0930301C0930201DCCFF6
S11305908091020190910301892BB1F610923301ED
S11305A010923201D1CFEE0FFF1F0590F491E02D90
S11305B00994AEE0B0E0EFEDF2E00C949A050D89F9
S11305C01E8986E08C831A8309838FEF9FE79E83BD
S11305D08D83AE01475E5F4F6F89788DCE010196A2
S11305E00E94FB02EF81F885E00FF11F10822E9626
S11305F0E4E00C94B605ABE0B0E0E1E0F3E00C9489
S11306008C056C017B018A01FC01178216828381AF
S113061081FFCCC1CE0101963C01F6019381F70123
S113062093FD859193FF81917F01882309F4BAC1D9
S1130630853239F493FD859193FF81917F01853251
S113064029F4B60190E00E94F204E7CF912C212C0A
S1130650312CFFE1F315D8F08B3279F038F4803285
S113066079F08332A1F4232D20611DC08D3261F015
S1130670803369F4232D216016C0832D8260382EC7
S1130680E32DE4603E2E2AC0F32DF8601DC037FC34
S11306902DC020ED280F2A3040F08E32B9F436FCFC
S11306A081C1232D2064322E19C036FE06C08AE093
S11306B0989E200D1124922E11C0EAE02E9E200D4A
S11306C01124222EF32DF0623F2E08C08C3621F423
S11306D0832D8068382E02C0883641F4F70193FDDB
S11306E0859193FF81917F018111B3CF982F9F7DD5
S11306F09554933028F40C5F1F4F9FE399830DC0EA
S1130700833631F0833771F0833509F059C021C045
S1130710F801808189830E5F1F4F88248394912C74
S1130720530113C02801F2E04F0E511CF801A080C0
S1130730B18036FE03C0692D70E002C06FEF7FEF19
S1130740C5010E94E7044C018201F32DFF773F2E7F
S113075016C0280122E0420E511CF801A080B1808D
S113076036FE03C0692D70E002C06FEF7FEFC50154
S11307700E94DC044C01F32DF0683F2E820133FC0F
S11307801BC0822D90E088169906B0F4B60180E271
S113079090E00E94F2042A94F4CFF50137FC85918D
S11307A037FE81915F01B60190E00E94F2042110AE
S11307B02A9421E0821A91088114910471F7E8C007
S11307C0843611F0893641F5F80137FE07C060819F
S11307D07181828193810C5F1F4F08C06081718198
S11307E0072E000C880B990B0E5F1F4FF32DFF761D
S11307F03F2E97FF09C090958095709561957F4F26
S11308008F4F9F4FF0683F2E2AE030E0A3010E94F3
S11308102E05882E861845C0853731F4232D2F7E6A
S1130820B22E2AE030E025C0932D997FB92E8F3661
S1130830C1F018F4883579F0B5C0803719F08837DD
S113084021F0B0C0E92FE061BE2EB4FE0DC0FB2D37
S1130850F460BF2E09C034FE0AC0292F2660B22ED0
S113086006C028E030E005C020E130E002C020E10D
S113087032E0F801B7FE07C0608171818281938103
S11308800C5F1F4F06C06081718180E090E00E5FB5
S11308901F4FA3010E942E05882E8618FB2DFF777B
S11308A03F2E36FE0DC0232D2E7FA22E891458F420
S11308B034FE0BC032FC09C0832D8E7EA82E05C0E9
S11308C0B82CA32C03C0B82C01C0B92CA4FE0FC0B3
S11308D0FE01E80DF11D8081803321F49A2D997E6B
S11308E0A92E09C0A2FE06C0B394B39404C08A2DF5
S11308F0867809F0B394A3FC11C0A0FE06C0B2141C
S113090088F4280C922C9B180EC0B21460F4B60123
S113091080E290E00E94F204B394F7CFB21418F48A
S11309202B1802C0982C212CA4FE10C0B60180E321
S113093090E00E94F204A2FE17C0A1FC03C088E765
S113094090E002C088E590E0B6010CC08A2D86785C
S113095059F0A1FE02C08BE201C080E2A7FC8DE247
S1130960B60190E00E94F204891438F4B60180E3E1
S113097090E00E94F2049A94F7CF8A94F301E80D70
S1130980F11D8081B60190E00E94F2048110F5CF40
S1130990222009F442CEB60180E290E00E94F204E3
S11309A02A94F6CFF6018681978102C08FEF9FEFDC
S11309B02B96E2E10C94A805FC010590615070406F
S11309C00110D8F7809590958E0F9F1F0895FC0114
S11309D06150704001900110D8F7809590958E0F6A
S11309E09F1F08950F931F93CF93DF93FB012381E0
S11309F021FD03C08FEF9FEF2CC022FF16C046815C
S1130A005781248135814217530744F4A081B18171
S1130A109D012F5F3F4F318320838C932681378143
S1130A202F5F3F4F3783268314C08B01EC01FB01FA
S1130A300084F185E02D0995892BE1F6D8011696FD
S1130A408D919C911797019617969C938E93169768
S1130A50CE01DF91CF911F910F910895FA01AA273A
S1130A60283051F1203181F1E8946F936E7F6E5FED
S1130A707F4F8F4F9F4FAF4FB1E03ED0B4E03CD09B
S1130A80670F781F891F9A1FA11D680F791F8A1F7E
S1130A90911DA11D6A0F711D811D911DA11D20D0E5
S1130AA009F468943F912AE0269F11243019305D9F
S1130AB03193DEF6CF010895462F4770405D419390
S1130AC0B3E00FD0C9F7F6CF462F4F70405D4A33DD
S1130AD018F0495D31FD4052419302D0A9F7EACFA5
S1130AE0B4E0A6959795879577956795BA95C9F7D4
S1130AF000976105710508959B01AC010A2E0694C7
S1130B005795479537952795BA95C9F7620F731F7F
S1130B10841F951FA01D08952F923F924F925F92BC
S1130B206F927F928F929F92AF92BF92CF92DF92F9
S1130B30EF92FF920F931F93CF93DF93CDB7DEB75E
S1130B40CA1BDB0B0FB6F894DEBF0FBECDBF0994F2
S1130B502A88398848885F846E847D848C849B8449
S1130B60AA84B984C884DF80EE80FD800C811B8157
S1130B70AA81B981CE0FD11D0FB6F894DEBF0FBE86
S10D0B80CDBFED010895F894FFCFF6
S1130B8A0100FFFF6D3132333435363738392E2BB5
S1130B9A2D2A2F5E716C657363746778706F666152
S1130BAA30646E3D00256400202D3E2000484F4CE1
S1050BBA4100F4
S9030000FC
