S012000050726F796563746F5F312E737265632D
S11300000C9434000C9451000C9451000C94510045
S11300100C9414010C94C2000C9451000C945100E3
S11300200C9451000C9451000C9451000C94510008
S11300300C9451000C9451000C9451000C945100F8
S11300400C9451000C9451000C9451000C945100E8
S11300500C9451000C9451000C9451000C945100D8
S11300600C9451000C94510011241FBECFEFD8E022
S1130070DEBFCDBF11E0A0E0B1E0ECE9F9E002C0E1
S113008005900D92AC35B107D9F721E0ACE5B1E0AC
S113009001C01D92A036B207E1F70E9467010C94DB
S11300A0CC040C940000E0ECF0E0908195FFFDCFCF
S11300B08093C6000895CF93DF93EC018881882351
S11300C031F021960E94530089918111FBCFDF9179
S11300D0CF9108959093C5008093C40088E18093E4
S11300E0C10086E08093C2000895FF920F931F938E
S11300F0CF93DF93CDB7DEB7A1970FB6F894DEBFE9
S11301000FBECDBF8FE1E0E0F1E0DE01119601907A
S11301100D928A95E1F780915C0190915D01E1E097
S1130120F0E0EC0FFD1FE80FF91FF0809F938F9311
S113013081E291E09F938F938E01005E1F4F1F9386
S11301400F930E94E201C8010E945B0084E291E0E7
S11301500E945B008F2D0E9453008AE00E9453008E
S11301600F900F900F900F900F900F90A1960FB6D5
S1130170F894DEBF0FBECDBFDF91CF911F910F91D9
S1130180FF9008951F920F920FB60F9211242F9390
S11301903F934F935F936F937F938F939F93AF930B
S11301A0BF93EF93FF934C9909C080915E019091A6
S11301B05F0190935D0180935C0123C04D990AC057
S11301C080915E0190915F01019690935D0180930F
S11301D05C0117C04E990AC080915E0190915F0145
S11301E0029690935D0180935C010BC04F9909C006
S11301F080915E0190915F01039690935D018093DD
S11302005C010E947500FF91EF91BF91AF919F91A6
S11302108F917F916F915F914F913F912F910F90AB
S11302200FBE0F901F9018951F920F920FB60F924A
S113023011242F933F934F935F936F937F938F93E7
S11302409F93AF93BF93EF93FF9332990AC080912A
S11302505E0190915F01049690935D0180935C012F
S113026023C033990AC080915E0190915F01059685
S113027090935D0180935C0117C034990AC080910A
S11302805E0190915F01069690935D0180935C01FD
S11302900BC0359909C080915E0190915F0107966A
S11302A090935D0180935C010E947500FF91EF9132
S11302B0BF91AF919F918F917F916F915F914F917A
S11302C03F912F910F900FBE0F901F90189587B1FB
S11302D0836087B98AB18C608AB987B1837C87B916
S11302E08AB18F708AB988B18C6388B98BB1806FF9
S11302F08BB988B1836088B98BB18C608BB9ECE61B
S1130300F0E080818C638083EDE6F0E08081806F93
S11303108083E8E6F0E080818660808380E190E07D
S11303200E946A0087E591E00E945B00789468E08F
S113033070E040E150E028E130E0409889EF90E03F
S11303400197F1F700C0000088B1836088B98BB1D0
S11303508C608BB910925F0110925E01419889EF15
S113036090E00197F1F700C0000088B1836088B97C
S11303708BB18C608BB970935F0160935E015A9866
S113038089EF90E00197F1F700C0000088B1836025
S113039088B98BB18C608BB950935F0140935E0137
S11303A05B9889EF90E00197F1F700C0000088B1F5
S11303B0836088B98BB18C608BB930935F012093D3
S11303C05E01BBCFAEE0B0E0E8EEF1E00C94A30434
S11303D00D891E8986E08C831A8309838FEF9FE73A
S11303E09E838D83AE01475E5F4F6F89788DCE010A
S11303F001960E940402EF81F885E00FF11F10823C
S11304002E96E4E00C94BF04ABE0B0E0EAE0F2E046
S11304100C9495046C017B018A01FC0117821682FD
S1130420838181FFCCC1CE0101963C01F601938109
S1130430F70193FD859193FF81917F01882309F44E
S1130440BAC1853239F493FD859193FF81917F017F
S1130450853229F4B60190E00E94FB03E7CF912C8A
S1130460212C312CFFE1F315D8F08B3279F038F4DC
S1130470803279F08332A1F4232D20611DC08D32A6
S113048061F0803369F4232D216016C0832D8260CE
S1130490382EE32DE4603E2E2AC0F32DF8601DC0F3
S11304A037FC2DC020ED280F2A3040F08E32B9F4ED
S11304B036FC81C1232D2064322E19C036FE06C0BD
S11304C08AE0989E200D1124922E11C0EAE02E9EFF
S11304D0200D1124222EF32DF0623F2E08C08C36FD
S11304E021F4832D8068382E02C0883641F4F70148
S11304F093FD859193FF81917F018111B3CF982F53
S11305009F7D9554933028F40C5F1F4F9FE399838C
S11305100DC0833631F0833771F0833509F059C04B
S113052021C0F801808189830E5F1F4F8824839442
S1130530912C530113C02801F2E04F0E511CF80115
S1130540A080B18036FE03C0692D70E002C06FEF59
S11305507FEFC5010E94F0034C018201F32DFF7768
S11305603F2E16C0280122E0420E511CF801A08043
S1130570B18036FE03C0692D70E002C06FEF7FEFDB
S1130580C5010E94E5034C01F32DF0683F2E820162
S113059033FC1BC0822D90E088169906B0F4B60196
S11305A080E290E00E94FB032A94F4CFF50137FC2B
S11305B0859137FE81915F01B60190E00E94FB03B3
S11305C021102A9421E0821A91088114910471F770
S11305D0E8C0843611F0893641F5F80137FE07C0CA
S11305E060817181828193810C5F1F4F08C060819B
S11305F07181072E000C880B990B0E5F1F4FF32D92
S1130600FF763F2E97FF09C0909580957095619570
S11306107F4F8F4F9F4FF0683F2E2AE030E0A301B9
S11306200E943704882E861845C0853731F4232D5F
S11306302F7EB22E2AE030E025C0932D997FB92E6B
S11306408F36C1F018F4883579F0B5C0803719F0C9
S1130650883721F0B0C0E92FE061BE2EB4FE0DC092
S1130660FB2DF460BF2E09C034FE0AC0292F26607A
S1130670B22E06C028E030E005C020E130E002C020
S113068020E132E0F801B7FE07C060817181828108
S113069093810C5F1F4F06C06081718180E090E000
S11306A00E5F1F4FA3010E943704882E8618FB2D6E
S11306B0FF773F2E36FE0DC0232D2E7FA22E8914E8
S11306C058F434FE0BC032FC09C0832D8E7EA82E54
S11306D005C0B82CA32C03C0B82C01C0B92CA4FEAF
S11306E00FC0FE01E80DF11D8081803321F49A2DA5
S11306F0997EA92E09C0A2FE06C0B394B39404C087
S11307008A2D867809F0B394A3FC11C0A0FE06C01C
S1130710B21488F4280C922C9B180EC0B21460F406
S1130720B60180E290E00E94FB03B394F7CFB214C9
S113073018F42B1802C0982C212CA4FE10C0B6016A
S113074080E390E00E94FB03A2FE17C0A1FC03C05B
S113075088E790E002C088E590E0B6010CC08A2DDD
S1130760867859F0A1FE02C08BE201C080E2A7FCAA
S11307708DE2B60190E00E94FB03891438F4B601BF
S113078080E390E00E94FB039A94F7CF8A94F301EC
S1130790E80DF11D8081B60190E00E94FB038110F9
S11307A0F5CF222009F442CEB60180E290E00E9407
S11307B0FB032A94F6CFF6018681978102C08FEF5E
S11307C09FEF2B96E2E10C94B104FC01059061507B
S11307D070400110D8F7809590958E0F9F1F089553
S11307E0FC016150704001900110D8F780959095FC
S11307F08E0F9F1F08950F931F93CF93DF93FB01D9
S1130800238121FD03C08FEF9FEF2CC022FF16C070
S113081046815781248135814217530744F4A081CE
S1130820B1819D012F5F3F4F318320838C932681BB
S113083037812F5F3F4F3783268314C08B01EC0130
S1130840FB010084F185E02D0995892BE1F6D8019F
S113085016968D919C911797019617969C938E935B
S11308601697CE01DF91CF911F910F910895FA0150
S1130870AA27283051F1203181F1E8946F936E7FDB
S11308806E5F7F4F8F4F9F4FAF4FB1E03ED0B4E0CC
S11308903CD0670F781F891F9A1FA11D680F791F0D
S11308A08A1F911DA11D6A0F711D811D911DA11D1E
S11308B020D009F468943F912AE0269F112430192E
S11308C0305D3193DEF6CF010895462F4770405DC9
S11308D04193B3E00FD0C9F7F6CF462F4F70405D78
S11308E04A3318F0495D31FD4052419302D0A9F7D3
S11308F0EACFB4E0A6959795879577956795BA95CD
S1130900C9F700976105710508959B01AC010A2E92
S113091006945795479537952795BA95C9F7620F69
S1130920731F841F951FA01D08952F923F924F920D
S11309305F926F927F928F929F92AF92BF92CF926B
S1130940DF92EF92FF920F931F93CF93DF93CDB774
S1130950DEB7CA1BDB0B0FB6F894DEBF0FBECDBFEC
S113096009942A88398848885F846E847D848C84BD
S11309709B84AA84B984C884DF80EE80FD800C81C6
S11309801B81AA81B981CE0FD11D0FB6F894DEBFA9
S10F09900FBECDBFED010895F894FFCF19
S113099C6D3132333435363738392E2B2D2A2F5EC0
S11309AC716C657363746778706F666130646E3DE7
S11309BC00256400202D3E200063616C63756C611E
S11309CC72204E312020636F6E200063616C63755E
S11309DC6C6172204E312079204E3220636F6E0090
S10F09EC4572726F720A00484F4C4100C3
S9030000FC
